:20000000E83F00207557000001CA011001CA011001CA011001CA011001CA011001CA0110A5
:1C00200001CA011001CA011001CA011001CA011001CA011001CA01103FCA011082
:20003C003EB50B4611460024002837D0401E2DD0401E23D0401E0AD0401E37D1122B01D05E
:20005C00182434E01B48122203F0B8FE2FE0122B01D018242BE0184D1222284603F0AEFEEA
:20007C001122FF2100921948144A0191184B029200682946224603F0BFFB18E0012B01D056
:20009C00182414E008780E49087010E0012B01D018240CE008780B49087008E0012B01D07F
:2000BC00182404E008780849087000E0022420463EBDC046462B0020222B0020CB4A00003B
:2000DC000F2B0020FC2A0020E92A00201423002058280020024B0021082205F026BDC046C4
:0400FC00D3760000B7
:200100003C000000000000000000000034010000000000000000000001000000000000006D
:1C01200000000000000000000000000001000000000000000800000000000000BA
:20013C00340000000000000000000000680100000000000000000000010000000000000005
:14015C00010000000000000000000000080000000000000086
:2001700030000000000000000000000098010000040000000000000001000000FFFFFFFFA5
:10019000FF00000001000000080000000000000057
:2001A0002C0000000000000000000000C4010000040000000000000001000000FFFFFFFF4D
:0C01C000FFFFFFFF08000000000000002F
:2001CC0034050000E401000099A1011095A70110A5C2011009B2011045B80110000000000B
:0801EC00000000002E000000DD
:2001F400280000000000000000000000140200000000000000000000FFFFFFFF00000000B1
:080214000800000000000000DA
:20021C00300500003002000069C201106DC101101FC2011095BA011000000000000000008E
:04023C00300000008E
:20024000300500005402000075C20110A9B601109DBF011049B601100000000000000000DE
:040260003100000069
:200264002400000000000000000000008002000000000000000000000000000008000000CC
:040284000000000076
:20028800240000000000000000000000A40200000000000000000000000000000800000084
:0402A8000000000052
:2002AC00240000000000000000000000C8020000000000000100000000000000080000003B
:0402CC00000000002E
:2002D00000000000942900200400000000000000000000002000000070010000300000006C
:2002F0001C020000A82900200400000000000000000000000C000000300400001800000083
:2003100040020000B429002004000000000000000000000024000000480400001800000002
:2003300000000000BC29002004000000000000000000000010000000A00100002C000000C7
:20035000CC010000C429002004000000000000000000000020000000640200002400000005
:20037000FFFFFFFFE42900200400000000000000000000002800000088020000240000006A
:20039000FFFFFFFFF4290020040000000000000000000000580000003C0100003400000047
:2003B000FFFFFFFFFC2900200400000000000000000000001000000060040000180000005C
:2003D000FFFFFFFF042A00200400000000000000000000001C000000AC02000024000000D1
:2003F000FFFFFFFF202A002004000000000000000000000038000000F4010000280000002E
:20041000FFFFFFFF282A002004000000000000000000000054000000000100003C000000C9
:1804300018000000000000000000000040040000080000000000000050
:1804480018000000000000000000000058040000080000000000000020
:18046000180000000000000000000000700400000800000000000000F0
:08047800010000006C7C000093
:0404800006F066BD5F
:040484000100000073
:0404880000000C0064
:04048C0000000D005F
:040490003200000036
:040494000200000062
:04049800042E00200E
:04049C00000200005A
:0404A0000000000058
:0404A40001CA011078
:0404A8000000000050
:0404AC00000000004C
:0404B0000800000040
:0404B4000000200024
:0404B800CC2D002027
:0404BC00010000003B
:0404C000CC29002023
:0404C400080000002C
:0404C8000000000030
:0404CC00000000002C
:0404D0000000000028
:0404D4000000000024
:0404D8000000000020
:0404DC00010000001B
:0404E000642E002066
:0404E400060000000E
:0404E800010000000F
:0404EC00FC2C0020C4
:0404F0000000000008
:0404F4000000000004
:0404F80000020000FE
:0404FC0000000000FC
:02050000704742
:020502002A00CD
:020504000100F4
:020506002500CE
:020508003000C1
:02050A003100BE
:02050C002E00BF
:02050E000100EA
:0105100001E9
:0805140003000000207C000040
:08051C000000000000000000D7
:0405240000000100D2
:0405280000000300CC
:04052C0087C401106F
:04053000380500008A
:040534003805000086
:0405380000000000BF
:04053C00800000003B
:040540008000000037
:0405440000000000B3
:04054800CC2900209A
:04054C002374000014
:040550002000000087
:04055400DC7B00004C
:04055800D07A000055
:04055C000DC30110BA
:04056000BF4C00008C
:04056400C35300007D
:0405680099C801101D
:04056C009BC8011017
:040570000000000087
:04057400A77A000062
:040578004C7A0000B9
:04057C00647A00009D
:04058000347A0000C9
:0205840008006D
:0205860009006A
:02058800010070
:02058A0000006F
:01058C00016D
:040590000000000067
:040594000000000063
:04059800000000005F
:04059C00000000005B
:0405A000B172000034
:0405A400C95A000030
:0405A800AD6B000037
:0405AC0041580000B2
:0405B000814D000079
:0405B400A161000041
:0405B8007943000083
:0405BC00B16F00001B
:0405C0003D4E0000AC
:0405C40011C8011049
:0405C80021C8011035
:0405CC000800000023
:0405D0002400000003
:0405D400180000000B
:0405D80028000000F7
:0405DC0020000000FB
:0405E0003C000000DB
:0405E4000C00000007
:0405E80034000000DB
:2005EC002DE9F04F064640F29421012541F22D00ADF10C0DC4F22231C4F2090040F81D5CB1
:20060C0008680028FCD043F6AC7E46F2440AC020C5F2000EC4F20C0AF4464AF8440CDEF86E
:20062C000890DCF8041046F25620C4F20800890807D271460A686FF00F0E4EEA12410170B7
:20064C0001E07221017041F28C38C5F2000858F8D41CC1F304611629A8BF203962469268F9
:20066C0012175118491C11F10A0FB8BF6FF0090100232C4625EAD96201F01F01C4F2203383
:20068C0041F4F851018324EA996E1A60002EC3F808E073D058F83C1CC1F38360C1F38F2700
:2006AC005FEA994167D249F3072CBCF1000F29D549F307214A42B1F1FF3F4FEA620215DA4D
:2006CC007F0805D1400806BF281C2F1C4FF6FF777F080CF1010C05D1400806BF281C2F1C57
:2006EC004FF6FF77521E0CF1010CE9D1490809D37F0805D1400806BF281C2F1C4FF6FF771E
:20070C000CF1010CBCF1000F35DDBCF1020F4FEA6C020CF001031DDB4FF6FF717F0047F02D
:20072C000107B94207D2400040F001000F2892BF2F1C0F200F1C7F0047F00107B94207D2A1
:20074C00400040F001000F2892BF2F1C0F200F1C521EE3D1002B0EDD7F004FF6FF7147F04A
:20076C000107B94207D2400040F001000F2892BF2F1C0F200F1C47EA004703E040F6FF77EC
:20078C00C0F20F0706F00CFF39460022002808BF2A1C48F20007C4F20C0738680028FCD010
:2007AC004AF20800C4F20C0001613D600AB106F0FDFE002E08BFD82109D058F83C1C58F8BD
:2007CC003C0CC1F3870100F0030041EA002188B2009040F2FF3200232C214AF20000C4F2BB
:2007EC000C0004F003FC002E1ABF58F8100CC0F30D0B40F2FF3B06F0D3FE0021002808BF6D
:20080C00291C38680028FCD04AF20800C4F20C00C0F814B03D6009B106F0C8FE002E04BF6D
:20082C004FF0000BC6F6880B0DD058F818BC0BF07C420BF47C010BF47C4011430BF0FC0BCC
:20084C0008434BEA000B06F0ABFE0021002808BF291C38680028FCD04AF20800C4F20C0073
:20086C00C0F80CB03D6009B106F0A0FE002E04BF47F28A6BC0F2680B0DD058F81CBC0BF4C5
:20088C007C020BF47C410BF4707011430BF03F0B08434BEA000B06F083FE0021002808BF88
:2008AC00291C38680028FCD04AF20800C4F20C00C0F808B03D6009B106F078FE002E3AD0E2
:2008CC0058F8140C43F6AC71C5F200014B68C0F303525B08C0F3034117D243F6AC73C5F281
:2008EC0000031B6843F3032C12EB0C0203D4102A02DB0F2200E0002243F30333C91803D4B1
:20090C00102902DB0F2100E0002141EA021100F47F4200F0F00E0B0400F00F0B222E42EA0E
:20092C0003024EEA02014BEA010B08D300F0804040EA0B0B03E043F6277BC0F2710B06F07D
:20094C002FFE0021002808BF291C38680028FCD04AF20800C4F20C00C0F804B03D6009B1AC
:20096C0006F024FE222E26BFD8F80000C0F30070281C4AF2400BC4F20C0B222E4FEA4000CA
:20098C0040F020008BF8090126BFD8F80000C0F34070281C202E40F010008BF809013CBFFC
:2009AC00002001900CD3D8F80C00C20C02F44072800D00F01C0100F003001143084301908C
:2009CC0006F0EEFD019A0021002808BF291C38680028FCD04AF20800C4F20C0002623D609F
:2009EC0009B106F0E3FD202E26BFD8F80C00C0F301500020222E4FEA400040F060008BF84C
:200A0C000C0126BFD8F80000C0F3C06100216FF07F00222E40EAC1008BF8010126BFD8F8C0
:200A2C000000C0F3455100214FF60040202ECFF6FF7040EA8100ABF89C0105D248F200003D
:200A4C00C4F23F0001900BE0D8F80C000003820D00F47C11920500F47040114308430190BF
:200A6C0006F09EFD019A0021002808BF291C38680028FCD04AF20800C4F20C0002603D6050
:200A8C0009B106F093FD44204FF0880E8BF8C500002E8BF8C7E01ABFD8F80000C0F3C141D3
:200AAC00002140F68406C9F3815041F03001C4F28C3600288BF8C81041D0401E07D0401EBB
:200ACC0037D00420022104F0E6FA00214BE0284606F0A0F804460420214604F0DCFA0420DD
:200AEC0006F098F88442FAD143F6AC70C5F2000050F8040C0104090C4AF8081CC0F3074EE7
:200B0C004AF804ECCAF8005031680029FCD0002240F2B411CAF80020C1F2000109680B6864
:200B2C00000E4FF06022072198474FF48060CBF800000420032104F0AEFA002113E00420D1
:200B4C00294604F0A8FA43F2BD704AF8080C4FF086094AF8049CCAF8005030680028FCD07E
:200B6C000021CAF8001058F8200C4BF2700342F22C0E41F22D0C47F6180240F29449C4F254
:200B8C000C0300F03F00C4F2090E8BF8CB0FC4F2090C1A80DEF800004AF8441CC4F26029C5
:200BAC004CF81D1C03B0C9F80050BDE8F08F70472DE9F04114460D460027A14BDFF888C2E5
:200BCC00A04ADFF88882A0F201311A2900F27381DFE811F067015D01550171011D011501C7
:200BEC00FA00DF00D400C900BF00B400A900710171019E009100840079006C0071017101F7
:200C0C0071017101550071011B00012D35D11946087801282FD01146087822780A7088B1A3
:200C2C000E787EB960460178032906D00178072903D00078052840F0488141460878FFF7B3
:200C4C0051FA42E1002840F040810E78002E00F03C8160460178012909D00178042906D002
:200C6C000178062903D00078052840F02E81012006F0DCFA29E1122727E1182725E1207854
:200C8C00012D11D101280FD1914806F0F5FB48B9384602F065FE071C40F017818D4806F0E6
:200CAC0032FD12E1162710E118270EE12088022D07D10A2805DBB0F5486F02DC8649088058
:200CCC0003E1182701E12088022D05D1B0F5FA7F02DA82490880F8E01827F6E02088022D45
:200CEC0007D1062805DBB0F5486F02DC7C490880EBE01827E9E02088022D07D1062805DBEB
:200D0C00B0F5486F02DC77490880DEE01827DCE0012D06D12078022803DA2078724908701D
:200D2C00D3E01827D1E0012D06D12078042803DA20786E490870C8E01827C6E0012D06D105
:200D4C002078082803DA207869490870BDE01827BBE0062D01D01827B7E066482168016037
:200D6C00A1888180B1E0012D06D12078042803DA207861490870A8E01827A6E0012D06D1FA
:200D8C002078042803DC20785C4908709DE018279BE0202D01DB182797E0594E39461F2272
:200DAC00304603F028FC21462A46304603F00EF85448057041460246087812783346394672
:200DCC0004F0DCFB074680E0202D01DB18277CE04D4E39461F22304603F00DFC21462A4627
:200DEC00304602F0F3FF4948057041460246087812783346012104F0C1FB074665E0022DA2
:200E0C0001D0182761E02088414908805DE0012D33D11146087801282DD0194608782278D6
:200E2C000A70A8B10E789EB960460178022902D00078052849D141460878FFF753F944E0AE
:200E4C006E2B00206F2B0020242300201A23002000283AD10E78002E37D060460178012918
:200E6C0005D00178042902D0007805282DD1012006F0DCF929E0122727E0182725E0042DCC
:200E8C0001D0182721E02068224908601DE0102D01D0182719E020482146102202F096FF0F
:200EAC0013E0102D01D018270FE01C482146102202F08CFF09E0272801DA022D01D0022741
:200ECC0003E0218805F05AFA07463846BDE8F081D4210020B0210020C82B0020C62B002026
:200EEC00C42B0020C22B0020C02B0020222300201F230020B22B0020202300202123002034
:200F0C00932B0020922B0020732B0020722B0020702B0020F0220020942200208422002006
:200F2C002DE9F84FC64DC74ED5F8EF1FCC4C7368D5F8F30F8843C5F8F30F002BC5F8FF1FF3
:200F4C0000F011817788012B00F0D680DFF8FCB2BF4FDFF800A3DFF80093DFF80083022B94
:200F6C0072D0032B40F06A810024B06855F8312C74600028A2F5C062B8BF404211460029C6
:200F8C00B8BF494288422EDA111C54BF02206FF00100B26900EB4100032190FBF1F1891836
:200FAC00B161F368706998420BD0B1F11002B8BF524230691038B8BF40428242B8BF88B21C
:200FCC0009DB98B20090A04830214FF47F42082304F00CF8308A00909B4804214FF4F80258
:200FEC00122304F003F85846046001688908FCD20460012644600E203E6002F031FA504649
:20100C000468EFF3118584F3118849460820B0FA80F00A1AD07F431E0128D37704D142465B
:20102C00106820F00800106085F31188EFF3118384F311880420B0FA80F0091AC87F421E05
:20104C000128CA7754D14EE055F8310CB0F5C06F17D00327776001F05FFD45F8397C00271B
:20106C00276020688008FCD27748394660220523009103F0BBFF0126266020688008FCD34D
:20108C0064E0002171605846016002689208FCD20160012641600E203E6002F0E1F95046E6
:2010AC000468EFF3118584F3118849460820B0FA80F00A1AD07F431E0128D37704D14246BB
:2010CC00106820F00800106085F31188EFF3118384F311880420B0FA80F0091AC87F421E65
:2010EC000128CA7704D14246106820F00400106083F31188BDE8F88F55F8312C02214BF2DC
:20110C00F52071605043000A37B95649096821F07F414018400801E0002171806060000C10
:20112C00A0600126E660032745F8397C0027276020688008FCD24448394660220523009148
:20114C0003F054FF266020688008FCD345F8216C45F8397C0820C5F8FF0FC5F8F30F45F82D
:20116C00396CBDE8F88F40480068006801462020884741F61D574FF002080F2045F82D0C4B
:20118C0000214FF4C072072345F8297C2E48CDF8008003F02BFF012744F8047C54F8040C89
:2011AC008008FBD3308845F81D7C012821D0032045F8390C4FF00009C4F8009020688008DC
:2011CC00FCD22148494660220523009103F00EFF276020688008FCD345F8217C45F8399CB0
:2011EC000820C5F8FF0FC5F8F30F45F8397C474623E04FF00009C4F80C90032045F8390C6A
:20120C00C4F8009020688008FCD20F48CDF8008049466022052303F0E9FE27602068800852
:20122C00FCD3202045F8210C45F8399C0824C5F8FF4FC5F8F34F45F8397C7760BDE8F88FEC
:20124C0039400C40042F002000A00C4034600C4004800C40647C00007B290020DC2B002003
:20126C0038600C4010200940A00100102DE9F84F05460024DFF8B082DFF8C492A87800280A
:20128C0000F00781DFF89CA2DFF8B0E2801E00F0D680DFF8A0C2401E012840F29880DFF887
:2012AC006492994F994EDFF878B2801E55D0401E26D0401E03D0083800F00D8110E190488D
:2012CC0006F021FA6878002840F00A81E888A9F8000028893880688930808D4806F0CCF884
:2012EC00002840F0FD808B490868002800F0F880096848460B683288008839889847EFE016
:20130C00A88805F05CFB84482146062203F073F9484604803C8034808049A87908707C48E3
:20132C0006F0F1F9764806F0EEF9012458464FF6FF7101805246107858B9A879082801D1D9
:20134C00052100E0042140460170204605F06EFFC6E0404603210170C2E06B784BBB6E4994
:20136C00281D02680A6080888880698958460180404606210170E98948460180288A38801E
:20138C00688A30806949E878087069480078012808D11F2004F00EFC4FF47A7141435C4857
:2013AC0005F088F8E8786A89291D042304F0A6FA0BE06878312803D040460821017004E05D
:2013CC0061460C70404604210170012488E06F78002F2FD1A87803281ED05748078847B9B8
:2013EC0061460878012802D0524614700BE00C7009E052466146177809780F4303D0018856
:20140C00704605F057F840460178072901D1062100E00421017010E042461078062801D128
:20142C00072005E06146087808B1022000E00320107002E0404608210170012450E06F78D1
:20144C0007BBEF78AFB94046017802291AD00178072917D00078062803D15046007801289A
:20146C0010D1704606F008F860B9012005F0DEFE08E034494846344B0A780078214604F001
:20148C007DF86870687858B3404608210170012426E06878C8B92D4A0220102104F042FE5E
:2014AC002B4A0320102104F03DFEED1C294829680160A98881800121404601704846264A73
:2014CC00264B0078127804F059F810B1404608210170012404E028468088052106F036F89E
:2014EC00012C0AD11E49086838B10868006820B108680168404600788847BDE8F88FC04697
:20150C00D4210020CA2B0020CC2B0020CE2B0020B0210020D82B0020BA2B0020D12B002030
:20152C00B82B00206F2B002024230020D02B0020C02B00206E2B0020702B00208C21002014
:20154C001A230020922B0020932B00208422002094220020D4220020722B0020732B00203A
:20156C00D42B00202DE9F04F5FEA0009ADF11C0D00F05581AC480068EFF3118280F311882F
:20158C00DFF8C8B29BF80400012818BF012003D1022100208BF8041082F31188012800F061
:2015AC003C8106F09BF90390A948046804EB0B0006F090F94FF00008464637460BEB040124
:2015CC00CDF810800191B0B90C46084606F07EF90546A868400808D3E868296902460120D9
:2015EC009047C0B2002840F01081284606F06AF90546AC42EDD1002F40F00B8106F05EF9B7
:20160C000290059789480760012005F003FB012804D1404604F012FA4FF00108844F386805
:20162C008068014630468847864819300090D0F8FF0FB9F1000F00F08C80864C0A34E5798A
:20164C0005B10126A5790DB146F0020665790DB146F00406DFF8DC9165782DB1B86A006B1F
:20166C0049460246C88D904725782DB1B86A006B49460246488D90476F4901200860B86A6D
:20168C008069014646F0200088476C4DDBF80010286840F001002860480813D2684805F02A
:2016AC0016FF8246BAF1040FF8D0D5F8180220F00300C5F81802B86C40680246604803210A
:2016CC00904701E001200490059800F085FDB86A0099806BD1F8FF1F8047049858B9B86C5D
:2016EC0040680246564851469047D5F8180240F00300C5F818023868806801460120884732
:20170C00504801688909FCD3B8F1010F02D1012004F094F9B86A4069014630468847B86AB4
:20172C00406B0146304688470128F8D166782EB1B86AC06A49460246C88D904726782EB1EB
:20174C00B86AC06A49460246488D90473A49012008603A480168032221F001010160019885
:20176C008BF8042006F0B6F80028059818BF01200125C0B9019C204606F0A8F80646B068B9
:20178C00C00806D3F0683169024604209047C0B230B9304606F096F80646B442EFD102E02E
:2017AC002948006880472148009F0560D7F8FF0F05F0FCFE019806F08DF8059FC8B9019C6E
:2017CC00204606F083F80646B068000906D3F0683169024608209047C0B230B9304606F0E0
:2017EC0071F80646B442EFD103E0174800688047022702988BF8045006F05CF803F028FA08
:20180C00039806F053F838460AE00F4800688047022701208BF80400F2E7062000E0022020
:20182C0007B0BDE8F08FC046647C00000C40094090010010E8790000282008600C20084020
:20184C000040034014100940587C0000DC2B0020547C0000682900202DE9F043ADF1640DB8
:20186C007C4D7D49284604F0D3FF7D4805F036FE7A490860002404260A227B4979480094ED
:20188C002346019603F05AFB03F096FD1F20062104F074FD01278DF80870A146ADF80A9058
:2018AC008DF80C700620ADF80E008046ADF810800520ADF812004FF47A70ADF8140040F253
:2018CC00053002AA3946FFF773F940F2063002210DF10A02FFF76CF9644A4FF4427019216D
:2018EC00FFF766F9624A40F207300721FFF760F94FF4447003AA3946FFF75AF940F211301C
:20190C0002210DF10E02FFF753F940F21230022104AAFFF74DF940F2133002210DF112021D
:20192C00FFF746F94FF44570022105AAFFF740F9504A2046152105F031FCA0244046214664
:20194C0004F01CFD0720214604F018FD0820214604F014FD0920214604F010FDCDF8189045
:20196C008DF81C708DF81D708DF81E90B8468DF81F804FF48160314606AA04F083FA4FF4E4
:20198C00806007AA394604F07DFA40F202400DF11D02394604F076FA40F2034039460DF15A
:2019AC001E0204F06FFA40F2064039460DF11F0204F068FA4FF0FF3005F055FE4FF0FF300E
:2019CC0005F069FE05F092FC4FF0FF3003F042FE13A84946122202F00EFE02278DF82070C1
:2019EC0003248DF8214024490EA8122202F0EEF9224909A8122202F0E9F913AA48464146A8
:201A0C00FEF716FB404608AA0146FEF711FB384641460DF12102FEF70BFB0EAA20461221C2
:201A2C00FEF706FB3046122109AAFEF701FB144805F0ACFC134805F013F9134804F0D3FFE1
:201A4C00287805F008FE287805F009FE19B0BDE8F083C0461C23002010230020E822002080
:201A6C00B022002068210020217200004C2C0020652C00206C2C00201F7B0000317B0000E5
:201A8C00A42C0020982C00209C2C00202DE9F0411C4615468C4208BF854282BF0023002298
:201AAC00E5E0002C08BF002D0AD100290EBF00286FF000006FF0000100F0E1F8BDE8F0819E
:201ACC005FF000085FF0000E002C08BF8D429CBF2C1C0025070C47EA01470E0CB44208BF59
:201AEC00BD429EBF5FEA044444EA15445FEA0545070A47EA01670E0AB44208BFBD429EBFF8
:201B0C005FEA042444EA15645FEA0525470847EAC1774E08B44208BFBD4200F293808708D0
:201B2C0047EA81778E08B44208BFBD427CD8C70847EA4177CE08B44208BFBD4266D8070932
:201B4C0047EA01770E09B44208BFBD4250D8470947EAC1674E09B44208BFBD423AD8870977
:201B6C0047EA81678E09B44208BFBD4224D8C70947EA4167CE09B44208BFBD420DD8E601E9
:201B8C0046EA5566EF01B14208BFB84201D3C01BB14158EB08085EEB0E0EA60146EA95667F
:201BAC004FEA8517B14208BFB84201D3C01BB14158EB08084EEB0E0E660146EAD5666F0105
:201BCC00B14208BFB84201D3C01BB14158EB08084EEB0E0E260146EA15762F01B14208BF30
:201BEC00B84201D3C01BB14158EB08085EEB0E0EE60046EA5576EF00B14208BFB84201D32E
:201C0C00C01BB14158EB08084EEB0E0EA60046EA9576AF00B14208BFB84201D3C01BB1415E
:201C2C0058EB08084EEB0E0E660046EAD5766F00B14208BFB84201D3C01BB14158EB0808F8
:201C4C005EEB0E0EA14208BFA84201D3401BA14158EB08085EEB0E0EA34208BFAA423EBF21
:201C6C002D0A45EA0465240A89D3734642461E4617460B46024631463846BDE8F0817047A2
:201C8C002DE9FF476648674902F0C8F9634C20606549206805F090FC6449206804F09AF929
:201CAC00FFF7DAFD00200146024605F0FBFD6049086001F0F9FC802042F2FF416A4603F001
:201CCC00A5FC802041F68F516A4603F09FFC802042F608516A4603F099FC80204FF43C5189
:201CEC006A4603F093FC802042F210716A4603F08DFC802042F610616A4603F087FC802016
:201D0C004FF462516A4603F081FC4A4C206840690146022088472068406B01460220884737
:201D2C000228F8D02068C06901464FF44070884741484FF0010AC0F800A0201F00683F4D8D
:201D4C00C06C1B211C220346284698470C3C20683B49006800220346284698473E20002148
:201D6C00292203F02BFE3D200321292203F026FE0A200021292203F021FEDFF8C880334CC7
:201D8C00314D4FF6FF764FF000094FF0FF3005F0B9F8002835D1CDF808900DF1060001A96A
:201DAC0002AA04F0C3F838BB5746BDF80600102812D1B8F80000BDF8041088420CD102989C
:201DCC0001888E4205D14088000905D303F07CFA02E005F0D1FA0746029868B167B105F007
:201DEC0051F809E0286805F00BF9071C04D005F0AEF9384604F0F6FF286805F06BFD00280D
:201E0C00F0D02078C008C0D3207800F0FB0020700F4805F076FC05F0A5F8B6E708230020B8
:201E2C00BC2200208C2C00208104000017000580EC220020B8010010282008600020004098
:201E4C00006CDC021C230020E822002018230020682100202DE9F04FADF15C0D05460026D2
:201E6C0004F071FA012805D105F08BF9022801D146F001065A4800F10C010968C1F38151AF
:201E8C00012904D101680120090E88400643554800785648544C0068C0F34600206004F05D
:201EAC0052FA012802D12068401C2060204602684F490024A24205D9FF230B550268641CB0
:201ECC00A242FAD8002701228B4682463C4690461FE055F82400DAF8001000F0FF00814201
:201EEC0007D955F8240000F0FF0002FA00F0064201D0022070E055F8240000F0FF0008FABD
:201F0C0000F0074355F8240000F0FF000BF80040641C55F8240000F0FF00FF28D9D10920FE
:201F2C0001F05EF93348056000212422082301A805F0B4FC8DF81C802F4801AA414605F0CE
:201F4C00A9FC504601680024A1422AD9DFF8B0901694C34608FA04F030421AD127480BFA36
:201F6C0004F1394206D104F0FF0141F4C04101F0A1FC05E01E49095D55F8211001F09AFC9F
:201F8C00E0B24FF0FF3105F077F8169849F8240002E0042049F82400DAF80000641CA0421E
:201FAC00D8D80AA800213022082305F06FFC002410210AAB1348144A009405F063FC1349AE
:201FCC00086820F4F85040F40050086010494046086010490860204617B0BDE8F08FC046DE
:201FEC00A83F00501E230020E422002080120840F82100200423002054220020007FC7677A
:20200C00B01F00203822002011540000003009400C4009400800094038B50C4601460025DC
:20202C00A0F540701D2810D8DFE800F0948E88847E7A766F6864605A56524E0F4A46423EC5
:20204C003A34302C280F24201C18272901DB022583E0084603F0AEFD20807EE0404800785B
:20206C0020707AE03F480078207076E03E480078207072E03D48007820706EE03C480088BE
:20208C0020806AE03B480088208066E03A480088208062E03948016821608088A0805CE09E
:2020AC0037480088208058E036480088208054E035480088208050E03448008820804CE0B6
:2020CC0033480078208048E032480088208044E031480078207040E03048007820703CE036
:2020EC002F48016821608088A08036E02D480078207032E02C48007820702EE02B482C4934
:20210C000278204601F062FE27E02A482A490278204601F05BFE20E02848008820801CE0D8
:20212C0027480078207018E02648016821608088A08012E02448006820600EE0234920469E
:20214C00102201F043FE08E021492046102201F03DFE02E01F4800782070284638BDC0463F
:20216C00D12B0020D02B00206F2B002024230020CE2B0020CC2B0020CA2B0020BA2B0020B1
:20218C00C82B0020C62B0020C42B0020C22B0020C02B0020B82B0020222300201F2300201E
:2021AC00B22B00202023002021230020922B0020932B0020722B0020732B0020702B00205E
:2021CC006E2B0020D4220020F0220020942200208422002023230020F8B504460020C4F223
:2021EC0009000068800880F0BB8004F0A3FA42F22421C4F208010A68002112F0030F18BFE8
:20220C000121D20828BF41F00201002C18BF41F0040142F2DC26C2F2000696F90720821A20
:20222C00052A04DAB2798A4208BFB2886FD041F29C340F28A0F10F02C5F2000424DB02EBCB
:20224C0002121712072F88BF07273D46062D88BF062554F825C00423A64603EB85035EF852
:20226C000330CD08A3EB0C0303F0FF0C24BFC3F30725AC448D0824BFC3F30745AC444D083B
:20228C0005D30CEB136C02E04FF0000C674654F82730CC0803F0FF0524BFC3F3072425446F
:2022AC008C0824BFC3F3074425444C0828BF05EB1365A2EB07221FFA8CF3534380330022D5
:2022CC00082B88BF012243F6B473C5F200031C681B684FF4D07C34275219241703F0FF03AF
:2022EC0007FB14C45C434FF6FF73B4FBF2F2934238BF1A1C802892B2B28005DA10F1800F80
:20230C0003DA6FF07F0000E07F20F071B17142F20800C4F2090001681F2A4FF00000316077
:20232C0008D340F2FF11914206D25208401C9142FBD301E01F22B2800F3A4FF600714FF0E0
:20234C00350E1209C8F2A401C4F2090E40EAC2000143CEF8FB1F4FF0000CCEF8FFCFF8BD43
:20236C0042F2E2224FF6FD50082141F2300EC2F20002C0F2A4001170C4F2090ECEF80000CD
:20238C00F8BD7047F0B5ADF1140D014600204D688C685D4B297B012929D0217C43EA010215
:2023AC004DF82020411C594A607C0243481C4DF821202F7E564937F0010706D1A67C0246C5
:2023CC003343501C4DF8223005E0A27C0346581C0A434DF8232095F85920FF2A20D095F837
:2023EC00593002461943501C4DF8221018E0217C421C41F000414DF82010607C511C184343
:20240C004DF82200A07C4B1C40F000404DF82100404A95F8590019460243481C4DF82120F2
:20242C00FF214DF8201005F15C00694601F0F6FDA86608B9002065E03748297B50F8210056
:20244C00012831D02068B0F1804F01D10A2200E02222A86E217C04F01DFA2068B0F1804F76
:20246C0001D1092200E02122A86E617C04F012FA2068B0F1804F01D10C2200E02422A86E09
:20248C00A17C04F007FA95F85900FF2839D02068B0F1804F01D10B2200E02322A86E95F849
:2024AC00591004F0F7F92CE02068B0F1804F01D1092200E02122A86E217C04F0EBF920688C
:2024CC00B0F1804F01D10A2200E02222A86E617C04F0E0F92068B0F1804F01D10C2200E0C6
:2024EC002422A86EA17C04F0D5F92068B0F1804F01D10B2200E02322A86E95F8591004F079
:20250C00C9F9012005B0F0BD000480A0004000800004C0A000200080B07900002DE9F04112
:20252C0090460E460025082800F29380DFE800F0877767574737270F05C0072E01D01825DC
:20254C0088E046481146324601F040FC82E0304604F086FA071C10D0414C424920688142CB
:20256C0002D0206804F02EFC38464146324601F02DFC27603C4806706CE013256AE0142EAF
:20258C0001DD182566E0394C29461522204602F032F841463246204601F018FC5AE0142E3B
:2025AC0001DD182556E0324C29461522204602F022F841463246204601F008FC4AE0142E62
:2025CC0001DD182546E02B4C29461522204602F012F841463246204601F0F8FB3AE0142E8A
:2025EC0001DD182536E0244C29461522204602F002F841463246204601F0E8FB2AE0142EB1
:20260C0001DD182526E01D4C29461522204601F0F2FF41463246204601F0D8FB1AE0142ED1
:20262C0001DD182516E0164C29461522204601F0E2FF41463246204601F0C8FB0AE0082E04
:20264C0001D0182506E00F481146324601F0BEFB00E002252846BDE8F081C046DA2A0020F5
:20266C00D42A0020C62A0020D82A0020B02A00209A2A0020842A00206E2A0020582A0020F8
:20268C00422A0020392A00202DE9F04FADF1140D00F046FBDFF81C814B4EDFF81CA1DFF862
:2026AC0010B1DFF82091454644464FF0FF3004F019FC38BB00200190694601AA0DF102003B
:2026CC0003F018FCF0B9BDF80200102816D1BBF80000BDF80010884210D1019801884FF6DE
:2026EC00FF728A4208D14088C00B07D3374A0420014603F017FD01E002F00EFE019808B127
:20270C0004F0B0FB98F8000040083CD3287800F0FE00287029489AF800700078074332D0CA
:20272C009AF800707FB92A4800788DF80800294800788DF8090022490A680DF10A0002601E
:20274C008988818002E003208DF80800224800788DF81000214800788DF811009BF8000048
:20276C0002A904F0EDFE70B1082089F8000037684FB13068076837B13046006800680146DE
:20278C0099F8000088472878800806D3207800F0FD002070002001F0E3F840460078C00805
:2027AC0083D3207800F0FB00207002F0FFFF7CE71A2300206C2B00206F2B00206E2B0020CA
:2027CC00B22B002024230020D42B0020F022002021230020202300201F23002022230020AA
:2027EC002DE9F043ADF1540D0F4604466568A66805F044F895F8A410012903D105F03AF874
:20280C00002076E04FF0010985F8A49005F032F81FB90DA804F0A6FD0DAF002068653969AE
:20282C00296179696961397E2976397B29733978297079686960804685F870807869414621
:20284C00092800D3494685F85810707900F0C8FC204602F02FFAF07C85F859002046FFF738
:20286C0091FD50B9707900F0FBFD05F007F885F8A48004F0FFFF40463BE001A8414630223A
:20288C00082305F003F80694CDF800801A4A317905F11C0001AB04F0F5FF287880B901A8FC
:2028AC0041462422082304F0F9FF8DF81C9005F13800414601AA04F0EDFF1048A86001E076
:2028CC00B868A86002F00EFBE866287B012806D1A86E0B4904F070FEA86E00B1846005F16B
:2028EC0090002346074ACDF80080042103F0F2FE204615B0BDE8F083152900007B760000C3
:20290C0051600000E97500002DE9F04707467E68B9680868C0690A681062400847D2F06EBF
:20292C00CA6840680068D0F8040502420AD00A68506A20F002005062F26EC86852681268A6
:20294C00C2F80405F06E8A6840680068D0F80405024258D00A68506A20F001005062F26EBC
:20296C00886851680968C1F80405706D00240474D6F85480706DD0F804A004F07FFF8146D2
:20298C00224D287848B11AF0704F02D1102003F03DFA042003F03AFA2C70484604F06AFF5B
:2029AC007465B06841460246384690472BE00A68506920F001005061756D0DBB0A6850682A
:2029CC0020F0020050600A68506A20F003005062F36EC8688A6810435A681268C2F8040563
:2029EC000868B0F1804F02D14FF4807001E040F20110074909688847384602F05BF902E08B
:202A0C00384600F007F8BDE8F087C04626230020780000102DE9F04707467D68BE6804F091
:202A2C002DFF696D00296BD004F024FF3168486820F0020048603168486A20F00300486202
:202A4C00B268F068E96E104349680968C1F804053168486920F00100486130684FF0010886
:202A6C00C0F820803068B0F1804F02D14FF4807001E040F20110244909688847384602F0A3
:202A8C0019F9686DD0F804A004F0F8FE81461F4C207850B11AF0704F02D1102003F0B6F9B4
:202AAC00042003F0B3F900202070484604F0E2FE686D007C042802D0686D03210174B2685E
:202ACC00F068E96E104349680A6841468140D1623068B0F1804F01D10D4900E00D498A68F2
:202AEC00686D696D00689204A0EB9250401E0860696D00206865A86802463846904701E09D
:202B0C0004F0B8FEBDE8F087780000102623002030040020000500202DE9F843804604F06E
:202B2C003FFD002100B901213A4D2D1F28680028FCD0DFF8DC90012609F10407FC6A2E6097
:202B4C0009B104F033FD3448C4F3072100F10804616004F025FD0146002001B9304601467E
:202B6C0028680028FCD03F682E6009B104F01EFDC7F38441A8F5C060A160B8F5C06F20602E
:202B8C00B4BF6FF001030223626803EB4003032093FBF0F00918104602290FDB1E290BDBE9
:202BAC003F28B9BF521C401C3F22101CE2603029B4BF10391F210DE0E0600BE010F13F0FD5
:202BCC00ACBF401E6FF03F00E06011F1100FACBF10310021216180B24FF47F420823302120
:202BEC000090484602F002FA0096484604214FF40032112302F0FAF9208A04214FF4F802DA
:202C0C0012230090484602F0F1F9BDE8F883C04600A00C4004800C40042F00202DE9F843F3
:202C2C0008AFBD883E88904689461F460024D9F80400D9F804100078497800EB012080B267
:202C4C0042F62321401A49D0401E05282ED9801F15D0263856D1072E0FD8C6F10700A8421A
:202C6C0003D8C6F10700388000E03D8028493A884046891901F0AAF846E0072444E0254989
:202C8C000878B04210DB0878801BA84203DC0878801B388000E03D801F483A88006831189D
:202CAC00404601F093F82FE007242DE0D9F80C0004F08AFB80B2B0420EDB811BA94202DCF7
:202CCC00801B388000E03D80D9F80C003A883118404601F07BF817E0072415E0082E0FD8F2
:202CEC00C6F10800A84203D8C6F10800388000E03D800A493A884046891901F067F803E0C0
:202D0C00072401E03C800A242046BDE8F883C046DA2A0020D82A0020D42A0020392A00203E
:202D2C002DE9FE433A482C4903F05CFD39480024047039484FF6FF71018003F0BBF9274906
:202D4C00087001200094274F0190254822461346394602F0F3F8022622462348009439469B
:202D6C001346019602F0EAF8204825462A463946009504241346019402F0E0F81C48047074
:202D8C00DFF8709010222946484601F034FCDFF8688010222946404601F02DFC174F28462C
:202DAC0038601749087017490870174A072111701649087010214A46304603F097F9032001
:202DCC001021424603F092F920463A46014603F08DF9BDE8FE83C0460C2300202523002027
:202DEC008C21002039720000B0210020D4210020232300208422002094220020F022002015
:202E0C0021230020202300201F230020222300201A23002024230020B82B002038482DE9BB
:202E2C00FC4700680068014620208847354DDFF8D8A04FF002080F2000214FF4C072072314
:202E4C0045F82D0C41F61D5045F8290C5046CDF8008002F0CBF82D4C012644F8046C54F8B2
:202E6C00040C8008FBD3DFF8A890B9F8000045F81D6C01281FD0032045F8390C00272760EF
:202E8C0020688008FCD23946504660220523009102F0ACF8266020688008FCD345F8216C33
:202EAC0045F8397C0820C5F8FF0FC5F8F30F45F8396C464620E00027E760032045F8390CE1
:202ECC00276020688008FCD2CDF80080504639466022052302F08AF8266020688008FCD3A4
:202EEC00202045F8210C45F8397C0824C5F8FF4FC5F8F34F45F8396CC9F80460BDE8FC87C5
:202F0C00A001001039400C4000A00C4038600C40042F00202DE9F043ADF11C0D054604F0BD
:202F2C00A5FC02F031F907464FF00009CDF800904C4604F059FB30F0010002D16FF00400AD
:202F4C0060E017B96FF004005CE0686870B16868B0F1FF3F06D0686801A903F043FB061C73
:202F6C0006D04FE04FF0FF30019001E0CDF80490012604F077FC019901EB000800E0019377
:202F8C007868019904F06AFC00282FD003A803F05DFAE0B9BDF8100002A902F065FE90B98E
:202FAC00AA68BDF80800BDF812101346059A984748B1BDF80800A881BDF81200E8810598DC
:202FCC0028614E4612E00599684603F0C1FA641C0198B0F1FF3FD3D00028D1D004F042FC46
:202FEC00B8EB000302D001989842C8D2009907F1080003F090FC24B1786804F02BFC641ED6
:20300C00FAD1304607B0BDE8F083FEE7F8B504F0C7FA314C256805F00C000C2855D0E808F9
:20302C002ED22E480068EFF3118780F311882C4EB068002104F00AFC7169B269091A8A428F
:20304C0038BF002187F3118826480068884217D22548264A264D036812682868B3FBF2F259
:20306C002018891A04F0EEFB2868201804F0E6FB0120FEF777FA2868201804F0DBFB25E0D1
:20308C00280922D21B48690939BF016821F00101016841F0010102460160D2F898004FF0D0
:2030AC00805440F00300C2F89800D4F8B8018069014620208847D4F8B8010F4C806B216893
:2030CC00804701202060206800E030BF04F06EFA01F0C2FCF8BDC046DC2B0020647C000058
:2030EC00780100205C7C0000607C0000687C00004C7C00008C2108402C200940F8B54668E6
:20310C008568088896F85820904080B22A68B2F1804F01D12B4C00E02B4C8F68DFF8ACC040
:20312C0047B996F858205CF82220A26006F17202626009E096F85820254B53F82220A260CA
:20314C008A688218521E62602A68083222600A68A76843F6F0731201103A1A403A43A26004
:20316C002A68B2F1804F01D11A4C00E01A4C4F683FB996F858005CF82000A060A81D206073
:20318C0009E096F85820154F57F82220A2604A688018401E20602868083060600868A16814
:2031AC000001103803400B43A360F26EE868A96808435168096888622968486A40F0030090
:2031CC004862F8BD3004002000050020E0790000D87900004004002010050020D07900007F
:2031EC002DE9F04105462E480068EFF3118880F311882C4A505D411C0028515549D12A4CEE
:20320C00A900675C07F03F003F280C4401D0FFF7E7FF607800F03F003F2801D0FFF7E0FF88
:20322C00668837F07F0019D1F80911D24FF08054D4F8B801406901463046884704F5DC740A
:20324C002068406B0146304688470128F8D120E0164850F82610012088471AE04FF08054D8
:20326C00D4F8B801C069014630468847D4F8B801406A014630468847D4F8B801C06A014657
:20328C003046884701210A4A0A48116001688908FCD388F31188284603F06EFCBDE8F081E6
:2032AC00647C000068290020E87900008029002028200860282008402DE9F047ADF1500DBF
:2032CC0014460F460646DFF8C080D8F80050D8F8049004F0D3FA2988012903D104F0CAFA24
:2032EC0000204EE04FF0010AA5F800A004F0C2FA1CB9684604F018F86C4606B10FB9002065
:20330C003FE003A804F02EF860680790207A8DF8240099F8070003A903F070FF08B9002094
:20332C002FE068602068A860AE6285F82C700021242208230BA804F0B1FA00240AE0A0005F
:20334C0051460BAA00EB44103018083004F0A2FA641CE4B2A742F2DC51468DF8441005F193
:20336C000C000BAA04F096FA404601F0B9F938B1D9F800104046112201F056FF404600E0A4
:20338C00002014B0BDE8F0872C7C00007CB533484FF48065103005602B4C206840684FF416
:2033AC00407102464FF08040904720684068002102464FF08040904720684068002102462A
:2033CC004FF08040904720684068002102464FF0804090471D4908684009FCD21C480560E6
:2033EC002068C068694602464FF080409047194E9DF8000030702068C068694602464FF0C2
:20340C0080409047144D9DF8000028702068C068694602464FF0804090479DF800002870D1
:20342C009DF8010030702068C068694602464FF0804090479DF80000F11C08709DF801001D
:20344C00B61C30707CBDC046C40100100C00004090200240F41E0020F51E00209020024045
:20346C002D492DE9F0410968EFF3118881F311882A4B195C4A1E01291A5449D12849800095
:20348C0045180E5C6F8836F07F0019D1F00911D24FF08054D4F8B8018069014638468847E2
:2034AC0004F5DC742068406B0146384688470228F8D120E01D4850F82710002088471AE030
:2034CC004FF08054D4F8B801006A014638468847D4F8B801806A014638468847D4F8B801C2
:2034EC00006B01463846884701210E4A0E48116001688908FCD306F03F003F2801D0FFF754
:20350C00AFFF687800F03F003F2801D0FFF7A8FF88F31188BDE8F081647C00006829002052
:20352C00E87900002820086028200840802900202DE9F8430C4606467568B768206808B9E1
:20354C00002051E004F09AF9696D29B104F092F903202074002047E04FF0010884F8108006
:20356C006C6504F087F995F8700030B195F859201E49A86E114302F02DFD3968486840F0A8
:20358C000200486030462146FFF7B8FD3968486940F001004861676804F070F98146144C6E
:2035AC00207801280AD017F0704F02D1102002F0D5FD042002F0D2FD40462070484604F05A
:2035CC0059F9287828B905F13800696804F046F908B1404608E03046FFF71CFA05F1380003
:2035EC00002104F03BF90020BDE8F883000006802623002041F21C3010B5C5F200000468E0
:20360C00B4F1FF3F08BF002403F0CAFE40F2844346F25C01002242F2082E012040F2801C0C
:20362C00C4F26023C4F20C011A60C4F2043E0860C4F2283CCEF80000DCF8000038B140F2D9
:20364C000010C4F2203000682046FCF7C9FF44F20402C4F203021068052142F24803C2F2F7
:20366C000001C4F2030320F003000143116019684FF0000EC0F2391E6FF35B414EEA0100AB
:20368C000421C4F2090118600868C0F30130012809D10A684FF6FF70CFF6FC40104040F4BF
:2036AC0000320A60086010BD7CB5244D286840690146022088472868406B014602208847A7
:2036CC000228F8D02868C06901464FF4807088471B49012008601B4C2068406C16211422F5
:2036EC004FF0FF33064600914FF080401521B0472068C06B0146072088472068C06B01465A
:20370C000A2088471048802202604FF4806101600C3528680D4A00680092102101910C4989
:20372C00002304464FF080400322A04709480838016841F0020101607CBDC046B80100106E
:20374C0028200860B40100109020024080841E00006CDC020C00004029482DE9F84FD0F8A8
:20376C000090EFF3118589F31188264CA068012104F06CF84FF0010A4FF0000806462168C6
:20378C006769A4F81CA02068A4F81E80791A321A8A42A6EB07062DD385F311884546EF1946
:2037AC005046394604F042F8761B0546B542F6D9EFF3118B89F31188E08B012804D1404696
:2037CC00394604F033F80546B5F1FF3F06D0A169AD1BA94238BF0D1CE91901E0A5697919DA
:2037EC00284604F01FF8A4F820A0A4F81C805D46276001E0A4F81C8085F31188BDE8F88F30
:20380C00647C0000780100202DE9F04F09AFADF1140D914682460393D7F808803D79B7F866
:20382C0000B002910027BAF1000F06D0081C04D0181C02D0B8F1000F01D1022034E03C4642
:20384C002DE00AEB840630884FF6FF71814224D0B37813B30398029A594603F091FA0490D3
:20386C00D8B1B07840080AD30095CDF804803088049B4A46012100F03DFE3843C7B2B07838
:20388C0080080AD30095CDF804803088049B4A46022100F02FFE3843C7B2641CE4B204485C
:2038AC000078A042CDDC384605B0BDE8F08FC04625230020F8B50D46EEB2290801D3244922
:2038CC004D40244A52F8261085EA01030340C3F30067214B00EA0504814323400B4300F4C6
:2038EC00E021B1F5E02F01D1590E14D300F4E0210F4310D003F4E027B7F5A02707D0B7F5CB
:20390C00803708D123F4003343F4A02303E023F4803343F4C02342F82630104CC10D04D36F
:20392C00C5F38052A4F1D0018A55000E0FD303F0A5FF290E02D30121B14000E0002122687B
:20394C000123B3409A431143216003F093FFF8BD006000A000100840007F077FD0200240C9
:20396C002DE9FE430646204C1E48DFF88080214F224D2188028891420EDC41460088098880
:20398C00814209DB1A4839880088814204D11A4829880088814220D0052002F00BF9814601
:2039AC0017480088ADF800002088ADF8020041460888ADF804003888ADF806002888ADF8A0
:2039CC000800684603F030FD071C07D10E4806700C48494602F06EFD00E018273846BDE8BC
:2039EC00FE83C046CA2B0020C22B0020C42B0020CC2B0020C62B0020CE2B0020C82B0020AF
:203A0C00B82B0020D4210020D22B0020F8B5264C2068EFF3118680F3118824491D4D0B68EF
:203A2C000420B0FA80F043F00403281A1F3002780B60521C027086F311882068EFF311839C
:203A4C0080F311880A680820B0FA80F042F008022D1AE87F0A60401CE87783F311880E204E
:203A6C00FFF7BEFB0C480068C0F38150032814BF0020012009490A4A088017683FB9094C12
:203A8C00402020600123D36100204860F8BD0120F8BDC0467B290020B43F0050042F00202F
:203AAC0004800C402C500C40647C0000DC2B002038B527484FF4806510300560214C20683D
:203ACC0040684FF4007102464FF08040904720684068002102464FF08040904720684068C1
:203AEC004BF6BB3102464FF080409047206840684CF6CC4102464FF0804090471249086807
:203B0C004009FCD2114805602068C068694602464FF0804090472068C068694602464FF061
:203B2C00804090472068C068694602464FF0804090472068C068694602464FF080409047E8
:203B4C0038BDC046C40100100C0000409020024090200240F0B520480127F84201D001F028
:203B6C009DFC204D204F214EBD4206D203CD0478A4003459401CA047F6E71D48002800D084
:203B8C008047164D164FBD4202D210CDA047FAE7F0BD03251BE0416808300A1C2A400BD1F5
:203BAC001A1C2A40AB4305D0046804300C600431043BF9D1131C05D0047801300C700131ED
:203BCC00013BF9D1021C2A4001D0A84304300368002BE0D17047C046FFFFFFFF000000005B
:203BEC000000000060840000E8840000E083000059C50110FEB508AF3E8884460027FF2493
:203C0C00087A800901D308203EE0087802282CD148684D6840782D7805EB0025A8B242F663
:203C2C000215401B19D04DF2EF65401B01D0801E11D11EB9012B02D00D2700E00B27AFB95B
:203C4C00C868127802701148C968884201D100240CE002240AE00A2708E000960120019085
:203C6C00604601F0EEF9074600E00127FF2C0AD00749086838B10868006820B10868006836
:203C8C000146204688473846FEBDC046E92A0020E42A0020F8B500252E46001D84B214F05F
:203CAC00030002D0241A241DA4B203F029FA1D4A1060102C02DC1C48076801E01B480768C1
:203CCC003888C10BCB030FD126B9844215DD01263D460DE02B883988C918298029888C42F3
:203CEC0006DC2F46388808E080F4004080B20026C71938880028E4D1002777B1001B80B294
:203D0C00042804DA388840F40040388004E0E119088044F400443C803F1D106803F0FAFA48
:203D2C003846F8BDD41A0020FC22002000230020B0B5ADF1280D0446A06840BB0C20FFF70E
:203D4C00A9FF071C02D16FF0030037E0002124220823684603F062FD0023ADF8103005930E
:203D6C000697174861686A4603F054FD3860386838B903F017F8384602F01CFC6FF0030069
:203D8C001CE0E06878602069B860A7600EE0A7680C48006880470546386803F04BFD206924
:203DAC00B860094800680146284688473868616803F048FD386803F041FD00200AB0B0BDE9
:203DCC003B760000242F0020282F0020002A4AD05FEA000C8B071CD1830722D1102A08D392
:203DEC0070B4103A78C978C0103AFBD270BC103238D0042A2CD3082A05D30C2A24BF08C922
:203E0C0008C008C908C008C908C092072AD0920F22E00B780370491C401C521E22D08B07BB
:203E2C00F7D1C30714D18307D8D0121F12D308C903801B0C4380001D121FF8D20AE008C9A6
:203E4C0003701B0A43701B0A83701B0AC370001D121FF4D2121D05D00B780370491C401CCC
:203E6C00521EF9D160467047F8B5064602F048FE42F27025C2F200056F68044602F05AFC83
:203E8C002A69E41B4FF47A716143090C801A48BF404240F6B83289198A4216D3062814DAE7
:203EAC00A968E868814210D82A6872B1401A44F24021C0F20F014143080C00EB914082426A
:203ECC0012D91046C82811D312E043F6AC71C5F200014868400828BF4FF4FA600DD20968F5
:203EEC007D2001F0FF014843C82801D2C820F8BDB0F57A6F88BF4FF47A60F8BD2DE9F04F41
:203F0C00ADF13C0D03F0EAFC8246DFF86C90DFF86C801B4E1B4D002400213C22082368462A
:203F2C0003F074FC59F82400069058F82400089056F82400049055F8240005901248002273
:203F4C00694603F05FFC071C01D101F053FC03F0D7F88346384600F04DFA08B901F04AFCEB
:203F6C00584603F0D7F9641CD6D0504603F09EFC0FB0BDE8F08FC0468C7B0000907B000090
:203F8C00887B0000202F0020757400002DE9B841044603F06BFC00F02DFA054603F0B0F80A
:203FAC0080460022062A2DD21B48910001EBC201475ABFB9A388910001EBC2014352910091
:203FCC00031D01EBC2015D50A3689100083001EBC2014350A28168682061404603F09AF9C3
:203FEC00002016E0A388910001EBC201415A994205D1404603F08EF96FF0020009E0521C30
:20400C00062AD2D301F0F6FB404603F083F96FF00300BDE8B881C046CC2000202DE9F84345
:20402C000D460646DFF874904FF0FF31484603F015FCDFF870801A4A0024012700E0641C22
:20404C005DB115F82400FF2807D01168814203D958F820000028F2D00027C7B1002434604E
:20406C007460B46001279DB115F82400FF280FD048F82060716807FA00F0084370600A49A7
:20408C0055F82420304602F0FBF9641CEBE70026484603F0DFFB3046BDE8F8835422002028
:2040AC00E4220020B01F0020007FC7671FB5224C401E16D0C01E0DD0401E07D0401E39D154
:2040CC0040F215306946FDF7A7FF33E0142002F0A1FA2FE0204603F016FB142002F09AFA0D
:2040EC0028E04FF4417002A9FDF796FF9DF808008DF800009DF809008DF801009DF80A009F
:20410C008DF8020000208DF804008DF803009DF80D108DF807109DF80C108DF806109DF8AC
:20412C000B108DF805106A460821FEF7F7F9204603F0E7FA00901FBD682100202DE9F84360
:20414C0090460C468146D9F80060B8F1000F06D006F10C00B16803F081FB002833D0B16AD4
:20416C00A00000EB44100F58B56AA00000EB44102D180835B8F1000F04D02846B16803F067
:20418C006DFBE0B10024082C0EDA22464846002101F088FD07EBC4114846802201F06CF801
:2041AC00641CE4B2082CF0DBB8F1000F0BD0284603F050FB06F10C0003F04CFB03E006F188
:2041CC000C0003F047FBBDE8F883FEE738B5042002F020FD1A4C022818BF03281FD10320C8
:2041EC000090164800214FF040521C2300F0FEFE17480068EFF3118380F3118815480421DD
:20420C00B1FA81F1401AC17F4A1E0129C27703D1206820F00400206083F3118838BD094DC6
:20422C000A48094A296803686018B2FBF3F103F009FB2868201803F001FB38BD00A00C4039
:20424C00DC2B0020507C0000A0860100687C0000647C00007B29002010B51A481A490078AE
:20426C00086820F0030040F00100086001F046FC00F00CFE0021154C154821600068C068F9
:20428C000146022088471349134A086820F0010008601068D4F8EC1FEFF3118480F3118866
:2042AC000E4B0F481A680421B1FA81F1401A42F00402C17F1A60491CC17784F311884FF046
:2042CC00FF3010BD1E2300200440034040100940A00100108C210840647C0000DC2B0020A8
:2042EC007B2900202DE9F041044603F0BFFA00F081F8071C04D101F07DFA6FF003002FE077
:20430C0002F0FEFE80460022062A22D21548910001EBC201465ACEB991004FF6F87301EBA6
:20432C00C20143521049900000EBC2000B1D1F500025900000EBC20008310D50A2807868F2
:20434C00A060404602F0E6FF284609E0521C062ADDD301F04FFA404602F0DCFF6FF0030060
:20436C00BDE8F081CC200020CC200020F8B505461E480068EFF3118780F311881C4C2068C7
:20438C004FF0805640F080002060D6F88C014068014601208847D6F8B001006A014614202E
:2043AC008847286906F5C675810C14BF010C04212868406A024601209047D6F88401006894
:2043CC0023210246002090472868C069014601208847206820F4C02040F4803020602068F6
:2043EC0040F00100206087F31188F8BD647C0000002009402DE9F041054602F081FE804626
:20440C000026032E2DD21A480446B10001EBC6014758A7B9B10001EBC601441825600020C6
:20442C00A06001460A4603F03DFA6060606808B901F0E0F9404602F06DFF204615E0B100AC
:20444C0001EBC6016158A94208D1404602F062FFB100204601EBC601401806E0761C032E7C
:20446C00D3D3404602F056FF0020BDE8F081C04644210020F8B5044603F0B6F830F0010043
:20448C0002D16FF004002FE003F0F0F9054602F037FE03460022062A21D21448910001EB16
:2044AC00C201475ADFB1A688910001EBC201415A8E4211D10E49900000EBC200091D085827
:2044CC0001688D424FF0000000D10120A060184602F020FF002007E0521C062ADED3184644
:2044EC0002F018FF4FF0FF30F8BDC046CC200020CC2000202DE9F04307AFADF11C0D1D463D
:20450C0091460E4680461B214FF6FF7203AB02F0B9FB059040B300200090BDF80C000190CE
:20452C00FF2002907C68059A0DF1120329464046A047041C12D16889ADF81000700806D352
:20454C0040464A4604A902F03DFD044606E03B7840464A4604A902F0FFFF04462CB104A8F7
:20456C001B2102F07BFD00E01524204607B0BDE8F08341F2A00010B5C5F20000D0F878129A
:20458C0003680A0F03F0FF03802B28BF0023D0F878024BF69A11C0F30F344FF0FF30A1426C
:2045AC0013D02431A14207D04BF62031A1421DD1E2B90A3358B210BD12B1921E02D010BDD9
:2045CC000A2010BD143358B210BD521E0DD0921E04D0121F04D0521E04D010BD142010BDD2
:2045EC00152010BD163358B210BD0A2010BD002213460A46194671B510F0030F0BD0002A2F
:20460C0082BF00F8011BB2F1010210F0030FF6D1002A08BF71BD11F0FF0141EA0121042A1F
:20462C0018D341EA0141082A0FD30E46102A08D30C460D46B2F10F0312F00F0272C0103BAF
:20464C00FCD812F0080F18BF42C012F0040F18BF40F8041B12F0020F18BF20F8021B12F024
:20466C00010F18BF017071BD70B500791A4D1B4CB8B902F045FD297821B902F04BFE6FF082
:20468C00070028E02A461178491EC9B2117029B902F040FE206801F08BFE1BE002F03AFE6A
:2046AC0018E002F02DFD06462878FF2805D1304602F030FE6FF006000DE029460878401CBE
:2046CC00C0B20128087002D1206801F0A5FE304602F020FE002070BD4C2F0020502F0020BF
:2046EC007FB5002446681649307941EA0002601C4DF82420B2791143421C4DF820101148C3
:20470C0071790843511C4DF82200FF204DF821000D486946FFF782FC0C4D286068B10D4838
:20472C000B490068B1FBF0F003F068F871792868012201F06BFC012000E0204600907FBDAA
:20474C000000C08000008080C8220020F8220020A0860100687C0000F8B516468768456819
:20476C004FF0FF340846203826D0401E20D0401E1BD1307815490143A86E00F005FA18BB65
:20478C003868B0F1804F01D10B2200E02322A86E317802F07FF8A86E95F8591000F028F994
:2047AC00307885F8590000240EE06FF001040BE0002485F8704007E0297B0020012900D117
:2047CC00012085F8700000242046F8BD0020008098B504AF144C2478062C01D0142022E0AB
:2047EC0006280FDBB0F5486F0CDA06290ADBB1F5486F07DAB2F5FA7F04DA0A2B02DBB3F549
:20480C00486F01DB18200EE0094C20800948018009480280094803803878FFF7A1F80348DB
:20482C0002F071FF002098BD24230020B0210020C22B0020C42B0020C62B0020C82B0020FD
:20484C0070B50646F4680C3CF088062802DAB088062802DB6FF0020027E002F051FCF28851
:20486C00124D910001EBC2016958D1B102F052FD30792071B0796071307AA071F188880019
:20488C0000EBC1002858F168083001F061FEF188880000EBC1002858406802F0DBFF00203E
:2048AC0003E002F037FD6FF0020070BDD020002010B54AF2000434214FF080521C23C4F2E5
:2048CC000C04204600F0D8FF012826D0204634210122002300F0D0FF002808BF00201DD0B4
:2048EC008020C1F200000068804702F009F942F2702344F24022C2F20003C0F20F029C6859
:20490C001968D860041BA1EB91016243120C8A4224BF1A60012001D21960012010BD2DE938
:20492C00F041054615F8017B90460E461CE0B8F1000F05F101050BD0FF2C09D8022015F876
:20494C00011B401E41EA0424F9D101E0042C02D315F8011B00E0394630462246FFF74BFE29
:20496C00A61901E006F8010B15F8010B8742F9D115F8014B002CE9D115F8010B2C780002D7
:20498C002418D4D1BDE8F081FEB504466068A16808600027142002F081FE0DEB87014860EA
:2049AC000DEB8700406868B90024A74207D90DEB8400406801F0FEFD641CA742F7D86FF00F
:2049CC00030010E07F1CE5D0074D00273E4600960DEB8700054AE95DA368406801F07AFEC3
:2049EC007F1CF4D03046FEBDA67A0000F163000038B50C4628B14268012101FA04F313427C
:204A0C0001D102201EE04268A1408A4342601148002540F824500C490D480A5DFF2A07D063
:204A2C000A4A095D126852F82110FEF743FF03E044F02041FEF73EFF20464FF0FF3102F013
:204A4C001BFB284638BDC046F821002004230020007FC767B01F002045F2280010B5C4F2D5
:204A6C000900046854B343F6AC71C5F200018B6803EA5300C00E21D2486880081ED2002262
:204A8C00C4F209021068096810F0050F4FEA114101F0F00101F5E0710BD1A1420ED2190FD1
:204AAC0038BF40F00100D90E38BF40F00400106010BDA14284BF20F00500106010BDB0B596
:204ACC0004AF0024087A400901D3082029E03F880FB10B2025E0087802281FD14D6848686D
:204AEC006D78007800EB052080B24FF6F175401B01280DD9C01E012802D91C800A240FE05B
:204B0C0012251D80C96810462A46FFF75FF907E001201880C8680078107001E01C80012406
:204B2C002046B0BDF8B5054602F0A0FE044602F05BFD30F0010002D16FF0040021E002F030
:204B4C00DFFA06460022062A16D20E48910001EBC201475A87B19100031D01EBC20159586A
:204B6C0009688C4205D1AA80304602F0D3FB002007E0521C062AE9D3304602F0CBFB6FF0C6
:204B8C000400F8BDCC200020F8B50E460746F5B21FB115480068A84201D802201CE00F4C7E
:204BAC004FF0FF31204602F059FE0D4951F8250068B941F8257079680120A840084378600B
:204BCC0008493246384601F05BFC002500E00125204602F03FFE2846F8BDC04654220020BB
:204BEC00B01F0020007FC767E422002010B50A46014610460024D9B1491E15D0491E0FD0F5
:204C0C00491E08D0491E01D0022414E00B491222FFF7DCF80FE00A491222FFF7D7F80AE080
:204C2C0008490978017006E007490978017002E0064909780170204610BDC046462B002010
:204C4C00222B00200F2B0020FC2A0020E92A002038B541F23405C4F2090528680004040C47
:204C6C0026D001F067FD42F2DC22C2F2000292F90710814205DD10F1800FB8BF6FF07F00C9
:204C8C00D0719188A14212D81368D5F8D40FC01A801C1F2888BF1F20641A4008C4404FF664
:204CAC00FF700919884238BF011C918038BD948038BDFEE7F0B5ADF1140D456884682168FF
:204CCC00486820F0020048602168486920F00F00486120680321016202A802F08BFD0C48D5
:204CEC00016809682869084F00906869074E01902A7E20682B7B0C4657F8222056F8233045
:204D0C000399A04705B0F0BDB8790000B0790000C401001038B502F0B1FD154C0546A01D7D
:204D2C00008840B9FEF772FE0446102000F032F9012C0DD017E0FFF7BBFD60B10020E080AC
:204D4C00FEF764FE0446102000F024F9012C0AD1FEF764F807E030340521204602F072FDD8
:204D6C00204602F06BFD284602F084FD38BDC046DC2B0020F8B5054605F128020CCA084628
:204D8C00002102F06BFA05F1300292E8C00036184FEA164447EB01073804044301F0B0FEF0
:204DAC00211AB1F1004F08D8011B091DC90F05D1001DA04288BF041C00E0041D04480068D0
:204DCC00426A214601209047383585E8C000F8BD8C01001098B5044602F048FD00F0D4F945
:204DEC00074602F001FC30F0010002D16FF004001DE017B96FF0040019E0606868B1606842
:204E0C00B0F1FF3F05D06068694601F0EBFB30B10DE04FF0FF30009001E000200090786847
:204E2C00009902F01BFD002100B90121084698BD1549096821280ADC212819D00C380FD0D1
:204E4C000D380FD0001F0FD0C01E0FD01AE0253810D0401F10D0401E10D0401E10D011E084
:204E6C00086870474868704788687047C86870470869704748697047C8697047086A704769
:204E8C00486A704700207047F001002038B500244AF2000521460122C4F20C050B4600942D
:204EAC00284600F0A3F82146022201232846009100F09CF834214FF080521C23284600F0B8
:204ECC00DBFC20B18020C1F200000068804701F017FE42F27024C2F20004606001F02AFC3F
:204EEC00206138BDF0B5ADF1340D124C666825687079FEF775F902F0C1FC0746287898B9BA
:204F0C0001A800213022082302F0C0FC069400200090094A317901AB281D02F0B3FC012096
:204F2C002870204602F0B6F8384602F0A3FC20460DB0F0BD047C0000597600002DE9F0474C
:204F4C0008AFADF1280D8A4680461D46104C20684FF47A79B9FBF0F002FB00F600212422BA
:204F6C000823684602F05AFC786806902068B9FBF0F0454305953878ADF8100051463246DC
:204F8C006B46404602F032FC40460AB0BDE8F087687C0000F8B507461248134C0668301904
:204FAC0002F098FC0025A419B8B9204602F08EFC0646B068074205D0F2683169384690475F
:204FCC00C0B230B9304602F07DFC0646B442F0D103E003480068804702252846F8BDC046D9
:204FEC00587C0000547C0000DC2B00202DE9F041984600EB41001646B8F1100F06AF00F5BB
:20500C00007404D3A8F1100800F50174360C3D8802F0C6FA05FA08F545EA064500210028A6
:20502C0008BF012148F20002C4F20C0210680028FCD025600120106009B102F0B7FABDE8F7
:20504C00F0812DE9F04106AF0C46804600253E88EEB9022B19D15178107800EB012086B281
:20506C00B88836EA00000ED1E0680168404602F0E3F986420CD0E06801683246404601F09C
:20508C00A3FD054604E0802502E00D2500E00B252846BDE8F08170B504464AF200060D46E4
:2050AC006008ADF1080DC4F20C0607D3A8B20021009001220B463046FFF798FFA00807D323
:2050CC00A8B200900021022201233046FFF78EFFE00807D3A8B2009000210C2202233046E2
:2050EC00FFF784FF02B070BD2DE9F0411C4615460E468046182001F08BFC071C16D0042150
:20510C00002202F06BF95020414601F03FFB38727E72BD72FC60069838610798786101F024
:20512C008BFC044A394600F069FC00E00420BDE8F081C046CD76000038B50024032C0FD236
:20514C000F4B21461A46A00000EBC400195002F10805A00000EBC4002950641C032CF2D32E
:20516C000024062C08D207492246A00000EBC4000A52641C062CF8D302F01CF838BDC04612
:20518C0044210020CC200020F8B5064601F0B8FF02460025032D18D20E480446A90001EB15
:2051AC00C50147588FB1A90001EBC5016158B14208D1104602F0AEF8A900204601EBC501AF
:2051CC00401806E06D1C032DE8D3104602F0A2F80020F8BD4421002070B5026892F82C0090
:2051EC00884220D9936A880000EB41101B185D68936A880000EB41101E58946A880000EB7F
:20520C004110241808342046916802F027FB50B10020854204D901463154401C8542FBD8BF
:20522C00204602F017FB70BD2DE9F843904689460646376875680F4C29792068002200F076
:20524C00E5FEA9792068002200F0E0FE42463046494601F08AFB796889680968C9684909FC
:20526C00F9D220B1A9792068012200F0CFFEBDE8F883C046F82200202DE9F84390468946A6
:20528C000646376875680F4C29792068012200F0BDFEA9792068002200F0B8FE4246304677
:2052AC00494601F062FB796889680968C9684909F9D220B1A9792068012200F0A7FEBDE89C
:2052CC00F883C046F822002038B510490868E0B10F4A1078401C10700C4608680968226846
:2052EC0040880979083200F0E9FD0546162D0CD0042D0AD0214607480A6801785088002238
:20530C0001F0D2FC284601F085F938BD842C0020882C00201C23002010B50178A23902D002
:20532C002E391AD01BE04179132918D108300D4C0088012809D10A480078022805D12046EA
:20534C0002F0E1F901F00CFA09E0052000F032FC0146204601F0AEF801E0FBF787FF10BDE8
:20536C00D22B0020D421002038B585684468E06E01F010FBA06E01F0D5FD2968486820F0FD
:20538C000200486004F11C0002F02CFA6879FEF767F8207818B904F1380002F01FFA04F163
:2053AC00900001F085FE02F069FA002184F8A41002F060FA38BD70471FB50E480E49FEF7C9
:2053CC002DFE0B490860684601F0AEFF0B4801216A46FDF771FF0A4C206038B1206800219D
:2053EC00FFF7FAFE2068002102F00CF800901FBDF4220020A4220020442F0020C42E0020E7
:20540C00402F002008B50D48006890FAA0F0B0FA80F10B4B012000FA01F21A60094A1060A1
:20542C0009480068884207D9084850F8210018B102680AB1C9B2904708BDC046E0200240F7
:20544C00E020026080E200E0E4220020B01F00202DE9F84308AF984614460D4681461420F9
:20546C0001F0D6FA061C13D03A78032101F0B6FFA6F808903474F5605020414601F086F944
:20548C00707401F0D9FA044A314600F0B7FA00E00420BDE8F883C04675710000F8B50646E9
:2054AC000F4D104F7388002417E0A00000EBC400321851689068D26852B9AF420BD00A7832
:2054CC0055F822200346491C08461946904701E0FEF77CFC7388641CA4B2A342E5DCF8BD85
:2054EC00E0830000EC83000098B504462420FEF7D1FB071C02D16FF0030019E020B10021EF
:20550C002422082302F0CAF92079012801D101203876A0683946002202F0C4F9E0603846E0
:20552C0001F048F8E06808B1002001E06FF0030098BDD0B504463C20FEF7ACFB071C02D1B8
:20554C006FF0030019E020B100213C22082302F05DF9207AB86160893862E0683861606842
:20556C003946002202F04EF90646384601F022F80EB1002001E06FF00300D0BD2DE9F0417A
:20558C001C4615460E468046102001F041FA071C12D00421072201F021FF5020414601F080
:2055AC00F5F838727E72BD72FC6001F045FA044A394600F023FA00E00420BDE8F081C046A3
:2055CC00F7760000B0B5054601F09AFD02460024062C13D20C48A10001EBC401475A6FB130
:2055EC00A10001EBC401415AA94204D1104601F091FEA0B206E0641C062CECD3104601F02C
:20560C0089FEFF20B0BDC046CC20002070B5164605460F48103005600A4C206840680246C3
:20562C004FF080409047084908684009FCD2074805602068C068314602464FF080409047B7
:20564C0070BDC046C40100100C000040902002409020024010B504460C480078800001F0BA
:20566C0027FA0B49086078B109684FF6FF7000F0BFFA600806D30748074B1121102200F014
:20568C007DF902E0002000E0132010BD252300201423002058280020D07B000070B505468C
:2056AC00686810F07F4F02D06FF0020012E001F027FD06460948084C007828B1206800F04C
:2056CC0077FE686800F0A8FE68682060304601F021FE002070BDC046502F00204C2F002080
:2056EC00C0B5ADF1140D1F4616460822ADF800201922ADF802200190029109480068014694
:20570C006846884716B1BDF80C10318017B1BDF80E1039800499089A116005B0C0BDC0467B
:20572C00302F002010B501460B4850F821200B48104008430B4A503A1368012202FA01F49A
:20574C001C4201D040F48000054B1B688A401A4201D040F4000010BD00100840007F077F32
:20576C00D0200240D02002400C4885460C4885446F4607208743BD460A486F4607600A4814
:20578C00002803D07946491D8E460047FEF7E2F901F058FD02F01EF8FEE7C046E83F002072
:2057AC0000040000642F00202576000008B50B480078401E04D0401E0ED100F0D1FF0BE0E9
:2057CC000122074807490092084B074A008809881B881288FEF7FCFF08BDC046D22B002097
:2057EC00C22B0020C42B0020C62B0020C82B002000BF704708B5FFF7FBFFFEE738B505461D
:20580C00094800688047094C201D006810B1014628468847206800B1804705480068804741
:20582C00FFF7E8FF38BDC046542F00205C2F0020582F002038B50F4C2C34A4F12C010868B5
:20584C0020F00100086054F82C1C4FF0805541F0800144F82C1C01202060D5F88C11226850
:20586C0049688847D5F8B001006A014614208847206838BD0020094070B51E460C1815467C
:20588C00102E02D3103EA41C2D0C01F089FE0021002808BF0121084648F20001C4F20C01AC
:2058AC000A68002AFCD0248801220A6008B101F07DFE25403541A8B270BD38B51C4615460A
:2058CC000B461021022200F0B9FFB0B9002000906946284601F0B1F978B90099487848B912
:2058EC000846C1798C4205D10146049889682246FEF76CFA009801F0A5FA38BD2DE9F04175
:20590C001C4615460E468046142001F081F8071C0FD00121142201F00BFE87F80880FE604D
:20592C003D82BC7401F088F8034A394600F066F800E00420BDE8F08113750000F8B5144638
:20594C000D4606460E2001F063F8071C11D004210A2201F043FD5020314600F017FF387205
:20596C007D813C7301F068F8034A394600F046F800E00420F8BDC046F17600002DE9F041B6
:20598C001C4615460E468046142001F041F8071C0FD00421022201F0CBFDC7F80880BE813C
:2059AC00BD733C6101F048F8034A394600F026F800E00420BDE8F0810575000070B50E46F6
:2059CC000C4D5100A5F10802116028600A4C03202060022001F065FE20684008FCD22E60DD
:2059EC0005202060022001F05CFE20684008FCD270BDC04608280040042800401CB51446B1
:205A0C000B46D978012902D199880B4A11801021022200F013FF30B90020009069462046CF
:205A2C0001F00BF910B101F0FAFA04E00098447801F008FA20461CBD342F0020012810B5E4
:205A4C0016D1012001F0E6F8012813D000F0A6FA0948012100F13004C180204601F0EAFEAF
:205A6C000521204601F0EEFE204601F0E7FE01E0FFF70CFA002010BDDC2B00200C4810B56B
:205A8C000068EFF3118480F311880B48C088012809D10848342101220023FFF7EDFE00287D
:205AAC0008BF002000D0012084F3118810BDC046647C000000A00C40DC2B0020B0B504467D
:205ACC000D48026840680F4600211200401841EB020104F128020CCAFBF7D8FF05460B46EA
:205AEC0047B104F1280003C82A4601F0B7FB303484E803002846B0BD0820094010B54FF084
:205B0C008054D4F8900181680120884741F21401C4F209010868800902D208688009FCD3D2
:205B2C0004F5D074206801684020884720688168402088471128F9D110BD2DE9F041984667
:205B4C0015460C460646102000F062FF071C10D02A46042101F042FC5020314600F016FE0D
:205B6C003872FC6000F068FF39464246FFF746FF00E00420BDE8F08100B5ADF13C0D0021A3
:205B8C003C220823684601F041FE074807904FF402700890032006900448054900236A4639
:205BAC0001F014FE0FB000BDCC1800202C200020952600003EB505460020ADF804000A20FE
:205BCC0000F026FF041C0DD00421312201F006FC258100F031FF01A90223044A0091214661
:205BEC00FFF76BFEBDF804003EBDC046D976000038B54FF6FF74844206D000F095FF88B133
:205C0C000480002181700DE0074A0020034606E021F8204001EB8005AB70401CC0B21578F5
:205C2C008542F5DC38BDC0462523002038B50B4D286800F66C21002008802968E8220A8038
:205C4C002968E83140F684120A80054C2160FEF721F8044908602868206038BD2C2F002023
:205C6C00FC2200200023002098B506280DDA0C4B820002EBC0029F5A3FB1820002EBC00293
:205C8C009A5A4FF6F874944202D14FF0FF3005E0820002EBC002985A0880002098BDC04631
:205CAC00CC20002038B50C460C4B1D8869460D809B788B700B78D2180A709DF8023004F0A5
:205CCC000F02D2188DF802209DF8012002EB24128DF801200322FFF7A7FA38BD017C000069
:205CEC0000B5ADF13C0D00213C220823684601F08DFD074807904FF42F7008900120069012
:205D0C000448054900236A4601F060FD0FB000BD101600207C2000208D1C000010B5044686
:205D2C006078162806D10B4960880978082200F0BBFF30B1217904F1080001F08FF90120C7
:205D4C0005E0012000F066FC01480460002010BD842C00201C23002008B54FF480604FF4F3
:205D6C00C0616A46FFF752FC4FF480604FF4A1716A46FFF74BFC4FF480604FF4C0616A4666
:205D8C00FFF744FC4FF480604FF4A0616A46FFF73DFC08BD2DE9F0411C4615460E46804698
:205DAC000E2000F035FE071C0FD0812038700120F870A7F804803E817D81BC8100F03CFE6B
:205DCC00069A3946FFF71AFE00E00420BDE8F0812DE9F84308AF984614460D4681461020E6
:205DEC0000F016FE061C0ED03A78414601F0A0FBA6F808907581F46000F01EFE7A683146E9
:205E0C00FFF7FCFD00E00420BDE8F8830C4910B50968EFF3118481F311880A49B0FA80F2E5
:205E2C00891ACA7F531E012ACB7703D1034A11688143116084F3118810BDC046DC2B0020B3
:205E4C00647C00007B2900201CB50446A06868B1A068B0F1FF3F05D0A068694600F0C2FB36
:205E6C0030B10DE04FF0FF30009001E0002000906068009901F0F2FC002100B9012108462F
:205E8C001CBD0000F8B514460D460646102000F0BFFD071C0DD00421362201F09FFA3E81D5
:205EAC007D81FC6000F0C8FD034A3946FFF7A6FD00E00420F8BDC046C1760000F8B5144665
:205ECC000D460646102000F0A3FD071C0DD00221152201F02DFB3E81BD72FC6000F0ACFD01
:205EEC00034A3946FFF78AFD00E00420F8BDC046217500007FB514460D4606460820ADF8FE
:205F0C0000000920ADF8020007480068014668468847BDF804103180BDF8061029800299A1
:205F2C00216000907FBDC046302F00207FB514460D4606460820ADF800000920ADF80200B9
:205F4C0007480068014668468847BDF804103180BDF8061029800299216000907FBDC046DE
:205F6C00302F002038B504460B4802680023D9075508D0072943801A99414FF47A72FBF76A
:205F8C0085FD002901D1B0F1004F01D36FF000406060002038BDC046687C000038B54AF22D
:205FAC00000501240021C4F20C0522460B4600942846FFF71BF82346002102222846009350
:205FCC00FFF714F800F09CFD42F27821C2F20001086038BD08B50A460B49096802F0FF0385
:205FEC00994206D9074B02F0FF0153F82110884201D0022004E04FF4E02100F041FA0020EB
:20600C0008BDC046B01F0020E422002080B51746094A12688A4204D9084A52F821209042DD
:20602C0001D0022007E03846002200B101220448D0384254002080BDE4220020B01F0020AA
:20604C00D0200240F8B50746BC68656895F8590001F0C8F8064695F859103846FFF7BAFF11
:20606C00054901EA0600814205D1686D042101742046FCF7CFFCF8BD0000068008B5A0B160
:20608C00401E0DD0401E06D0801E12D104206946FEF7ACFD0DE002206946FEF7A7FD08E054
:2060AC0001206946FEF7A2FD03E000206946FEF79DFD08BD1CB500208DF80400082000F0D8
:2060CC00A7FC041C0CD00121122201F031FA00F0B3FC01A90123044A00912146FFF7EDFB12
:2060EC009DF804001CBDC0462F750000F8B514460D460646102000F08BFC071C0DD0052105
:20610C00012201F06BF93E727D72FC6000F094FC034A3946FFF772FC00E00420F8BDC04691
:20612C0003770000F8B514460D460646102000F06FFC071C0DD00521022201F04FF93E7275
:20614C007D72FC6000F078FC034A3946FFF756FC00E00420F8BDC046097700000C4938B5EF
:20616C000968EFF3118581F31188074B07491A68B0FA80F4091B1043CA7F1860521CCA77F4
:20618C0085F3118838BDC046DC2B00207B290020647C000010B50C4600F0B2FC211AB1F18A
:2061AC00004F08D8011B091DC90F05D1001DA04288BF041C00E0041D03480068406A214689
:2061CC0002460120904710BD8C01001010B5ADF1300D044600212C220823684601F016FAD6
:2061EC00E02008906068A16800236A4601F0EAFA08B1002003E0FFF7FDFA6FF003000CB0BB
:20620C0010BD10B5ADF1300D044600212C220823684601F0FBF9E0680890A16860680023BA
:20622C006A4601F0CFFA08B1002003E0FFF7E2FA6FF003000CB010BD2DE9F04198461646EE
:20624C000C4605460C2000F0E3FB071C0CD03246042101F0C3F83D81BC7200F0EDFB394610
:20626C004246FFF7CBFB00E00420BDE8F0812DE9F041984616460C460546102000F0C8FBB3
:20628C00071C0CD03246042101F0A8F8BD60FC6000F0D2FB39464246FFF7B0FB00E00420E3
:2062AC00BDE8F08110B511780020802914D1518840F27F648C420FD191883F24B4EBA12F39
:2062CC000AD19188C1F3C211042905D1918801F07F018B4200D1012010BD10B511780020B0
:2062EC00802914D1518840F27F648C420FD191883F24B4EBA12F0AD19188C1F3C2110329D6
:20630C0005D1918801F07F018B4200D1012010BD10B511780020802914D1518840F27F649B
:20632C008C420FD191883F24B4EBA12F0AD19188C1F3C211052905D1918801F07F018B42E2
:20634C0000D1012010BD41F21830C5F2000001684BF69A10C1F30F31884208BF00200BD06C
:20636C002430884208BF012006D04BF6203088420CBF02204FF0FF307047000070B50D4650
:20638C0006460C2000F044FB041C0CD00421302201F024F82681658100F04EFB034A214650
:2063AC00FFF72CFB00E0042070BDC046E576000038B50546012410E0C0F11F0004FA00F116
:2063CC004D40052804DB401FC0B2FDF749F804E004FA00F0C0B2FFF719FDB5FA85F0202856
:2063EC00EAD138BD10B50C46401E0ED0401E0AD0801E06D0001F02D0FFF7FCF906E00520FB
:20640C0004E0002002E0042000E0022021680A4621469047002010BD38B50546012410E013
:20642C00C0F11F0004FA00F14D40052804DB401FC0B2FCF7D5FE04E004FA00F0C0B2FFF727
:20644C008DFEB5FA85F02028EAD138BD10B5044601F00CFAFEF798FE10B96FF004000EE0DE
:20646C00083000F043FAA060A1680C39A06828B10879A0804879E080002000E0022010BDCB
:20648C0010B50A4B1B6802F0FF04A34206D9084B02F0FF0453F82430984201D0022004E002
:2064AC0008461146FDF706FA002010BDE4220020B01F002038B50D46044601F028F910B1D8
:2064CC00204601F0B7F9074800684FF47A71B1FBF0F005FB00F1204601F0B4F9204601F0EC
:2064EC00ADF938BD687C0000F8B515460E4604460C2000F08DFA071C0BD031462A4601F0F2
:20650C0017F8BC6000F098FA034A3946FFF776FA00E00420F8BDC0468F650000F8B51546D5
:20652C000E4607460A2000F073FA041C0FD031462A4600F0FDFF5020394600F027F92072C4
:20654C0000F07AFA10210222234600F077F9F8BD38B50C46054600F0D3FD002144F80C1C29
:20656C00296809B92C6009E0296801E051F80C1C51F80C2C002AF9D141F80C4C00F0CAFEA6
:20658C0038BD80B511780020802912D1518840F27F638B420DD19188032902D0918804299B
:2065AC0007D1977937F0100702D09179112900D1012080BD10B5044600F0A2FD074908600E
:2065CC00241F20886FF3DF30208005480268944200D20460086800F09DFE10BDD41A00201A
:2065EC00FC22002010B50C464FF47A71A1FB0001074A12680023FBF749FA002901D1B0F1B0
:20660C00004F02D36FF0020001E02060002010BD687C000010B5094C216871B130B12046AB
:20662C00016800680979083000F018FD206800F029FC002020600249087010BD842C002021
:20664C00882C002070B515460C4606460C2000F043FA011C04D1284600F0D4FB002008E0BC
:20666C008D60304601F0AAF814B1204601F0F2F8012070BD0EB50849084A05480091084B2D
:20668C0004490192007809780022FEF72DFD0EBD1A2300202323002094220020F02200203E
:2066AC008422002010B501F009F901F017F9032001F080F806481030006830B1034C204637
:2066CC0000F07BFE204600F075FE10BDCF730000A401002098B517460A46011C14BF002F8F
:2066EC00032009D0064C8A600448CF6022680B61801801F05BF8002098BDC046DC2B002067
:20670C00547C0000094838B50068EFF3118580F31188074CA41D2088012803D1FEF7C8F805
:20672C000020208085F3118838BDC046647C0000DC2B002045F2280041F20C31C4F20900EC
:20674C00C5F20001826891F900100068A0F540704143091142F31000401A8030001270478E
