:20000000E83F00206159000001CA011001CA011001CA011001CA011001CA011001CA0110B7
:1C00200001CA011001CA011001CA011001CA011001CA011001CA01103FCA011082
:20003C003EB50B4611460024002837D0401E2DD0401E23D0401E0AD0401E37D1122B01D05E
:20005C00182434E01B48122203F048FF2FE0122B01D018242BE0184D1222284603F03EFFC8
:20007C0011200090FF200190144802901748184B00682246294603F0F1FC18E0012B01D02F
:20009C00182414E008780E49087010E0012B01D018240CE008780B49087008E0012B01D07F
:2000BC00182404E008780849087000E0022420463EBDC0466E2B00204A2B0020D14D0000E2
:2000DC00372B0020242B0020112B00203823002080280020024B0021082205F03CBEC046E7
:0400FC0097780000F1
:200100003C000000000000000000000034010000000000000000000001000000000000006D
:1C01200000000000000000000000000001000000000000000800000000000000BA
:20013C00340000000000000000000000680100000000000000000000010000000000000005
:14015C00010000000000000000000000080000000000000086
:2001700030000000000000000000000098010000040000000000000001000000FFFFFFFFA5
:10019000FF00000001000000080000000000000057
:2001A0002C0000000000000000000000C4010000040000000000000001000000FFFFFFFF4D
:0C01C000FFFFFFFF08000000000000002F
:2001CC0034050000E401000099A1011095A70110A5C2011009B2011045B80110000000000B
:0801EC00000000002E000000DD
:2001F400280000000000000000000000140200000000000000000000FFFFFFFF00000000B1
:080214000800000000000000DA
:20021C00300500003002000069C201106DC101101FC2011095BA011000000000000000008E
:04023C00300000008E
:20024000300500005402000075C20110A9B601109DBF011049B601100000000000000000DE
:040260003100000069
:200264002400000000000000000000008002000000000000000000000000000008000000CC
:040284000000000076
:20028800240000000000000000000000A40200000000000000000000000000000800000084
:0402A8000000000052
:2002AC00240000000000000000000000C8020000000000000100000000000000080000003B
:0402CC00000000002E
:2002D00000000000BC29002004000000000000000000000020000000700100003000000044
:2002F0001C020000D02900200400000000000000000000000C00000030040000180000005B
:2003100040020000DC290020040000000000000000000000240000004804000018000000DA
:2003300000000000E429002004000000000000000000000010000000A00100002C0000009F
:20035000CC010000EC290020040000000000000000000000200000006402000024000000DD
:20037000FFFFFFFF0C2A002004000000000000000000000028000000880200002400000041
:20039000FFFFFFFF1C2A0020040000000000000000000000580000003C010000340000001E
:2003B000FFFFFFFF242A002004000000000000000000000010000000600400001800000033
:2003D000FFFFFFFF2C2A00200400000000000000000000001C000000AC02000024000000A9
:2003F000FFFFFFFF482A002004000000000000000000000038000000F40100002800000006
:20041000FFFFFFFF502A002004000000000000000000000054000000000100003C000000A1
:1804300018000000000000000000000040040000080000000000000050
:1804480018000000000000000000000058040000080000000000000020
:18046000180000000000000000000000700400000800000000000000F0
:0804780001000000307E0000CD
:0404800006F044BE80
:040484000100000073
:0404880000000C0064
:04048C0000000D005F
:040490003200000036
:040494000200000062
:040498004C2E0020C6
:04049C00000200005A
:0404A0000000000058
:0404A40001CA011078
:0404A8000000000050
:0404AC00000000004C
:0404B0000800000040
:0404B4000000200024
:0404B800142E0020DE
:0404BC00010000003B
:0404C000F4290020FB
:0404C400080000002C
:0404C8000000000030
:0404CC00000000002C
:0404D0000000000028
:0404D4000000000024
:0404D8000000000020
:0404DC00010000001B
:0404E000AC2E00201E
:0404E400060000000E
:0404E800010000000F
:0404EC00402D00207F
:0404F0000000000008
:0404F4000000000004
:0404F80000020000FE
:0404FC0000000000FC
:02050000704742
:020502002A00CD
:020504000100F4
:020506002500CE
:020508003000C1
:02050A003100BE
:02050C002E00BF
:02050E000100EA
:0105100001E9
:0805140003000000E47D00007B
:08051C000000000000000000D7
:0405240000000100D2
:0405280000000300CC
:04052C0087C401106F
:04053000380500008A
:040534003805000086
:0405380000000000BF
:04053C00800000003B
:040540008000000037
:0405440000000000B3
:04054800F429002072
:04054C00DB7500005B
:040550002000000087
:04055400A07D000086
:04055800947C00008F
:04055C000DC30110BA
:040560003748000018
:04056400074D00003F
:0405680099C801101D
:04056C009BC8011017
:040570000000000087
:040574006B7C00009C
:04057800107C0000F3
:04057C00287C0000D7
:04058000F87B000004
:0205840008006D
:0205860009006A
:02058800010070
:02058A0000006F
:01058C00016D
:040590000000000067
:040594000000000063
:04059800000000005F
:04059C00000000005B
:0405A000697400007A
:0405A400F55C000002
:0405A800616D000081
:0405AC002D5A0000C4
:0405B000594F00009F
:0405B40021630000BF
:0405B8003D450000BD
:0405BC004D7100007D
:0405C0007150000076
:0405C40011C8011049
:0405C80021C8011035
:0405CC000800000023
:0405D0002400000003
:0405D400180000000B
:0405D80028000000F7
:0405DC0020000000FB
:0405E0003C000000DB
:0405E4000C00000007
:0405E80034000000DB
:2005EC002DE9F04F064640F29421012541F22D00ADF10C0DC4F22231C4F2090040F81D5CB1
:20060C0008680028FCD043F6AC7E46F2440AC020C5F2000EC4F20C0AF4464AF8440CDEF86E
:20062C000890DCF8041046F25620C4F20800890807D271460A686FF00F0E4EEA12410170B7
:20064C0001E07221017041F28C38C5F2000858F8D41CC1F304611629A8BF203962469268F9
:20066C0012175118491C11F10A0FB8BF6FF0090100232C4625EAD96201F01F01C4F2203383
:20068C0041F4F851018324EA996E1A60002EC3F808E073D058F83C1CC1F38360C1F38F2700
:2006AC005FEA994167D249F3072CBCF1000F29D549F307214A42B1F1FF3F4FEA620215DA4D
:2006CC007F0805D1400806BF281C2F1C4FF6FF777F080CF1010C05D1400806BF281C2F1C57
:2006EC004FF6FF77521E0CF1010CE9D1490809D37F0805D1400806BF281C2F1C4FF6FF771E
:20070C000CF1010CBCF1000F35DDBCF1020F4FEA6C020CF001031DDB4FF6FF717F0047F02D
:20072C000107B94207D2400040F001000F2892BF2F1C0F200F1C7F0047F00107B94207D2A1
:20074C00400040F001000F2892BF2F1C0F200F1C521EE3D1002B0EDD7F004FF6FF7147F04A
:20076C000107B94207D2400040F001000F2892BF2F1C0F200F1C47EA004703E040F6FF77EC
:20078C00C0F20F0706F0E8FF39460022002808BF2A1C48F20007C4F20C0738680028FCD034
:2007AC004AF20800C4F20C0001613D600AB106F0D9FF002E08BFD82109D058F83C1C58F8E0
:2007CC003C0CC1F3870100F0030041EA002188B2009040F2FF3200232C214AF20000C4F2BB
:2007EC000C0004F01DFD002E1ABF58F8100CC0F30D0B40F2FF3B06F0AFFF0021002808BF75
:20080C00291C38680028FCD04AF20800C4F20C00C0F814B03D6009B106F0A4FF002E04BF90
:20082C004FF0000BC6F6880B0DD058F818BC0BF07C420BF47C010BF47C4011430BF0FC0BCC
:20084C0008434BEA000B06F087FF0021002808BF291C38680028FCD04AF20800C4F20C0096
:20086C00C0F80CB03D6009B106F07CFF002E04BF47F28A6BC0F2680B0DD058F81CBC0BF4E8
:20088C007C020BF47C410BF4707011430BF03F0B08434BEA000B06F05FFF0021002808BFAB
:2008AC00291C38680028FCD04AF20800C4F20C00C0F808B03D6009B106F054FF002E3AD005
:2008CC0058F8140C43F6AC71C5F200014B68C0F303525B08C0F3034117D243F6AC73C5F281
:2008EC0000031B6843F3032C12EB0C0203D4102A02DB0F2200E0002243F30333C91803D4B1
:20090C00102902DB0F2100E0002141EA021100F47F4200F0F00E0B0400F00F0B222E42EA0E
:20092C0003024EEA02014BEA010B08D300F0804040EA0B0B03E043F6277BC0F2710B06F07D
:20094C000BFF0021002808BF291C38680028FCD04AF20800C4F20C00C0F804B03D6009B1CF
:20096C0006F000FF222E26BFD8F80000C0F30070281C4AF2400BC4F20C0B222E4FEA4000ED
:20098C0040F020008BF8090126BFD8F80000C0F34070281C202E40F010008BF809013CBFFC
:2009AC00002001900CD3D8F80C00C20C02F44072800D00F01C0100F003001143084301908C
:2009CC0006F0CAFE019A0021002808BF291C38680028FCD04AF20800C4F20C0002623D60C2
:2009EC0009B106F0BFFE202E26BFD8F80C00C0F301500020222E4FEA400040F060008BF86F
:200A0C000C0126BFD8F80000C0F3C06100216FF07F00222E40EAC1008BF8010126BFD8F8C0
:200A2C000000C0F3455100214FF60040202ECFF6FF7040EA8100ABF89C0105D248F200003D
:200A4C00C4F23F0001900BE0D8F80C000003820D00F47C11920500F47040114308430190BF
:200A6C0006F07AFE019A0021002808BF291C38680028FCD04AF20800C4F20C0002603D6073
:200A8C0009B106F06FFE44204FF0880E8BF8C500002E8BF8C7E01ABFD8F80000C0F3C141F6
:200AAC00002140F68406C9F3815041F03001C4F28C3600288BF8C81041D0401E07D0401EBB
:200ACC0037D00420022104F000FC00214BE0284606F08DF904460420214604F0F6FB0420B8
:200AEC0006F085F98442FAD143F6AC70C5F2000050F8040C0104090C4AF8081CC0F3074EF9
:200B0C004AF804ECCAF8005031680029FCD0002240F2B411CAF80020C1F2000109680B6864
:200B2C00000E4FF06022072198474FF48060CBF800000420032104F0C8FB002113E00420B6
:200B4C00294604F0C2FB43F2BD704AF8080C4FF086094AF8049CCAF8005030680028FCD063
:200B6C000021CAF8001058F8200C4BF2700342F22C0E41F22D0C47F6180240F29449C4F254
:200B8C000C0300F03F00C4F2090E8BF8CB0FC4F2090C1A80DEF800004AF8441CC4F26029C5
:200BAC004CF81D1C03B0C9F80050BDE8F08F70472DE9F04114460D460027A04BDFF884C2EA
:200BCC009F4ADFF88482A0F201311A2900F27181DFE811F065015B0153016F011B011301DA
:200BEC00F900DF00D400C900BF00B400A9006F016F019E009100840079006C006F016F0100
:200C0C006F016F0155006F011B00012D35D11946087801282FD01146087822780A7088B1A9
:200C2C000E787EB960460178032906D00178072903D00078052840F0468140460078FFF7BE
:200C4C0051FA40E1002840F03E810E78002E00F03A8160460178012909D00178042906D008
:200C6C000178062903D00078052840F02C81012006F0B8FB27E1122725E1182723E120787F
:200C8C00012D11D101280FD1904806F0D1FC48B9384602F097FF071C40F015818C4806F0DA
:200CAC0014FE10E116270EE118270CE12088022D07D10A2805DBB0F5486F02DC854908807C
:200CCC0001E11827FFE02088022D05D1B0F5FA7F02DA81490880F6E01827F4E02088022D4F
:200CEC0007D1062805DBB0F5486F02DC7B490880E9E01827E7E02088022D07D1062805DBF0
:200D0C00B0F5486F02DC76490880DCE01827DAE0012D06D12078022803DA20787149087023
:200D2C00D1E01827CFE0012D06D12078042803DA20786D490870C6E01827C4E0012D06D10E
:200D4C002078082803DA207868490870BBE01827B9E0062D01D01827B5E06548216801603F
:200D6C00A1888180AFE0012D06D12078042803DA207860490870A6E01827A4E0012D06D101
:200D8C002078042803DC20785B4908709BE0182799E0202D01DB182795E0584E39461F227A
:200DAC00304603F009FD21462A46304603F09EF853490D70404600780A783346394604F05D
:200DCC00F7FC07467FE0202D01DB18277BE04D4E39461F22304603F0EFFC21462A463046A9
:200DEC0003F084F848490D70404600780A783346012104F0DDFC074665E0022D01D01827B1
:200E0C0061E02088414908805DE0012D33D11146087801282DD01946087822780A70A8B113
:200E2C000E789EB960460178022902D00078052849D140460078FFF755F944E00E2C00202E
:200E4C000F2C0020482300203E23002000283AD10E78002E37D060460178012905D001789A
:200E6C00042902D0007805282DD1012006F0BAFA29E0122727E0182725E0042D01D018272B
:200E8C0021E02068224908601DE0102D01D0182719E020482146102203F028F813E0102D63
:200EAC0001D018270FE01C482146102203F01EF809E0272801DA022D01D0022703E0218859
:200ECC0005F01CFB07463846BDE8F081E8210020C4210020682C0020662C0020642C0020D5
:200EEC00622C0020602C00204623002043230020522C00204423002045230020332C002051
:200F0C00322C0020132C0020122C0020102C002014230020BC220020AC2200202DE9F84F8E
:200F2C00C64DC74ED5F8EF1FCC4C7368D5F8F30F8843C5F8F30F002BC5F8FF1F00F01181CE
:200F4C007788012B00F0D680DFF8FCB2BF4FDFF800A3DFF80093DFF80083022B72D0032BA6
:200F6C0040F06A810024B06855F8312C74600028A2F5C062B8BF404211460029B8BF494234
:200F8C0088422EDA111C54BF02206FF00100B26900EB4100032190FBF1F18918B161F368CB
:200FAC00706998420BD0B1F11002B8BF524230691038B8BF40428242B8BF88B209DB98B25B
:200FCC000090A04830214FF47F42082304F028F9308A00909B4804214FF4F802122304F040
:200FEC001FF95846046001688908FCD20460012644600E203E6002F0BDFB50460468EFF37A
:20100C00118584F3118849460820B0FA80F00A1AD07F431E0128D37704D14246106820F021
:20102C000800106085F31188EFF3118384F311880420B0FA80F0091AC87F421E0128CA7723
:20104C0054D14EE055F8310CB0F5C06F17D00327776001F097FD45F8397C0027276020683E
:20106C008008FCD27748394660220523009104F0D7F80126266020688008FCD364E00021E1
:20108C0071605846016002689208FCD20160012641600E203E6002F06DFB50460468EFF36F
:2010AC00118584F3118849460820B0FA80F00A1AD07F431E0128D37704D14246106820F081
:2010CC000800106085F31188EFF3118384F311880420B0FA80F0091AC87F421E0128CA7783
:2010EC0004D14246106820F00400106083F31188BDE8F88F55F8312C02214BF2F520716060
:20110C005043000A37B95649096821F07F414018400801E0002171806060000CA0600126CF
:20112C00E660032745F8397C0027276020688008FCD24448394660220523009104F070F813
:20114C00266020688008FCD345F8216C45F8397C0820C5F8FF0FC5F8F30F45F8396CBDE829
:20116C00F88F40480068006801462020884741F61D574FF002080F2045F82D0C00214FF431
:20118C00C072072345F8297C2E48CDF8008004F047F8012744F8047C54F8040C8008FBD381
:2011AC00308845F81D7C012821D0032045F8390C4FF00009C4F8009020688008FCD22148FB
:2011CC00494660220523009104F02AF8276020688008FCD345F8217C45F8399C0820C5F8EC
:2011EC00FF0FC5F8F30F45F8397C474623E04FF00009C4F80C90032045F8390CC4F8009003
:20120C0020688008FCD20F48CDF8008049466022052304F005F8276020688008FCD3202078
:20122C0045F8210C45F8399C0824C5F8FF4FC5F8F34F45F8397C7760BDE8F88F39400C4036
:20124C004C2F002000A00C4034600C4004800C40287E0000A32900207C2C002038600C400D
:20126C0010200940A00100102DE9F84F05460024DFF8AC82DFF8C092A878002800F006817F
:20128C00DFF898A2DFF8ACE2801E00F0D580DFF89CC2401E012840F29780984F984EDFF840
:2012AC006492DFF874B2801E54D0401E25D0401E03D0083800F00C810FE18F4806F005FB6F
:2012CC006878002840F00981E88838802889308068894D4628808C4806F0AAF9002840F0C6
:2012EC00FC808A490868002800F0F780086803682A88318838889847EFE0A88805F012FCAD
:20130C0083482146062203F057FA3C803480484604808049A87908707B4806F0D6FA7648F8
:20132C0006F0D3FA01244FF6FF71584601805146087858B9A879082801D1052100E004216F
:20134C0040460170204606F04DF8C6E0032140460170C2E06B784BBB281D6D4902680A60CE
:20136C0080888880698958460180404606210170E8893880288A3080698A484601806949E3
:20138C00E878087068480078012808D11F2004F027FD4FF47A7141435B4805F065F9E878E0
:2013AC006A89291D042304F09FFB0BE06878312803D008214046017004E061460C7040468F
:2013CC0004210170012488E06F78002F2FD1A87803281ED05648078847B961460878012812
:2013EC0002D051460C700BE00C7009E061460A7851460F78174303D00188704605F034F9D7
:20140C0040460178072901D1062100E00421017010E042461078062801D1072005E061466F
:20142C00087808B1022000E00320107002E0082140460170012450E06F7807BBEF78AFB9F3
:20144C004046017802291AD00178072917D00078062803D150460078012810D1704606F09E
:20146C00E7F860B9012005F0BDFF08E033494846334B0A780078214604F09AF96870687886
:20148C0058B3082140460170012426E06878C8B92C4A0220102104F005FF2B4A03201021FF
:2014AC0004F000FFED1C294829680160A98881800121404601704846254A264B0078127806
:2014CC0004F076F910B1082140460170012404E028468088052106F015F9012C0AD11E49A4
:2014EC00086838B10868006820B108680168404600788847BDE8F88FE82100206A2C00202D
:20150C006C2C00206E2C0020C4210020782C00205A2C0020712C0020582C00200F2C002022
:20152C0048230020702C0020602C00200E2C0020102C0020A02100203E230020322C002016
:20154C00332C0020AC220020BC220020FC220020122C0020132C0020742C00202DE9F04F04
:20156C005FEA0009ADF11C0D00F05581AC480068EFF3118280F31188DFF8C8B29BF80400BB
:20158C00012818BF012003D1022100208BF8041082F31188012800F03C8106F081FA039088
:2015AC00A948046804EB0B0006F076FA4FF00008464637460BEB0401CDF810800191B0B9C7
:2015CC000C46084606F064FA0546A868400808D3E8682969024601209047C0B2002840F0A1
:2015EC001081284606F050FA0546AC42EDD1002F40F00B8106F044FA029005978948076024
:20160C00012005F0F4FB012804D1404604F02CFB4FF00108844F38688068014630468847EB
:20162C00864819300090D0F8FF0FB9F1000F00F08C80864C0A34E57905B10126A5790DB145
:20164C0046F0020665790DB146F00406DFF8DC9165782DB1B86A006B49460246C88D9047D5
:20166C0025782DB1B86A006B49460246488D90476F4901200860B86A8069014646F02000EA
:20168C0088476C4DDBF80010286840F001002860480813D2684805F0F6FF8246BAF1040F35
:2016AC00F8D0D5F8180220F00300C5F81802B86C4068024660480321904701E00120049038
:2016CC00059800F0BFFDB86A0099806BD1F8FF1F8047049858B9B86C40680246564851466B
:2016EC009047D5F8180240F00300C5F8180238688068014601208847504801688909FCD3F5
:20170C00B8F1010F02D1012004F0AEFAB86A4069014630468847B86A406B014630468847C4
:20172C000128F8D166782EB1B86AC06A49460246C88D904726782EB1B86AC06A49460246FF
:20174C00488D90473A49012008603A480168032221F00101016001988BF8042006F09CF976
:20176C000028059818BF01200125C0B9019C204606F08EF90646B068C00806D3F06831698A
:20178C00024604209047C0B230B9304606F07CF90646B442EFD102E02948006880472148D1
:2017AC00009F0560D7F8FF0F05F0DCFF019806F073F9059FC8B9019C204606F069F90646A5
:2017CC00B068000906D3F0683169024608209047C0B230B9304606F057F90646B442EFD1B1
:2017EC0003E0174800688047022702988BF8045006F042F903F018FB039806F039F938465A
:20180C000AE00F4800688047022701208BF80400F2E7062000E0022007B0BDE8F08FC04699
:20182C00287E00000C40094090010010AC7B0000282008600C200840004003401410094085
:20184C001C7E00007C2C0020187E0000902900202DE9FE4F8148824902F00AFD7E4C206071
:20186C008049206805F084FF7F49206804F072FC00F014F9042001F03DFE072001F03AFE44
:20188C00042004F02BFD082004F028FD022004F025FD05F08BFFC0B27449087002F0C6FFA6
:2018AC00802042F2FF416A4604F032F8802041F68F516A4604F02CF8802042F608516A46DA
:2018CC0004F026F880204FF43C516A4604F020F8802042F210716A4604F01AF8802042F6DB
:2018EC0010616A4604F014F880204FF462516A4604F00EF85F4C04F1080000685C4DC36C93
:20190C001B211C222846984720685B4903680022284698475949086840F010000860012013
:20192C00C5F8040829223E20002104F05DF907200121292204F058F90A200021292204F05B
:20194C0053F907200021292204F04EF93D200321292204F049F94A4805F0B5FFDFF834A178
:20196C004A4C494EDFF830914FF0000B574655464FF0FF3005F0A4FB00283BD1CDF808B061
:20198C000DF1060001A902AA04F020FE68BB4FF00108BDF80600102814D13A48BDF8041041
:2019AC00008888420ED1029801884FF6FF728A4205D14088000905D303F0A0FD02E005F05F
:2019CC00B7FD8046029880B1B8F1000F0DD005F037FB0AE0306805F0E1FB5FEA000804D082
:2019EC0005F091FC404605F0DBFA306806F054F80028EFD02078C008BAD3207800F0FB00D8
:201A0C0020701F4805F05FFF21480368E3B1DAF800300BB901F044FE50460068012801D116
:201A2C0001F08AFC386802280BD101F0F5FC01F021FB4FF0FF3038600C4A12210320FEF7E7
:201A4C00F7FA2868401C2860D9F8000000288FD0C9F800B08CE7C0462C230020E42200203E
:201A6C00D82B002081040000170005808422002000200040AC010010006CDC022028004061
:201A8C007C21002040230020102300203C230020F42B0020F82B0020D42B00202DE9F0433E
:201AAC00ADF1640D7C4D7D49284604F08FFF7D4805F0F0FD7A4908600024042603227A4885
:201ACC007A4900942346019603F052FB03F08EFD1F20062104F012FD01278DF80870A14670
:201AEC00ADF80A908DF80C700620ADF80E008046ADF810800520ADF812004FF47A70ADF818
:201B0C00140040F20530394602AAFFF751F840F2063002210DF10A02FFF74AF8644A4FF416
:201B2C0042701921FFF744F8624A40F207300721FFF73EF84FF44470394603AAFFF738F8C9
:201B4C0040F2113002210DF10E02FFF731F840F21230022104AAFFF72BF840F213300221C0
:201B6C000DF11202FFF724F84FF44570022105AAFFF71EF8504A2046152105F0EBFBA0248A
:201B8C004046214604F0BAFC0720214604F0B6FC0820214604F0B2FC0920214604F0AEFC0F
:201BAC00CDF818908DF81C708DF81D708DF81E90B8468DF81F804FF48160314606AA04F0F5
:201BCC0059FA4FF48060394607AA04F053FA40F2024039460DF11D0204F04CFA40F2034053
:201BEC0039460DF11E0204F045FA40F2064039460DF11F0204F03EFA4FF0FF3005F015FE51
:201C0C004FF0FF3005F029FE05F04CFC4FF0FF3003F016FE13A84946122202F0CDFD022719
:201C2C008DF8207003248DF8214024490EA8122202F05CF9224909A8122202F057F913AA89
:201C4C0048464146FEF7F4F9404608AA0146FEF7EFF9384641460DF12102FEF7E9F90EAA70
:201C6C0020461221FEF7E4F93046122109AAFEF7DFF9144805F066FC134805F0DFF813488F
:201C8C0004F064FF287805F0C8FD287805F0C9FD19B0BDE8F083C04640230020342300204B
:201CAC0010230020D82200207C210020D9730000942B0020AD2B0020B42B0020E37C00006D
:201CCC00F57C0000082C0020FC2B0020002C00202DE9F0411C4615468C4208BF854282BFFF
:201CEC0000230022E5E0002C08BF002D0AD100290EBF00286FF000006FF0000100F0E1F82D
:201D0C00BDE8F0815FF000085FF0000E002C08BF8D429CBF2C1C0025070C47EA01470E0CBD
:201D2C00B44208BFBD429EBF5FEA044444EA15445FEA0545070A47EA01670E0AB44208BF54
:201D4C00BD429EBF5FEA042444EA15645FEA0525470847EAC1774E08B44208BFBD4200F2D4
:201D6C009380870847EA81778E08B44208BFBD427CD8C70847EA4177CE08B44208BFBD429C
:201D8C0066D8070947EA01770E09B44208BFBD4250D8470947EAC1674E09B44208BFBD4289
:201DAC003AD8870947EA81678E09B44208BFBD4224D8C70947EA4167CE09B44208BFBD42D1
:201DCC000DD8E60146EA5566EF01B14208BFB84201D3C01BB14158EB08085EEB0E0EA6019C
:201DEC0046EA95664FEA8517B14208BFB84201D3C01BB14158EB08084EEB0E0E660146EA43
:201E0C00D5666F01B14208BFB84201D3C01BB14158EB08084EEB0E0E260146EA15762F01FC
:201E2C00B14208BFB84201D3C01BB14158EB08085EEB0E0EE60046EA5576EF00B14208BFFF
:201E4C00B84201D3C01BB14158EB08084EEB0E0EA60046EA9576AF00B14208BFB84201D31B
:201E6C00C01BB14158EB08084EEB0E0E660046EAD5766F00B14208BFB84201D3C01BB1413C
:201E8C0058EB08085EEB0E0EA14208BFA84201D3401BA14158EB08085EEB0E0EA34208BF75
:201EAC00AA423EBF2D0A45EA0465240A89D3734642461E4617460B46024631463846BDE89F
:201ECC00F081704738B50C4601460025A0F540701D2810D8DFE800F0948E88847E7A766FEF
:201EEC006864605A56524E0F4A46423E3A34302C280F24201C18272901DB022583E00846BE
:201F0C0003F06EFF20807EE04048007820707AE03F480078207076E03E480078207072E0A8
:201F2C003D48007820706EE03C48008820806AE03B480088208066E03A480088208062E0E7
:201F4C003948016821608088A0805CE037480088208058E036480088208054E035480088E8
:201F6C00208050E03448008820804CE033480078208048E032480088208044E03148007843
:201F8C00207040E03048007820703CE02F48016821608088A08036E02D480078207032E0BB
:201FAC002C48007820702EE02B4A2C491278204601F09CFF27E02A4A2A491278204601F056
:201FCC0095FF20E02848008820801CE027480078207018E02648016821608088A08012E0EC
:201FEC002448006820600EE023492046102201F07DFF08E021492046102201F077FF02E0EF
:20200C001F4800782070284638BDC046712C0020702C00200F2C0020482300206E2C0020C3
:20202C006C2C00206A2C00205A2C0020682C0020662C0020642C0020622C0020602C002010
:20204C00582C00204623002043230020522C00204423002045230020322C0020332C002017
:20206C00122C0020132C0020102C00200E2C0020FC22002014230020BC220020AC22002060
:20208C00472300202DE9F04FADF15C0D0546002604F019FA012805D105F04FF9022801D19E
:2020AC0046F00106594800F10C010968C1F38151012904D10068010E0120884006435448FD
:2020CC0000785548534F0068C0F34600386004F0FAF9012802D13868401C386038460268E5
:2020EC004E490024A24205D9FF230B550268641CA242FAD800270122824689463C469046FC
:20210C001FE055F82400DAF8001000F0FF00814207D955F8240000F0FF0002FA00F006423B
:20212C0001D002206EE055F8240000F0FF0008FA00F0074355F8240000F0FF0009F8004015
:20214C00641C55F8240000F0FF00FF28D9D1092001F0D0F93248056000212422082301A8C5
:20216C0005F082FC8DF81C802E48414601AA05F077FC504601680024A14228D9DFF8AC9095
:20218C00A34608FA04F0304219D127484146A140394206D104F0FF0141F4C04101F0BCFCFC
:2021AC0005E01E49095D55F8211001F0B5FCE0B24FF0FF3105F03CF849F824B002E00420FC
:2021CC0049F82400DAF80000641CA042D9D80AA800213022082305F03FFC002410210AAB1F
:2021EC001348144A009405F033FC1349086820F4F85040F4005008601049404608601049AE
:20220C000860204617B0BDE8F08FC046A83F0050422300200C230020801208400C220020C0
:20222C002823002068220020007FC767C41F00204C22002045560000003009400C40094096
:20224C0008000940F8B504460020C4F209000068800880F0BB8004F061FB42F22421C4F231
:20226C0008010A68002112F0030F18BF0121D20828BF41F00201002C18BF41F0040142F247
:20228C000436C2F2000696F90720821A052A04DAB2798A4208BFB2886FD041F29C340F286E
:2022AC00A0F10F02C5F2000424DB02EB02121712072F88BF07273D46062D88BF062554F86D
:2022CC0025C00423A64603EB85035EF80330CD08A3EB0C0303F0FF0C24BFC3F30725AC44D6
:2022EC008D0824BFC3F30745AC444D0805D30CEB136C02E04FF0000C674654F82730CC0874
:20230C0003F0FF0524BFC3F3072425448C0824BFC3F3074425444C0828BF05EB1365A2EB7C
:20232C0007221FFA8CF3534380330022082B88BF012243F6B473C5F200031C681B684FF464
:20234C00D07C34275219241703F0FF0307FB14C45C434FF6FF73B4FBF2F2934238BF1A1C6A
:20236C00802892B2B28005DA10F1800F03DA6FF07F0000E07F20F071B17142F20800C4F215
:20238C00090001681F2A4FF00000316008D340F2FF11914206D25208401C9142FBD301E0A6
:2023AC001F22B2800F3A4FF600714FF0350E1209C8F2A401C4F2090E40EAC2000143CEF8E0
:2023CC00FB1F4FF0000CCEF8FFCFF8BD42F20A324FF6FD50082141F2300EC2F20002C0F23F
:2023EC00A4001170C4F2090ECEF80000F8BD7047B0B5ADF1180D014600204D688C682A7BD0
:20240C005D49012A2BD0227C41EA02034DF82030421C5A4B607C0343501C4DF822302F7EAC
:20242C00574A37F0010706D1A37C19430346581C4DF8231006E0A37C114619430346581CC4
:20244C004DF8231095F85910FF2920D095F8593011460246501C19434DF8221017E0227C61
:20246C00431C42F000424DF82020607C0143581C4DF82310A27C411C42F000424DF8202078
:20248C00404A95F859000243481C4DF82120FF214DF8201005F15C00694601F0E9FEA86615
:2024AC0008B9002065E0297B374850F82100012831D02068B0F1804F01D10A2200E022221A
:2024CC00A86E217C04F0AEFA2068B0F1804F01D1092200E02122A86E617C04F0A3FA20687D
:2024EC00B0F1804F01D10C2200E02422A86EA17C04F098FA95F85900FF2839D02068B0F142
:20250C00804F01D10B2200E02322A86E95F8591004F088FA2CE02068B0F1804F01D1092239
:20252C0000E02122A86E217C04F07CFA2068B0F1804F01D10A2200E02222A86E617C04F04E
:20254C0071FA2068B0F1804F01D10C2200E02422A86EA17C04F066FA2068B0F1804F01D195
:20256C000B2200E02322A86E95F8591004F05AFA012006B0B0BDC046000480A0004000807B
:20258C000004C0A000200080747B00002DE9F04190460E460025082800F29380DFE800F0BA
:2025AC00877767574737270F05C0072E01D0182588E046481146324601F098FC82E0304675
:2025CC0004F014FB071C10D0414C42492068814202D0206804F0D4FC38464146324601F0FA
:2025EC0085FC27603C4806706CE013256AE0142E01DD182566E0394C29461522204602F0D9
:20260C00DBF841463246204601F070FC5AE0142E01DD182556E0324C29461522204602F0D0
:20262C00CBF841463246204601F060FC4AE0142E01DD182546E02B4C29461522204602F0F7
:20264C00BBF841463246204601F050FC3AE0142E01DD182536E0244C29461522204602F01E
:20266C00ABF841463246204601F040FC2AE0142E01DD182526E01D4C29461522204602F045
:20268C009BF841463246204601F030FC1AE0142E01DD182516E0164C29461522204602F06C
:2026AC008BF841463246204601F020FC0AE0082E01D0182506E00F481146324601F016FCDC
:2026CC0000E002252846BDE8F081C046022B0020FC2A0020EE2A0020002B0020D82A002025
:2026EC00C22A0020AC2A0020962A0020802A00206A2A0020612A00202DE9F04FADF1140DAF
:20270C0000F044FBDFF81C81DFF81CA1DFF810B1DFF82091484E454644464FF0FF3004F049
:20272C00BFFC38BB00200190694601AA0DF1020003F032FFF0B9BDF80200102816D1BBF87E
:20274C000000BDF80010884210D1019801884FF6FF728A4208D14088C00B07D3374A04206E
:20276C00014603F09FFD01E002F0F0FE019808B104F056FC98F8000040083BD3287800F0A8
:20278C00FE00287029489AF800700078074331D09AF800707FB92A4800788DF8080029483F
:2027AC0000788DF8090022490A680DF10A0002608988818002E003208DF80800224800783A
:2027CC008DF81000214800788DF811009BF8000002A904F091FF68B1082089F800003768BE
:2027EC0047B1306807682FB130460068016899F8000088472878800806D3207800F0FD00C1
:20280C002070002001F0DEF940460078C00884D3207800F0FB00207003F0BEF87DE7C046F1
:20282C003E2300200C2C00200F2C00200E2C0020522C002048230020742C002014230020BE
:20284C00452300204423002043230020462300202DE9F043ADF1540D0F4604466568A6688C
:20286C0005F0F2F895F8A410012903D105F0E8F8002076E04FF0010985F8A49005F0E0F81C
:20288C001FB90DA804F04AFE0DAF002068653969296179696961397E2976397B297339788B
:2028AC00297079686960804685F8708001467869092800D3494685F85810707900F01AFE05
:2028CC00204602F0A1FBF07C85F859002046FFF78FFD50B9707900F04DFF05F0B5F885F881
:2028EC00A48005F0ADF840463BE001A841463022082305F0B1F80694CDF800801A4A317935
:20290C0005F11C0001AB05F0A3F8287880B901A841462422082305F0A7F88DF81C9005F128
:20292C003800414601AA05F09BF81048A86001E0B868A86002F0F0FBE866287B012806D162
:20294C00A86E0B4904F014FFA86E00B18460094ACDF8008005F190002346042103F0AEFF03
:20296C00204615B0BDE8F083852900003F780000D1610000A17700002DE9F04707467E68D9
:20298C00B9680868C0690A681062400846D2F06ECA6840680068D0F8040502420AD00A682C
:2029AC00506A20F002005062F26EC86852681268C2F80405F06E8A6840680068D0F80405D5
:2029CC00024257D00A68506A20F001005062F26E886851680968C1F80405706D00240474DC
:2029EC00D6F85480706DD0F804A005F02DF88146214D287848B11AF0704F02D1102003F039
:202A0C00FDFA042003F0FAFA2C70484605F018F87465B2683846414690472BE00A68506974
:202A2C0020F001005061756D0DBB0A68506820F0020050600A68506A20F0030050628B684E
:202A4C00C868F26E184352681268C2F804050868B0F1804F02D14FF4807001E040F201107E
:202A6C00064909688847384602F0CEFA02E0384600F006F8BDE8F0874A2300207800001004
:202A8C002DE9F04707467D68BE6804F0DDFF696D00296AD004F0D4FF3168486820F002005A
:202AAC0048603168486A20F003004862B268F068E96E104349680968C1F804053168486910
:202ACC0020F00100486130684FF00108C0F820803068B0F1804F02D14FF4807001E040F2D7
:202AEC000110244909688847384602F08DFA686DD0F804A004F0A8FF81461F4C207850B16E
:202B0C001AF0704F02D1102003F078FA042003F075FA00202070484604F092FF686D007CDE
:202B2C00042802D0686D03210174E96EB268F068104349680A6841468140D1623068B0F12A
:202B4C00804F01D10D4800E00D4880688104686D0068A0EB9150696D401E0860696D002096
:202B6C006865AA683846904701E004F069FFBDE8F087C046780000104A230020300400204D
:202B8C00000500202DE9F843804604F0E5FD002100B901213A4D2D1F28680028FCD0DFF8ED
:202BAC00DC90012609F10407FC6A2E6009B104F0D9FD3448C4F3072100F10804616004F0EC
:202BCC00CBFD0146002001B93046014628680028FCD03F682E6009B104F0C4FDC7F384419C
:202BEC00A8F5C060A160B8F5C06F2060B4BF6FF001030223626803EB4003032093FBF0F028
:202C0C000918104602290FDB1E290BDB3F28B9BF521C401C3F22101CE2603029B4BF103962
:202C2C001F210DE0E0600BE010F13F0FACBF401E6FF03F00E06011F1100FACBF103100214C
:202C4C00216180B24FF47F42082330210090484602F0E6FA0096484604214FF40032112352
:202C6C0002F0DEFA208A04214FF4F80212230090484602F0D5FABDE8F883C04600A00C404C
:202C8C0004800C404C2F00202DE9F84308AFBE883F881D46904689460024D9F804004178EE
:202CAC00D9F80400007800EB012080B242F62321401A49D0401E05282ED9801F15D026381A
:202CCC0056D1072F0FD8C7F10700B04203D8C7F10700288000E02E8028492A884046C91998
:202CEC0001F004F946E0072444E025490878B84210DB0878C01BB04203DC0878C01B288063
:202D0C0000E02E801F482A8800683918404601F0EDF82FE007242DE0D9F80C0004F030FCA7
:202D2C0080B2B8420EDBC11BB14202DCC01B288000E02E80D9F80C002A883918404601F05D
:202D4C00D5F817E0072415E0082F0FD8C7F10800B04203D8C7F10800288000E02E800A498F
:202D6C002A884046C91901F0C1F803E0072401E02C800A242046BDE8F883C046022B0020E1
:202D8C00002B0020FC2A0020612A00202DE9FE433A482C4903F004FE39480024047039480E
:202DAC004FF6FF71018003F045FA2749087001200094274F0190254822461346394602F05C
:202DCC00D7F9022622462348009439461346019602F0CEF9204825462A46394600950424E1
:202DEC001346019402F0C4F91C480470DFF8709010222946484601F0DFFCDFF8688010228F
:202E0C002946404601F0D8FC174F284638601749087017490870174A0721117016490870EF
:202E2C0010214A46304603F021FA03201021424603F01CFA20463A46014603F017FABDE886
:202E4C00FE83C0463023002049230020A0210020F1730000C4210020E821002047230020E3
:202E6C00AC220020BC22002014230020452300204423002043230020462300203E23002064
:202E8C0048230020582C002038482DE9FC4700680068014620208847354DDFF8D8A04FF0E8
:202EAC0002080F2000214FF4C072072345F82D0C41F61D5045F8290C5046CDF8008002F0B4
:202ECC00AFF92D4C012644F8046C54F8040C8008FBD3DFF8A890B9F8000045F81D6C012891
:202EEC001FD0032045F8390C0027276020688008FCD23946504660220523009102F090F9DB
:202F0C00266020688008FCD345F8216C45F8397C0820C5F8FF0FC5F8F30F45F8396C464664
:202F2C0020E00027E760032045F8390C276020688008FCD2CDF80080504639466022052309
:202F4C0002F06EF9266020688008FCD3202045F8210C45F8397C0824C5F8FF4FC5F8F34FD5
:202F6C0045F8396CC9F80460BDE8FC87A001001039400C4000A00C4038600C404C2F002035
:202F8C002DE9F043ADF11C0D054604F055FD02F015FA07464FF00009CDF800904C4604F013
:202FAC00FFFB30F0010002D16FF004005FE017B96FF004005BE0686870B16868B0F1FF3F67
:202FCC0006D0686801A903F001FC061C06D04EE04FF0FF30019001E0CDF80490012604F02B
:202FEC0027FD019901EB000800E001937868019904F01AFD00282ED003A803F001FBD8B9C9
:20300C00BDF8100002A902F045FF88B9AB68BDF80800BDF81210059A984748B1BDF80800E2
:20302C00A881BDF81200E881059828614E4612E00599684603F07FFB641C0198B0F1FF3FCE
:20304C00D4D00028D2D004F0F3FCB8EB000302D001989842C9D2009907F1080003F023FDE1
:20306C0024B1786804F0DCFC641EFAD1304607B0BDE8F0832DE9F84F0027602F65DADFF808
:20308C00D0A0344DDFF8D0B0D146564654463448802110300160DAF8000042684FF472415F
:2030AC004FF080409047DAF80000C26869464FF0804090479DF80080D9F8000042680021FC
:2030CC004FF080409047D9F80000C26869464FF080409047BDF8010048EA002825F81780CA
:2030EC009DF800803068426800214FF0804090473068C26869464FF080409047BDF8010079
:20310C0048EA0028A81C20F817809DF800802068426800214FF080409047DBF8000040097C
:20312C00FBD20E49802008602068C26869464FF080409047BDF8010048EA00282846001D85
:20314C0020F81780FF1C602FA1DBBDE8F88FC046C4010010281E00200C00004090200240E3
:20316C0090200240F8B504F0F7FA314C256805F00C000C2855D0E8082ED22E480068EFF3AB
:20318C00118780F311882C4EB068002104F044FC7169B269091A8A4238BF002187F3118889
:2031AC0026480068884217D22548264A264D036812682868B3FBF2F22018891A04F028FC30
:2031CC002868201804F020FC0120FEF7C7F92868201804F015FC25E0280922D21B48690969
:2031EC0039BF016821F00101016841F0010102460160D2F898004FF0805440F00300C2F8A8
:20320C009800D4F8B8018069014620208847D4F8B8010F4C806B2168804701202060206802
:20322C0000E030BF04F09EFA01F034FDF8BDC0467C2C0020287E000078010020207E0000A5
:20324C00247E00002C7E0000107E00008C2108402C200940F8B546688568088896F8582020
:20326C00904080B22A68B2F1804F01D12B4C00E02B4C8F68DFF8ACC047B996F858205CF808
:20328C002220A26006F17202626009E096F85820254B53F82220A2608A688218521E626005
:2032AC002A68083222600A68A7681301103B43F6F07213403B43A3602B68B3F1804F01D18D
:2032CC001A4C00E01A4C4F683FB996F858005CF82000A060A81D206009E096F85830154F85
:2032EC0057F82330A3604B68C018401E20602868083060600868000110380240A0680243E4
:20330C00A260F16EAA68E86810434968096888622968486A40F003004862F8BD3004002056
:20332C0000050020A47B00009C7B00004004002010050020947B0000F8B53548203001689B
:20334C0041F0100101602E490120C1F804082D4D522028602C4F142038602C4C032020608B
:20336C00022004F080FA20684008FCD2532028600B202060022004F076FA254628684008A4
:20338C00FCD23968234EF01D017009242C60022004F069FA28684008FCD23868B11D087005
:2033AC002C60022004F05FFA28684008FCD2386806F1090108702C60022004F054FA2868C7
:2033CC004008FCD2386806F10801087020462C462060022004F047FA20684008FCD23868C6
:2033EC0006F10B01087005202060022004F03BFA20684008FCD238680A363070F8BDC0467D
:20340C00002000400028004008280040042800400028004084220020F8B5354820300168EB
:20342C0041F0100101602D490120C1F804082C4D522028602B4F142038602B4C03202060AE
:20344C00022004F010FA20684008FCD2532028600B202060022004F006FA254628684008A3
:20346C00FCD23968214E701C017009242C60022004F0F9F928684008FCD2386830702C6032
:20348C00022004F0F0F928684008FCD23868F11C08702C60022004F0E6F928684008FCD22F
:2034AC003868B11C087020462C462060022004F0DAF920684008FCD23868711D0870052071
:2034CC002060022004F0CFF920684008FCD23868361D307004F06AF9F8BDC04600200040DF
:2034EC0000280040082800400428004090220020002800402DE9F04105462E480068EFF3F0
:20350C00118880F311882C4A505D411C0028515549D12A4CA900675C07F03F003F280C44C3
:20352C0001D0FFF7E7FF607800F03F003F2801D0FFF7E0FF668837F07F0019D1F80911D25C
:20354C004FF08054D4F8B801406901463046884704F5DC742068406B014630468847012861
:20356C00F8D120E0164850F82610012088471AE04FF08054D4F8B801C06901463046884763
:20358C00D4F8B801406A014630468847D4F8B801C06A01463046884701210A4A0A481160F0
:2035AC0001688908FCD388F31188284603F0BEFBBDE8F081287E000090290020AC7B00004C
:2035CC00A829002028200860282008402DE9F047ADF1500D14460F460646DFF8C080D8F884
:2035EC000050D8F8049004F02FFA2988012903D104F026FA00204EE04FF0010AA5F800A056
:20360C0004F01EFA1CB9684603F06AFF6C4606B10FB900203FE003A803F080FF60680790C7
:20362C00207A8DF8240099F8070003A903F0C2FE08B900202FE068602068A860AE6285F86F
:20364C002C700021242208230BA804F00DFA00240AE0A00051460BAA00EB441030180830C9
:20366C0004F0FEF9641CE4B2A742F2DC51468DF8441005F10C000BAA04F0F2F9404601F009
:20368C004DF938B1D9F800104046112201F0E6FE404600E0002014B0BDE8F087F07D0000AD
:2036AC00F8B5304D05F12001086840F0100008602B490120C1F80408522028602A4F1420A4
:2036CC0038602A4C03202060022004F0CCF820684008FCD2532028600B202060022004F0F9
:2036EC00C2F8254628684008FCD23968204E701C017009242C60022004F0B5F82868400893
:20370C00FCD2386830702C60022004F0ACF828684008FCD23868F11C08702C60022004F0DC
:20372C00A2F828684008FCD23868B11C087020462C462060022004F096F820684008FCD2BE
:20374C003868711D087005202060022004F08BF820684008FCD23868361D3070F8BDC0468D
:20376C0000200040002800400828004004280040842200202D492DE9F0410968EFF311882A
:20378C0081F311882A4B195C4A1E01291A5449D12849800045180E5C6F8836F07F0019D1CE
:2037AC00F00911D24FF08054D4F8B801806901463846884704F5DC742068406B01463846CB
:2037CC0088470228F8D120E01D4850F82710002088471AE04FF08054D4F8B801006A014605
:2037EC0038468847D4F8B801806A014638468847D4F8B801006B01463846884701210E4A6F
:20380C000E48116001688908FCD306F03F003F2801D0FFF7AFFF687800F03F003F2801D0B4
:20382C00FFF7A8FF88F31188BDE8F081287E000090290020AC7B00002820086028200840CF
:20384C00A82900202DE9F8430C4606467568B768206808B9002051E004F0F6F8696D29B154
:20386C0004F0EEF803202074002047E04FF0010884F810806C6504F0E3F895F8700030B192
:20388C0095F859201E49A86E114302F063FC3968486840F00200486030462146FFF7DAFC20
:2038AC003968486940F001004861676804F0CCF88146144C207801280AD017F0704F02D1EE
:2038CC00102002F00BFD042002F008FD40462070484604F0B5F8287828B905F138006968D2
:2038EC0004F0A2F808B1404608E03046FFF7C8F805F13800002104F097F80020BDE8F883C9
:20390C00000006804A23002041F21C3010B5C5F200000468B4F1FF3F08BF002403F01CFE46
:20392C0040F2844346F25C01002242F2082E012040F2801CC4F26023C4F20C011A60C4F246
:20394C00043E0860C4F2283CCEF80000DCF8000038B140F20010C4F2203000682046FCF70B
:20396C003FFE44F20402C4F203021068052142F24803C2F20001C4F2030320F00300014322
:20398C00116019684FF0000EC0F2391E6FF35B414EEA01000421C4F2090118600868C0F31C
:2039AC000130012809D10A684FF6FF70CFF6FC40104040F400320A60086010BD29482DE9C4
:2039CC00F84FD0F80090EFF3118589F31188264CA068012104F020F84FF0010A4FF0000876
:2039EC00064621686769A4F81CA02068A4F81E80791A321A8A42A6EB07062DD385F31188A2
:203A0C004546EF195046394603F0F6FF761B0546B542F6D9EFF3118B89F31188E08B012841
:203A2C0004D14046394603F0E7FF0546B5F1FF3F06D0A169AD1BA94238BF0D1CE91901E002
:203A4C00A5697919284603F0D3FFA4F820A0A4F81C805D46276001E0A4F81C8085F311889F
:203A6C00BDE8F88F287E0000780100202DE9F04F09AFADF1140D914682460393D7F8088077
:203A8C003D79B7F800B002910027BAF1000F06D0081C04D0181C02D0B8F1000F01D1022011
:203AAC0034E03C462DE00AEB840630884FF6FF71814224D0B37813B30398029A594603F0FA
:203ACC004DFA0490D8B1B07840080AD30095CDF804803088049B01214A4600F0ADFD38432D
:203AEC00C7B2B07880080AD30095CDF804803088049B02214A4600F09FFD3843C7B2641CCC
:203B0C00E4B204480078A042CDDC384605B0BDE8F08FC04649230020F8B50D46EEB22908FA
:203B2C0001D324494D40244B53F8261085EA01020240C2F30067214A00EA05048143224067
:203B4C000A4300F4E021B1F5E02F01D1510E14D300F4E0210F4310D002F4E027B7F5A027B3
:203B6C0007D0B7F5803708D122F4003242F4A02203E022F4803242F4C02243F82620104C46
:203B8C00C10D04D3A4F1D001C5F380528A55000E0FD303F059FF290E02D30121B14000E06B
:203BAC00002123680122B24093431943216003F047FFF8BD006000A000100840007F077F3A
:203BCC00D02002402DE9FE430646204C1E48DFF88080214F224D2188028891420EDC414605
:203BEC0000880988814209DB1A4938880988884204D11A4928880988884220D0052002F031
:203C0C00EFF8814617480088ADF800002088ADF8020041460888ADF804003888ADF80600E4
:203C2C002888ADF80800684603F0DAFC071C07D10E4806700C48494602F016FD00E01827D6
:203C4C003846BDE8FE83C0466A2C0020622C0020642C00206C2C0020662C00206E2C002076
:203C6C00682C0020582C0020E8210020722C0020F8B5264C2068EFF3118680F31188244960
:203C8C001D4D0B680420B0FA80F043F00403281A1F3002780B60521C027086F311882068D3
:203CAC00EFF3118380F311880A680820B0FA80F042F008022D1AE87F0A60401CE87783F33D
:203CCC0011880E20FFF716FC0C480068C0F38150032814BF0020012009490A4A08801768DD
:203CEC003FB9094C402020600123D36100204860F8BD0120F8BDC046A3290020B43F0050AB
:203D0C004C2F002004800C402C500C40287E00007C2C0020F0B520480127F84201D001F0C5
:203D2C00D7FC204D204F214EBD4206D203CD0478A4003459401CA047F6E71D48002800D088
:203D4C008047164D164FBD4202D210CDA047FAE7F0BD03251BE0416808300A1C2A400BD133
:203D6C001A1C2A40AB4305D0046804300C600431043BF9D1131C05D0047801300C7001312B
:203D8C00013BF9D1021C2A4001D0A84304300368002BE0D17047C046FFFFFFFF0000000099
:203DAC000000000038860000C0860000B885000059C50110F8B500252E46001D84B214F0EA
:203DCC00030002D0241A241DA4B203F075FA1D4A1060102C02DC1C48076801E01B48076854
:203DEC003888C10BCB030FD126B9844215DD01263D460DE02B883988C918298029888C42D2
:203E0C0006DC2F46388808E080F4004080B20026C71938880028E4D1002777B1001B80B272
:203E2C00042804DA388840F40040388004E0E119088044F400443C803F1D106803F046FBDA
:203E4C003846F8BDD41A00202023002024230020B0B5ADF1280D0446A06840BB0C20FFF7A4
:203E6C00A9FF071C02D16FF0030036E0684600212422082303F0B8FD0023ADF81030059398
:203E8C000697174861686A4603F0AAFD3860386838B903F0BFF9384602F080FC6FF00300E5
:203EAC001BE0E06878602069B860A7600DE0A7680C48006880470546386803F0A1FD2069AF
:203ECC00B86009480168284688473868616803F09FFD386803F098FD00200AB0B0BDC0465A
:203EEC00297700006C2F0020702F0020002A4AD05FEA000C8B071CD1830722D1102A08D3F2
:203F0C0070B4103A78C978C0103AFBD270BC103238D0042A2CD3082A05D30C2A24BF08C900
:203F2C0008C008C908C008C908C092072AD0920F22E00B780370491C401C521E22D08B079A
:203F4C00F7D1C30714D18307D8D0121F12D308C903801B0C4380001D121FF8D20AE008C985
:203F6C0003701B0A43701B0A83701B0AC370001D121FF4D2121D05D00B780370491C401CAB
:203F8C00521EF9D160467047FEB508AF3E8884460027FF24087A800901D308203DE0087896
:203FAC0002282CD148684D6840782D7805EB0025A8B242F60215401B19D04DF2EF65401B1C
:203FCC0001D0801E11D11EB9012B02D00D2700E00B27AFB9C868127802701048C968884282
:203FEC0001D100240CE002240AE00A2708E0009601200190604601F03EF9074600E001273F
:20400C00FF2C09D00649086830B10868006818B108680168204688473846FEBD112B0020AC
:20402C000C2B002000B5ADF1140D401E19D0C01E10D0401E0AD0401E39D140F215306946DE
:20404C00FDF740FF1B490120086030E0142002F0D5FB2CE0184803F038FC142002F0CEFBAC
:20406C0025E04FF4417002A9FDF72CFF9DF808008DF800009DF809008DF801009DF80A008C
:20408C008DF8020000208DF804008DF803009DF80D108DF807109DF80C108DF806109DF82D
:2040AC000B108DF805106A460821FEF76FFA05B000BDC046F42B00207C210020F8B506469B
:2040CC0002F0F8FD42F29825C2F200056F68044602F024FC2A69E41B4FF47A716143090C97
:2040EC00801A48BF404240F6B83289198A4216D3062814DAA968E868814210D82A6872B13D
:20410C00401A44F24021C0F20F014143080C00EB9140824212D91046C82811D312E043F688
:20412C00AC71C5F200014868400828BF4FF4FA600DD209687D2001F0FF014843C82801D2F6
:20414C00C820F8BDB0F57A6F88BF4FF47A60F8BD2DE9F04FADF13C0D03F0A2FC8246DFF8A3
:20416C006C90DFF86C801B4E1B4D0024684600213C22082303F030FC59F82400069058F8AD
:20418C002400089056F82400049055F82400059012486946002203F01BFC071C01D101F030
:2041AC001FFC03F089F88346384600F005FA08B901F016FC584603F089F9641CD6D050469B
:2041CC0003F056FC0FB0BDE8F08FC046507D0000547D00004C7D0000682F00202D760000E4
:2041EC002DE9B841044603F027FC00F0E5F9054603F062F880460022062A2DD21B489100D3
:20420C0001EBC201475ABFB9A388910001EBC20143529100031D01EBC2015D50A368910021
:20422C00083001EBC2014350A28168682061404603F04CF9002016E0A388910001EBC20145
:20424C00415A994205D1404603F040F96FF0020009E0521C062AD2D301F0C2FB404603F0A0
:20426C0035F96FF00300BDE8B881C046E02000202DE9F8430D460646DFF874904FF0FF3164
:20428C00484603F0D1FBDFF870801A4A0024012700E0641C5DB115F82400FF2807D0116838
:2042AC00814203D958F820000028F2D00027C7B1002434607460B46001279DB115F8240013
:2042CC00FF280FD048F82060716807FA00F0084370600A4955F82420304602F0ABF9641CB7
:2042EC00EBE70026484603F09BFB3046BDE8F883682200200C230020C41F0020007FC76764
:20430C002DE9F84390460C468146D9F80060B8F1000F06D006F10C00B16803F085FB0028DB
:20432C0033D0B16AA00000EB44100F58B56AA00000EB44102D180835B8F1000F04D0284693
:20434C00B16803F071FBE0B10024082C0EDA22464846002101F0BCFD07EBC4114846802250
:20436C0001F0A4F8641CE4B2082CF0DBB8F1000F0BD0284603F054FB06F10C0003F050FB0B
:20438C0003E006F10C0003F04BFBBDE8F883FEE738B5042002F02BFD1A4C022818BF032830
:2043AC001FD103200090164800214FF040521C2300F036FF17480068EFF3118380F3118851
:2043CC0015480421B1FA81F1401AC17F4A1E0129C27703D1206820F00400206083F31188CE
:2043EC0038BD094D0A48094A296803686018B2FBF3F103F00DFB2868201803F005FB38BD11
:20440C0000A00C407C2C0020147E0000A08601002C7E0000287E0000A329002010B51A48C0
:20442C001A490078086820F0030040F00100086001F07AFC00F044FE0021154C1548216080
:20444C000068C0680146022088471349134A086820F0010008601068D4F8EC1FEFF3118420
:20446C0080F311880E4B0F481A680421B1FA81F1401A42F00402C17F1A60491CC17784F350
:20448C0011884FF0FF3010BD422300200440034040100940A00100108C210840287E00004B
:2044AC007C2C0020A32900202DE9F041044603F0C3FA00F081F8071C04D101F091FA6FF0BF
:2044CC0003002FE002F0F8FE80460022062A22D21548910001EBC201465ACEB991004FF630
:2044EC00F87301EBC20143521049900000EBC2000B1D1F500025900000EBC20008310D50DC
:20450C00A2807868A060404602F0E0FF284609E0521C062ADDD301F063FA404602F0D6FFF6
:20452C006FF00300BDE8F081E0200020E0200020F8B505461E480068EFF3118780F311886B
:20454C001C4C20684FF0805640F080002060D6F88C014068014601208847D6F8B001006AF7
:20456C00014614208847286906F5C675810C14BF010C04212868406A024601209047D6F844
:20458C008401006823210246002090472868C069014601208847206820F4C02040F480304F
:2045AC002060206840F00100206087F31188F8BD287E0000002009402DE9F041054602F0DB
:2045CC007BFE80460026032E2DD21A480446B10001EBC6014758A7B9B00000EBC60024188E
:2045EC0025600020A06001460A4603F0EDF96060606808B901F0F4F9404602F067FF20462F
:20460C0015E0B10001EBC6016158A94208D1404602F05CFFB00000EBC6012046401806E0DF
:20462C00761C032ED3D3404602F050FF0020BDE8F081C046582100202DE9F04307AFADF1CC
:20464C001C0D1D4691460E4680461B214FF6FF7203AB02F005FC059040B300200090BDF851
:20466C000C000190FF2002907C68059A0DF1120329464046A047041C12D16889ADF81000C5
:20468C00700806D340464A4604A902F069FD044606E03B7840464A4604A903F039F804468E
:2046AC002CB104A81B2102F0A7FD00E01524204607B0BDE8F08341F2A00010B5C5F20000F6
:2046CC00D0F8781203680A0F03F0FF03802B28BF0023D0F878024BF69A11C0F30F344FF0EB
:2046EC00FF30A14213D02431A14207D04BF62031A1421DD1E2B90A3358B210BD12B1921E25
:20470C0002D010BD0A2010BD143358B210BD521E0DD0921E04D0121F04D0521E04D010BDF2
:20472C00142010BD152010BD163358B210BD0A2010BDFEE7F8B5044603F032F830F0010039
:20474C0002D16FF004002EE003F076F9054602F0B3FD03460022062A20D21348910001EB55
:20476C00C201475AD7B1910001EBC201465AA188B14210D10D49900000EBC200091D08584B
:20478C0000680026854200D10126A660184602F09DFE002007E0521C062ADFD3184602F028
:2047AC0095FE4FF0FF30F8BDE0200020E0200020002213460A46194671B510F0030F0BD0BA
:2047CC00002A82BF00F8011BB2F1010210F0030FF6D1002A08BF71BD11F0FF0141EA012162
:2047EC00042A18D341EA0141082A0FD30E46102A08D30C460D46B2F10F0312F00F0272C00B
:20480C00103BFCD812F0080F18BF42C012F0040F18BF40F8041B12F0020F18BF20F8021B19
:20482C0012F0010F18BF017071BDFEE73EB5184D2868446C152114224FF0FF3316200090C4
:20484C004FF08040A0472868C16B072088472868C16B0A2088470F48802101604FF4806182
:20486C0001600D4C206820F002002060103528680B490568094803220023009010200190D8
:20488C004FF08040A847206840F0020020603EBDB4010010902002400400004080841E00CC
:2048AC00006CDC0270B500791A4D1B4CB8B902F003FD297821B902F009FE6FF0070028E0F1
:2048CC002A461178491EC9B2117029B902F0FEFD206801F02DFE1BE002F0F8FD18E002F031
:2048EC00EBFC06462878FF2805D1304602F0EEFD6FF006000DE029460878401CC0B2012851
:20490C00087002D1206801F02DFE304602F0DEFD002070BD942F0020982F00207FB50024EA
:20492C0046681649307941EA0002601C4DF82420B2791143421C4DF82010114871790843A3
:20494C00511C4DF82200FF204DF821000D486946FFF78EFC0C4D286068B10D480B49006863
:20496C00B1FBF0F003F02CF871792868012201F00DFC012000E0204600907FBD0000C0807E
:20498C0000008080F02200201C230020A08601002C7E0000F8B51646876845684FF0FF3492
:2049AC000846203826D0401E20D0401E1BD1307815490143A86E00F0D3F918BB3868B0F187
:2049CC00804F01D10B2200E02322A86E317802F029F8A86E95F8591000F028F9307885F8C4
:2049EC00590000240EE06FF001040BE0002485F8704007E0297B0020012900D1012085F85C
:204A0C00700000242046F8BD0020008098B504AF144C2478062C01D0142022E006280FDBEE
:204A2C00B0F5486F0CDA06290ADBB1F5486F07DAB2F5FA7F04DA0A2B02DBB3F5486F01DB8B
:204A4C0018200EE0094C20800948018009480280094803803878FFF7B5F8034802F035FFF2
:204A6C00002098BD48230020C4210020622C0020642C0020662C0020682C002070B50646F0
:204A8C00F4680C3CF088062802DAB088062802DB6FF0020027E002F00FFCF288124D9100D2
:204AAC0001EBC2016958D1B102F010FD30792071B0796071307AA071F188880000EBC1005D
:204ACC002858F168083001F036FEF188880000EBC1002858406802F0A3FF002003E002F036
:204AEC00F5FC6FF0020070BDE420002010B54AF2000434214FF080521C23C4F20C04204631
:204B0C0000F0B0FF012826D0204634210122002300F0A8FF002808BF00201DD08020C1F2E4
:204B2C0000000068804702F0C5F842F2982344F24022C2F20003C0F20F029C681968D860CD
:204B4C00041BA1EB91016243120C8A4224BF1A60012001D21960012010BD2DE9F041054633
:204B6C0015F8017B90460E461CE0B8F1000F05F101050BD0FF2C09D8022015F8011B401E36
:204B8C0041EA0424F9D101E0042C02D315F8011B00E0394630462246FFF70EFEA61901E0FE
:204BAC0006F8010B15F8010B8742F9D115F8014B002CE9D115F8010B2C7800022418D4D154
:204BCC00BDE8F081FEB504466068A16808600027142002F045FE0DEB870148600DEB870046
:204BEC00406868B90024A74207D90DEB8400406801F0D4FD641CA742F7D86FF0030010E083
:204C0C007F1CE5D0074D00273E4600960DEB8700054AE95DA368406801F050FE7F1CF4D03E
:204C2C003046FEBD6A7C00001167000038B50C4628B14268012101FA04F3134201D10220BA
:204C4C001EE04268A1408A4342601148002540F824500C490D480A5DFF2A07D00A4A095D5B
:204C6C00126852F82110FEF757FF03E044F02041FEF752FF20464FF0FF3102F0D9FA284622
:204C8C0038BDC0460C22002028230020007FC767C41F002045F2280010B5C4F20900046855
:204CAC0054B343F6AC71C5F200018B6803EA5300C00E21D2486880081ED20022C4F20902D4
:204CCC001068096810F0050F4FEA114101F0F00101F5E0710BD1A1420ED2190F38BF40F029
:204CEC000100D90E38BF40F00400106010BDA14284BF20F00500106010BD7047F8B5054631
:204D0C0002F09AFE044602F04BFD30F0010002D16FF0040021E002F0CFFA03460022062ACB
:204D2C0016D20E48910001EBC201475A87B19100061D01EBC201715809688C4205D1AA80A5
:204D4C00184602F0C3FB002007E0521C062AE9D3184602F0BBFB6FF00400F8BDE02000209A
:204D6C00F8B50E460746F5B21FB115480068A84201D802201CE00F4C4FF0FF31204602F09A
:204D8C0053FE0D4951F8250068B941F8257079680120A8400843786008493246384601F0BE
:204DAC0049FC002500E00125204602F039FE2846F8BDC04668220020C41F0020007FC76765
:204DCC000C230020B0B504AF104600240A7A520901D3082027E03F880FB10B2023E00A78CD
:204DEC00022A1DD14A6855784A68127802EB052292B24FF6F175521B012A0BD9D21E012A38
:204E0C0002D91C800A240DE012221A80C968FFF76DF807E001221A80C9680978017001E0F2
:204E2C001C8001242046B0BD38B541F23405C4F2090528680004040C26D001F06FFD42F28A
:204E4C000432C2F2000292F90710814205DD10F1800FB8BF6FF07F00D0719188A14212D807
:204E6C001368D5F8D40FC01A801C1F2888BF1F20641A4008C4404FF6FF700919884238BF57
:204E8C00011C918038BD948038BD000010B50024E8B1401E17D0401E11D0401E09D0401E3F
:204EAC0001D0022416E008460B491222FFF71EF810E0084609491222FFF718F80AE0084813
:204ECC000078087006E007480078087002E0064800780870204610BD6E2B00204A2B002010
:204EEC00372B0020242B0020112B002038B502F0ABFD154C0546A01D008840B9FEF7B8FE3D
:204F0C000446102000F060F9012C0DD017E0FFF7EDFD60B10020E080FEF7AAFE0446102039
:204F2C0000F052F9012C0AD1FDF7AEFF07E030340521204602F06CFD204602F065FD284627
:204F4C0002F07EFD38BDC0467C2C0020F8B5054605F128020CCA0846002102F05BFA05F17B
:204F6C00300292E8C00036184FEA164447EB01073804044301F09EFE211AB1F1004F08D882
:204F8C00011B091DC90F05D1001DA04288BF041C00E0041D04480068426A214601209047EF
:204FAC00383585E8C000F8BD8C01001098B5044602F042FD00F002FA074602F0F1FB30F0FA
:204FCC00010002D16FF004001DE017B96FF0040019E0606868B16068B0F1FF3F05D0606840
:204FEC00694601F0F3FB30B10DE04FF0FF30009001E0002000907868009902F015FD002419
:20500C0000B90124204698BD7FB5456886683168486820F0020048603168486920F00F00B0
:20502C00486130680321016202A802F0C5FC0C4800680468286900906869074A0190297E9C
:20504C00064B52F82120297B306853F821300399A04700907FBDC0467C7B0000747B000055
:20506C00C40100101549096821280ADC212819D00C380FD00D380FD0001F0FD0C01E0FD01D
:20508C001AE0253810D0401F10D0401E10D0401E10D011E0086870474868704788687047EC
:2050AC00C86870470869704748697047C8697047086A7047486A704700207047F00100200B
:2050CC0038B500244AF2000521460122C4F20C050B460094284600F0A3F821460222012394
:2050EC002846009100F09CF834214FF080521C23284600F0B7FC20B18020C1F200000068DF
:20510C00804701F0D7FD42F29824C2F20004606001F004FC206138BDF0B5ADF1340D124C46
:20512C00666825687079FEF7E5F902F08DFC0746287898B901A800213022082302F08CFCD2
:20514C00069400200090094A317901AB281D02F07FFC01202870204602F078F8384602F0AD
:20516C006FFC20460DB0F0BDC87D00001D7800002DE9F04708AFADF1280D8A4680461D463E
:20518C00104C20684FF47A79B9FBF0F002FB00F6002124220823684602F026FC7868069098
:2051AC002068B9FBF0F0454305953878ADF81000514632466B46404602F0FAFB40460AB0D3
:2051CC00BDE8F0872C7E0000F8B507461248134C0668301902F060FC0025A419B8B920468C
:2051EC0002F056FC0646B068074205D0F268316938469047C0B230B9304602F045FC064644
:20520C00B442F0D103E003480068804702252846F8BDC0461C7E0000187E00007C2C002026
:20522C002DE9F041984600EB41001646B8F1100F06AF00F5007404D3A8F1100800F50174DD
:20524C00360C3D8802F088FA05FA08F545EA06450021002808BF012148F20002C4F20C021F
:20526C0010680028FCD025600120106009B102F079FABDE8F0812DE9F04106AF0C46804657
:20528C0000253E88EEB9022B19D15178107800EB012086B2B88836EA00000ED1E1680968CB
:2052AC00404602F0A5F986420CD0E16809684046324601F063FD054604E0802502E00D2537
:2052CC0000E00B252846BDE8F08170B504464AF200060D466008ADF1080DC4F20C0607D36D
:2052EC00A8B20021009001220B463046FFF798FFA00807D3A8B200900021022201233046D5
:20530C00FFF78EFFE00807D3A8B2009000210C2202233046FFF784FF02B070BD2DE9F041C9
:20532C001C4615460E468046182001F023FC071C16D00421002202F02DF95020414601F0F2
:20534C0041FC38727E72BD72FC60069838610798786101F023FC044A394600F065FC00E022
:20536C000420BDE8F081C0469178000038B50024032C0FD20F4B21461A46A00000EBC40047
:20538C00195002F10805A00000EBC4002950641C032CF2D30024062C08D207492246A000D4
:2053AC0000EBC4000A52641C062CF8D301F0DEFF38BDC04658210020E0200020F8B50646DE
:2053CC0001F07AFF02460025032D18D20E480446A90001EBC50147588FB1A90001EBC5019B
:2053EC006158B14208D1104602F070F8A80000EBC5012046401806E06D1C032DE8D31046A5
:20540C0002F064F80020F8BD5821002070B5026892F82C00884220D9936A880000EB4110FB
:20542C001B185D68936A880000EB41101E58946A880000EB4110241808342046916802F0A6
:20544C00F3FA50B10020854204D901463154401C8542FBD8204602F0E3FA70BD2DE9F84319
:20546C00904689460646376875680F4C29792068002200F08BFEA9792068002200F086FE53
:20548C0042463046494601F09FFC796889680968C9684909F9D220B1A9792068012200F0C8
:2054AC0075FEBDE8F883C0461C2300202DE9F843904689460646376875680F4C29792068A5
:2054CC00012200F063FEA9792068002200F05EFE42463046494601F077FC79688968096800
:2054EC00C9684909F9D220B1A9792068012200F04DFEBDE8F883C0461C23002038B51049AE
:20550C000868D8B10F4A1078401C10700C4621682068226809794088083200F0C7FD054659
:20552C00162D0BD0042D09D02068074940880978002201F0A7FC284601F060F938BDC046AD
:20554C00CC2B0020D02B00204023002010B50178A23902D02E391AD01BE04179132918D174
:20556C0008300D4C0088012809D10A480078022805D1204602F0A9F901F0E6F909E0052061
:20558C0000F02EFC0146204601F06EF801E0FBF76BFE10BD722C0020E821002038B5856817
:2055AC004468E06E01F0A9FAA06E01F099FD2968486820F00200486004F11C0002F0F4F9D1
:2055CC006879FEF7D7F8207818B904F1380002F0E7F904F1900001F047FE02F035FA0021B5
:2055EC0084F8A41002F02CFA38BD00001FB50E480E49FEF73DFE0B490860684601F070FFE7
:20560C000B4801216A46FDF7E1FF0A4C206038B120680021FFF7FAFE2068002101F0CEFFC8
:20562C0000901FBD18230020CC2200208C2F00200C2F0020882F002008B50D48006890FA78
:20564C00A0F0B0FA80F10B4B012000FA01F21A60094A106009480068884207D9084850F8F7
:20566C00210018B102680AB1C9B2904708BDC046E0200240E020026080E200E00C230020BD
:20568C00C41F00202DE9F84308AF984614460D468146142001F06EFA061C13D03A78032139
:2056AC0001F078FFA6F808903474F5605020414601F088FA707401F071FA044A314600F0E4
:2056CC00B3FA00E00420BDE8F883C0462D730000F8B506460F4D104F7388002417E0A000DD
:2056EC0000EBC400321851689068D26852B9AF420BD00A7855F822200346491C0846194677
:20570C00904701E0FEF7F2FB7388641CA4B2A342E5DCF8BDB8850000C485000098B504469A
:20572C002420FEF747FB071C02D16FF0030019E020B100212422082302F096F920790128EB
:20574C0001D101203876A0683946002202F03CF9E060384601F022F8E06808B1002001E001
:20576C006FF0030098BDD0B504463C20FEF722FB071C02D16FF0030019E020B100213C2288
:20578C00082302F029F9207AB86160893862E068386160683946002202F01AF9064638466F
:2057AC0000F0FCFF0EB1002001E06FF00300D0BD2DE9F0411C4615460E468046102001F004
:2057CC00D9F9071C12D00421072201F0E3FE5020414601F0F7F938727E72BD72FC6001F0D8
:2057EC00DDF9044A394600F01FFA00E00420BDE8F081C046BB780000B0B5054601F05CFDA4
:20580C0002460024062C13D20C48A10001EBC401475A6FB1A10001EBC401415AA94204D1E5
:20582C00104601F053FEA0B206E0641C062CECD3104601F04BFEFF20B0BDC046E0200020D9
:20584C0010B504460C480078800001F0F7F90B49086078B109684FF6FF7000F0DFFA6008C5
:20586C0006D30748074B1121102200F07DF902E0002000E0132010BD4923002038230020EF
:20588C0080280020947D000070B50546686810F07F4F02D06FF0020012E001F00DFD0646A9
:2058AC000948084C007828B1206800F041FE686800F058FE68682060304601F007FE00203D
:2058CC0070BDC046982F0020942F002010B501460B4850F821200B48104008430B4A503A0A
:2058EC001268012303FA01F4144201D040F480008B40054909680B4201D040F4000010BD88
:20590C0000100840007F077FD0200240D020024070B5164605460E4810300560094C206816
:20592C0042684FF0804090472068C26831464FF080409047044908684009FCD20348056058
:20594C0070BDC046C40100100C00004090200240902002400C4885460C4885446F460720EB
:20596C008743BD460A486F4607600A48002803D07946491D8E460047FEF7CCF901F03EFD6D
:20598C0002F00AF8FEE7C046E83F0020000400008C2D0020E977000008B50B480078401EB2
:2059AC0004D0401E0ED100F0CFFF0BE0012008490090084A084B0548098812881B880088D7
:2059CC00FFF724F808BDC046722C0020622C0020642C0020662C0020682C002000BF7047E6
:2059EC0008B5FFF7FBFFFEE738B50546094800688047094C201D006810B101462846884712
:205A0C00206800B18047054800688047FFF7E8FF38BDC0469C2F0020A42F0020A02F002059
:205A2C0038B50F4C2C34A4F12C01086820F00100086054F82C1C4FF0805541F0800144F871
:205A4C002C1C01202060D5F88C11226849688847D5F8B001006A014614208847206838BD2E
:205A6C000020094070B51E460C181546102E02D3103EA41C2D0C01F06FFE0021002808BFE1
:205A8C000121084648F20001C4F20C010A68002AFCD0248801220A6008B101F063FE25407B
:205AAC003541A8B270BD38B51C4615460B461021022200F0A1FFB0B90020009069462846C7
:205ACC0001F0A8F978B90099487848B90846C1798C4205D10146049889682246FEF706FA40
:205AEC00009801F08DFA38BD2DE9F0411C4615460E468046142001F03DF8071C0FD00121F9
:205B0C00142201F0F1FD87F80880FE603D82BC7401F044F8034A394600F086F800E00420A5
:205B2C00BDE8F081CB760000F8B514460D4606460E2001F01FF8071C11D004210A2201F0E0
:205B4C0029FD5020314601F03DF838727D813C7301F024F8034A394600F066F800E0042084
:205B6C00F8BDC046B57800002DE9F0411C4615460E468046142000F0FDFF071C0FD00421CC
:205B8C00022201F0B1FDC7F80880BE81BD733C6101F004F8034A394600F046F800E00420F8
:205BAC00BDE8F081BD760000C0B5ADF1140D1F4616460822ADF800201922ADF80220019019
:205BCC000291084801686846884716B1BDF80C10318017B1BDF80E1039800499089A1160A3
:205BEC0005B0C0BD782F002070B50E460C4D5100A5F10802116028600A4C032020600220C9
:205C0C0001F031FE20684008FCD22E6005202060022001F028FE20684008FCD270BDC0467D
:205C2C0008280040042800401CB514460B46D978012902D199880B4A11801021022200F066
:205C4C00DBFE30B9002000906946204601F0E2F810B101F0B2FA04E00098447801F0D0F996
:205C6C0020461CBD7C2F0020012810B515D1012001F0BDF8012812D000F050FA094C0120B8
:205C8C00E0803034204601F0BBFE0521204601F0BFFE204601F0B8FE01E0FFF711FA0020DB
:205CAC0010BDC0467C2C00200C4810B50068EFF3118480F311880B48C088012809D108484B
:205CCC00342101220023FFF7CDFE002808BF002000D0012084F3118810BDC046287E0000D3
:205CEC0000A00C407C2C0020B0B504460D48026840680F4600211200401841EB020104F1CA
:205D0C0028020CCAFBF7E4FF05460B4647B104F1280003C82A4601F07DFB303484E803007A
:205D2C002846B0BD0820094010B54FF08054D4F8900181680120884741F21401C4F20901F5
:205D4C000868800902D208688009FCD304F5D07420680168402088472068816840208847A5
:205D6C001128F9D110BD2DE9F041984615460C460646102000F0FEFE071C10D02A46042175
:205D8C0001F008FC5020314600F01CFF3872FC6000F004FF39464246FFF746FF00E00420D1
:205DAC00BDE8F08100B5ADF13C0D00213C220823684601F011FE074807904FF4027008909A
:205DCC00032006900448054900236A4601F0E0FD0FB000BDCC180020402000200527000097
:205DEC003EB505460020ADF804000A2000F0C2FE041C0DD00421312201F0CCFB258100F0F3
:205E0C00CDFE01A90223044A00912146FFF74BFEBDF804003EBDC0469D78000038B54FF656
:205E2C00FF74844206D000F059FF88B10480002181700DE0074A0020034606E021F820402A
:205E4C0001EB8005AB70401CC0B215788542F5DC38BDC0464923002038B50B4D286800F665
:205E6C006C21002008802968E8220A802968E83140F684120A80054C2160FDF79BFF04490F
:205E8C0008602868206038BD742F0020202300202423002098B506280DDA0C4B820002EBD4
:205EAC00C0029F5A3FB1820002EBC0029A5A4FF6F874944202D14FF0FF3005E0820002EBEA
:205ECC00C002985A0880002098BDC046E020002038B50C460C4B1D8869460D809B788B705A
:205EEC000B78D2180A709DF8023004F00F02D2188DF802209DF8012002EB24128DF80120D3
:205F0C000322FFF7ABFA38BDC57D000000B5ADF13C0D00213C220823684601F05DFD0748F0
:205F2C0007904FF42F700890012006900448054900236A4601F02CFD0FB000BD1016002044
:205F4C00902000205D18000010B504466078162806D10A4960880978082200F093FF30B1AB
:205F6C00217904F1080001F047F9012005E0012000F044FC02480460002010BD40230020D8
:205F8C00CC2B00202DE9F0411C4615460E4680460E2000F0EFFD071C0FD08120387001204A
:205FAC00F870A7F804803E817D81BC8100F0F6FD069A3946FFF738FE00E00420BDE8F08108
:205FCC002DE9F84308AF984614460D468146102000F0D0FD061C0ED03A78414601F084FBC5
:205FEC00A6F808907581F46000F0D8FD7A683146FFF71AFE00E00420BDE8F8830C4910B5AB
:20600C000968EFF3118481F311880A49B0FA80F2891ACA7F531E012ACB7703D1034A1168AC
:20602C008143116084F3118810BDC0467C2C0020287E0000A329002038B50446A06868B18A
:20604C00A068B0F1FF3F05D0A068694600F0BEFB30B10DE04FF0FF30009001E000200090BB
:20606C006068009901F0E0FC002500B90125284638BD0000F8B514460D460646102000F0B9
:20608C0079FD071C0DD00421362201F083FA3E817D81FC6000F082FD034A3946FFF7C4FD88
:2060AC0000E00420F8BDC04685780000F8B514460D460646102000F05DFD071C0DD00221D5
:2060CC00152201F011FB3E81BD72FC6000F066FD034A3946FFF7A8FD00E00420F8BDC046BD
:2060EC00D976000010B504460B4802680023D90750080143D007801A99414FF47A72FBF76E
:20610C00E7FD002901D1B0F1004F01D36FF000406060002010BDC0462C7E000038B54AF2AB
:20612C00000501240021C4F20C0522460B4600942846FFF775F82346002102222846009374
:20614C00FFF76EF800F0B6FD42F2A021C2F20001086038BD08B50A460B49096802F0FF0367
:20616C00994206D9074B02F0FF0153F82110884201D0022004E04FF4E02100F05BFA00204F
:20618C0008BDC046C41F00200C23002080B51746094A12688A4204D9084A52F8212090421F
:2061AC0001D0022007E03846002200B101220448D0384254002080BD0C230020C41F0020EC
:2061CC00D0200240F8B50746BC68656895F8590001F0E4F8064695F859103846FFF7BAFF74
:2061EC00054800EA0601884205D1696D042008742046FCF745FCF8BD0000068008B5A0B15C
:20620C00401E0DD0401E06D0801E12D104206946FEF73CFE0DE002206946FEF737FE08E0B0
:20622C0001206946FEF732FE03E000206946FEF72DFE08BD1CB500208DF80400082000F034
:20624C0099FC041C0CD00121122201F04DFA00F0A5FC01A90123044A00912146FFF723FC59
:20626C009DF804001CBDC046E7760000F8B514460D460646102000F07DFC071C0DD00521D8
:20628C00012201F087F93E727D72FC6000F086FC034A3946FFF7C8FC00E00420F8BDC046AC
:2062AC00C7780000F8B514460D460646102000F061FC071C0DD00521022201F06BF93E7221
:2062CC007D72FC6000F06AFC034A3946FFF7ACFC00E00420F8BDC046CD7800000C4938B561
:2062EC000968EFF3118581F31188074B07491A68B0FA80F4091B1043CA7F1860521CCA7773
:20630C0085F3118838BDC0467C2C0020A3290020287E000010B50C4600F0CCFC211AB1F15F
:20632C00004F08D8011B091DC90F05D1001DA04288BF041C00E0041D03480068406A214607
:20634C0002460120904710BD8C01001010B5ADF1300D044600212C220823684601F038FA32
:20636C00E02008906068A16800236A4601F00CFB08B1002003E0FFF733FB6FF003000CB0DF
:20638C0010BD10B5ADF1300D044600212C220823684601F01DFAE0680890A1686068002316
:2063AC006A4601F0F1FA08B1002003E0FFF718FB6FF003000CB010BD2DE9F0419846164614
:2063CC000C4605460C2000F0D5FB071C0CD03246042101F0DFF83D81BC7200F0DFFB39468F
:2063EC004246FFF721FC00E00420BDE8F0812DE9F041984616460C460546102000F0BAFBE9
:20640C00071C0CD03246042101F0C4F8BD60FC6000F0C4FB39464246FFF706FC00E00420FC
:20642C00BDE8F08110B511780020802914D1518840F27F648C420FD191883F24B4EBA12FB7
:20644C000AD19188C1F3C211042905D1918801F07F018B4200D1012010BD10B5117800202E
:20646C00802914D1518840F27F648C420FD191883F24B4EBA12F0AD19188C1F3C211032954
:20648C0005D1918801F07F018B4200D1012010BD10B511780020802914D1518840F27F641A
:2064AC008C420FD191883F24B4EBA12F0AD19188C1F3C211052905D1918801F07F018B4261
:2064CC0000D1012010BD41F21830C5F2000001684BF69A10C1F30F31884208BF00200BD0EB
:2064EC002430884208BF012006D04BF6203088420CBF02204FF0FF307047000070B50D46CF
:20650C0006460C2000F036FB041C0CD00421302201F040F82681658100F040FB034A2146CE
:20652C00FFF782FB00E0042070BDC046A978000038B50546012410E0C0F11F0004FA00F178
:20654C004D40052804DB401FC0B2FDF713F904E004FA00F0C0B2FFF751FDB5FA85F02028D1
:20656C00EAD138BD38B50546012410E0C0F11F0004FA00F14D40052804DB401FC0B2FCF7F6
:20658C00B9FF04E004FA00F0C0B2FFF7A7FEB5FA85F02028EAD138BD7FB514460D4606460F
:2065AC000820ADF800000920ADF802000648016868468847BDF804103180BDF80610298010
:2065CC000299216000907FBD782F00207FB514460D4606460820ADF800000920ADF8020036
:2065EC000648016868468847BDF804103180BDF8061029800299216000907FBD782F0020BE
:20660C0010B5044601F018FAFEF7D8FE10B96FF004000EE0083000F031FAA060A1680C39D6
:20662C00A06828B10879A0804879E080002000E0022010BD10B50A4B1B6802F0FF04A34245
:20664C0006D9084B02F0FF0453F82430984201D0022004E008461146FDF75EFA002010BDD9
:20666C000C230020C41F002038B50D46044601F030F910B1204601F0C3F9074800684FF44A
:20668C007A71B1FBF0F005FB00F1204601F0C0F9204601F0B9F938BD2C7E0000F8B51546C6
:2066AC000E4604460C2000F065FA071C0BD031462A4601F019F8BC6000F070FA034A39468C
:2066CC00FFF7B2FA00E00420F8BDC04675670000F8B515460E4607460A2000F04BFA041C49
:2066EC000FD031462A4600F0FFFF5020394600F069FA207200F052FA10210222234600F01C
:20670C007BF9F8BD10B50C46401E0ED0401E0AD0801E06D0001F02D0FFF762F906E00520F8
:20672C0004E0002002E0042000E00220226821469047002010BD38B50C46054600F0BCFD59
:20674C00002144F80C1C296809B92C6009E0296801E051F80C1C51F80C2C002AF9D141F84F
