:20000000E83F0020B15D000001CA011001CA011001CA011001CA011001CA011001CA011063
:1C00200001CA011001CA011001CA011001CA011001CA011001CA01103FCA011082
:20003C002DE9F04100242646001D1FFA80F818F0030005D0A8EB000808F104081FFA88F806
:20005C0007F0CCFB41F6D422C2F200021060B8F1100F05DC42F2FC20C2F20000076804E073
:20007C0042F20030C2F200000768388848F20003CFF6FF7303420FD126B9804515DD0126C7
:20009C003C460DE025883988491921802188884506DC2746388808E080F4004080B20026EB
:2000BC00C71938880028E5D100278FB1A0EB080080B2042804DA388840F40040388006E09E
:2000DC0008EB0701088048F40048A7F800803F1D106807F03DFC3846BDE8F08101211022F2
:0400FC0006F04ABD03
:200100003C000000000000000000000034010000000000000000000001000000000000006D
:1C01200000000000000000000000000001000000000000000800000000000000BA
:20013C00340000000000000000000000680100000000000000000000010000000000000005
:14015C00010000000000000000000000080000000000000086
:2001700030000000000000000000000098010000040000000000000001000000FFFFFFFFA5
:10019000FF00000001000000080000000000000057
:2001A0002C0000000000000000000000C4010000040000000000000001000000FFFFFFFF4D
:0C01C000FFFFFFFF08000000000000002F
:2001CC0034050000E401000099A1011095A70110A5C2011009B2011045B80110000000000B
:0801EC00000000002E000000DD
:2001F400280000000000000000000000140200000000000000000000FFFFFFFF00000000B1
:080214000800000000000000DA
:20021C00300500003002000069C201106DC101101FC2011095BA011000000000000000008E
:04023C00300000008E
:20024000300500005402000075C20110A9B601109DBF011049B601100000000000000000DE
:040260003100000069
:200264002400000000000000000000008002000000000000000000000000000008000000CC
:040284000000000076
:20028800240000000000000000000000A40200000000000000000000000000000800000084
:0402A8000000000052
:2002AC00240000000000000000000000C8020000000000000100000000000000080000003B
:0402CC00000000002E
:2002D00000000000942900200400000000000000000000002000000070010000300000006C
:2002F0001C020000A82900200400000000000000000000000C000000300400001800000083
:2003100040020000B429002004000000000000000000000024000000480400001800000002
:2003300000000000BC29002004000000000000000000000010000000A00100002C000000C7
:20035000CC010000C429002004000000000000000000000020000000640200002400000005
:20037000FFFFFFFFE42900200400000000000000000000002800000088020000240000006A
:20039000FFFFFFFFF4290020040000000000000000000000580000003C0100003400000047
:2003B000FFFFFFFFFC2900200400000000000000000000001000000060040000180000005C
:2003D000FFFFFFFF042A00200400000000000000000000001C000000AC02000024000000D1
:2003F000FFFFFFFF202A002004000000000000000000000038000000F4010000280000002E
:20041000FFFFFFFF282A002004000000000000000000000054000000000100003C000000C9
:1804300018000000000000000000000040040000080000000000000050
:1804480018000000000000000000000058040000080000000000000020
:18046000180000000000000000000000700400000800000000000000F0
:0804780001000000E482000015
:0404800007F0C0B809
:040484000100000073
:0404880000000C0064
:04048C0000000D005F
:040490003200000036
:040494000200000062
:04049800042E00200E
:04049C00000200005A
:0404A0000000000058
:0404A40001CA011078
:0404A8000000000050
:0404AC00000000004C
:0404B0000800000040
:0404B4000000200024
:0404B800CC2D002027
:0404BC00010000003B
:0404C000CC29002023
:0404C400080000002C
:0404C8000000000030
:0404CC00000000002C
:0404D0000000000028
:0404D4000000000024
:0404D8000000000020
:0404DC00010000001B
:0404E000642E002066
:0404E400060000000E
:0404E800010000000F
:0404EC00FC2C0020C4
:0404F0000000000008
:0404F4000000000004
:0404F80000020000FE
:0404FC0000000000FC
:02050000704742
:020502002A00CD
:020504000100F4
:020506002500CE
:020508003000C1
:02050A003100BE
:02050C002E00BF
:02050E000100EA
:0105100001E9
:080514000300000098820000C2
:08051C000000000000000000D7
:0405240000000100D2
:0405280000000300CC
:04052C0087C401106F
:04053000380500008A
:040534003805000086
:0405380000000000BF
:04053C00800000003B
:040540008000000037
:0405440000000000B3
:04054800CC2900209A
:04054C009D7A000094
:040550002000000087
:0405540054820000CD
:0405580048810000D6
:04055C000DC30110BA
:040560001B39000043
:040564001B47000031
:0405680099C801101D
:04056C009BC8011017
:040570000000000087
:040574001F810000E3
:04057800C48000003B
:04057C00DC8000001F
:04058000AC8000004B
:0205840008006D
:0205860009006A
:02058800010070
:02058A0000006F
:01058C00016D
:040590000000000067
:040594000000000063
:04059800000000005F
:04059C00000000005B
:0405A0003D790000A1
:0405A4009162000060
:0405A800E1710000FD
:0405AC00395E0000B4
:0405B0009552000060
:0405B4000D680000CE
:0405B800BD4800003A
:0405BC004576000080
:0405C000AD53000037
:0405C40011C8011049
:0405C80021C8011035
:0405CC000800000023
:0405D0002400000003
:0405D400180000000B
:0405D80028000000F7
:0405DC0020000000FB
:0405E0003C000000DB
:0405E4000C00000007
:0405E80034000000DB
:2005EC002DE9F04F064640F29421012541F22D00ADF10C0DC4F22231C4F2090040F81D5CB1
:20060C0008680028FCD043F6AC7E46F2440AC020C5F2000EC4F20C0AF4464AF8440CDEF86E
:20062C000890DCF8041046F25620C4F20800890807D271460A686FF00F0E4EEA12410170B7
:20064C0001E07221017041F28C38C5F2000858F8D41CC1F304611629A8BF203962469268F9
:20066C0012175118491C11F10A0FB8BF6FF0090100232C4625EAD96201F01F01C4F2203383
:20068C0041F4F851018324EA996E1A60002EC3F808E073D058F83C1CC1F38360C1F38F2700
:2006AC005FEA994167D249F3072CBCF1000F29D549F307214A42B1F1FF3F4FEA620215DA4D
:2006CC007F0805D1400806BF281C2F1C4FF6FF777F080CF1010C05D1400806BF281C2F1C57
:2006EC004FF6FF77521E0CF1010CE9D1490809D37F0805D1400806BF281C2F1C4FF6FF771E
:20070C000CF1010CBCF1000F35DDBCF1020F4FEA6C020CF001031DDB4FF6FF717F0047F02D
:20072C000107B94207D2400040F001000F2892BF2F1C0F200F1C7F0047F00107B94207D2A1
:20074C00400040F001000F2892BF2F1C0F200F1C521EE3D1002B0EDD7F004FF6FF7147F04A
:20076C000107B94207D2400040F001000F2892BF2F1C0F200F1C47EA004703E040F6FF77EC
:20078C00C0F20F0707F04CFA39460022002808BF2A1C48F20007C4F20C0738680028FCD0D4
:2007AC004AF20800C4F20C0001613D600AB107F03DFA002E08BFD82109D058F83C1C58F880
:2007CC003C0CC1F3870100F0030041EA002188B2009040F2FF3200232C214AF20000C4F2BB
:2007EC000C0004F014FF002E1ABF58F8100CC0F30D0B40F2FF3B07F013FA0021002808BF1C
:20080C00291C38680028FCD04AF20800C4F20C00C0F814B03D6009B107F008FA002E04BF30
:20082C004FF0000BC6F6880B0DD058F818BC0BF07C420BF47C010BF47C4011430BF0FC0BCC
:20084C0008434BEA000B07F0EBF90021002808BF291C38680028FCD04AF20800C4F20C0037
:20086C00C0F80CB03D6009B107F0E0F9002E04BF47F28A6BC0F2680B0DD058F81CBC0BF489
:20088C007C020BF47C410BF4707011430BF03F0B08434BEA000B07F0C3F90021002808BF4C
:2008AC00291C38680028FCD04AF20800C4F20C00C0F808B03D6009B107F0B8F9002E3AD0A6
:2008CC0058F8140C43F6AC71C5F200014B68C0F303525B08C0F3034117D243F6AC73C5F281
:2008EC0000031B6843F3032C12EB0C0203D4102A02DB0F2200E0002243F30333C91803D4B1
:20090C00102902DB0F2100E0002141EA021100F47F4200F0F00E0B0400F00F0B222E42EA0E
:20092C0003024EEA02014BEA010B08D300F0804040EA0B0B03E043F6277BC0F2710B07F07C
:20094C006FF90021002808BF291C38680028FCD04AF20800C4F20C00C0F804B03D6009B171
:20096C0007F064F9222E26BFD8F80000C0F30070281C4AF2400BC4F20C0B222E4FEA40008E
:20098C0040F020008BF8090126BFD8F80000C0F34070281C202E40F010008BF809013CBFFC
:2009AC00002001900CD3D8F80C00C20C02F44072800D00F01C0100F003001143084301908C
:2009CC0007F02EF9019A0021002808BF291C38680028FCD04AF20800C4F20C0002623D6062
:2009EC0009B107F023F9202E26BFD8F80C00C0F301500020222E4FEA400040F060008BF80F
:200A0C000C0126BFD8F80000C0F3C06100216FF07F00222E40EAC1008BF8010126BFD8F8C0
:200A2C000000C0F3455100214FF60040202ECFF6FF7040EA8100ABF89C0105D248F200003D
:200A4C00C4F23F0001900BE0D8F80C000003820D00F47C11920500F47040114308430190BF
:200A6C0007F0DEF8019A0021002808BF291C38680028FCD04AF20800C4F20C0002603D6014
:200A8C0009B107F0D3F844204FF0880E8BF8C500002E8BF8C7E01ABFD8F80000C0F3C14197
:200AAC00002140F68406C9F3815041F03001C4F28C3600288BF8C81041D0401E07D0401EBB
:200ACC0037D00420022104F04CFE00214BE0284606F08BFC04460420214604F042FE04201A
:200AEC0006F083FC8442FAD143F6AC70C5F2000050F8040C0104090C4AF8081CC0F3074EF8
:200B0C004AF804ECCAF8005031680029FCD0002240F2B411CAF80020C1F2000109680B6864
:200B2C00000E4FF06022072198474FF48060CBF800000420032104F014FE002113E0042067
:200B4C00294604F00EFE43F2BD704AF8080C4FF086094AF8049CCAF8005030680028FCD014
:200B6C000021CAF8001058F8200C4BF2700342F22C0E41F22D0C47F6180240F29449C4F254
:200B8C000C0300F03F00C4F2090E8BF8CB0FC4F2090C1A80DEF800004AF8441CC4F26029C5
:200BAC004CF81D1C03B0C9F80050BDE8F08FB0B514460D460027A0F201311A2900F2D7813A
:200BCC00DFE811F0C801BB01B001D501700165013C0113010501F700EA00DC00CE00D501A6
:200BEC00D501C000B000A00092008200D501D501D501D5016500D5011B00012D45D142F6C5
:200C0C006E30C2F20000007801283CD042F66F31C2F20001087823780A461370B8B111785C
:200C2C00A9B942F22430C2F200000178032906D00178072903D00078052840F0A28142F2E7
:200C4C001A30C2F20000007806F02BFF99E1002840F097811078002800F0938142F22430CC
:200C6C00C2F200000178012909D00178042906D00178062903D00078052840F08281012048
:200C8C0006F07DFD7DE112277BE1182779E12078012D17D1012815D142F2D410C2F20000C3
:200CAC0006F02FFF60B9384602F0C8FD071C40F0688142F2B010C2F2000007F060F860E142
:200CCC0016275EE118275CE12088022D0AD10A2808DBB0F5486F05DC42F6C831C2F2000126
:200CEC0008804EE118274CE12088022D08D1B0F5FA7F05DA42F6C631C2F20001088040E18B
:200D0C0018273EE12088022D0AD1062808DBB0F5486F05DC42F6C431C2F20001088030E1EE
:200D2C0018272EE12088022D0AD1062808DBB0F5486F05DC42F6C231C2F20001088020E1F0
:200D4C0018271EE1012D09D12078022806DA207842F6C031C2F20001087012E1182710E18E
:200D6C00012D09D12078042806DA207842F22231C2F20001087004E1182702E1012D09D160
:200D8C002078082806DA207842F21F31C2F200010870F6E01827F4E0062D01D01827F0E05A
:200DAC00216842F6B230C2F200000160A1888180E7E0012D09D12078042806DA207842F206
:200DCC002031C2F200010870DBE01827D9E0012D09D12078042806DC207842F22131C2F256
:200DEC0000010870CDE01827CBE0202D01DB1827C7E042F6933039461F22C2F2000003F066
:200E0C0057FF42F6933021462A46C2F2000003F076FA42F69230C2F20000057042F21A32E4
:200E2C000146C2F2000210780A7842F69333C2F20003394604F0E0FE0746A2E0202D01DBA1
:200E4C0018279EE042F6733039461F22C2F2000003F02EFF42F6733021462A46C2F20000F4
:200E6C0003F04DFA42F67230C2F20000057042F21A320146C2F2000210780A7842F67333C4
:200E8C00C2F20003012104F0B7FE074679E0022D01D0182775E0208842F67031C2F2000154
:200EAC0008806EE0012D3BD142F66F30C2F200000078012832D042F66E31C2F200010878DC
:200ECC0023780A46137098B1117889B942F22430C2F200000178022902D00078052850D10C
:200EEC0042F21A30C2F20000007806F0DAFD48E0002846D11078002843D042F22430C2F209
:200F0C0000000178012905D00178042902D00078052836D1012006F032FC32E0122730E089
:200F2C0018272EE0042D01D018272AE0206842F2F021C2F20001086023E0102D01D01827D3
:200F4C001FE042F2942021461022C2F2000003F0D6F916E0102D01D0182712E042F2842082
:200F6C0021461022C2F2000003F0C9F909E0272801DA022D01D0022703E0218805F04EFD5B
:200F8C0007463846B0BDF8B505460024A878002800F08F81801E00F04B81401E012840F296
:200FAC00F080801E00F08C80401E39D0401E03D0083800F0B981BCE142F2D410C2F20000B0
:200FCC0006F0DDFE6878002840F0B381E88842F6CA37C2F200073880288942F6CC36C2F20D
:200FEC0000063080688942F6CE35C2F20005288042F2B010C2F2000006F083FD002840F02C
:20100C00988142F6D831C2F200010868002800F09081086803682A8831883888984788E1CE
:20102C00A88806F073F842F6BA3021460622C2F2000003F03DFE42F6CA30C2F20000048016
:20104C0042F6CC30C2F20000048042F6CE30C2F200000480A87942F6D131C2F20001087022
:20106C0042F2B010C2F2000006F089FE42F2D410C2F2000006F083FE012442F6B8314FF671
:20108C00FF70C2F20001088042F66F30C2F20000007870B9A879082801D1052000E0042020
:2010AC0042F22431C2F200010870204606F067FB3FE142F224310320C2F20001087038E19E
:2010CC006878002846D1281D026842F6BA31C2F200010A6080888880688942F6B831C2F21E
:2010EC000001088042F224310620C2F200010870E88942F6CA31C2F200010880288A42F6B4
:20110C00CC31C2F200010880688A42F6CE31C2F200010880E87842F6D031C2F2000108705D
:20112C0042F6C030C2F20000007801280BD11F2004F0E0FE4FF47A71414342F2B010C2F2DF
:20114C00000005F0AFFBE8786A89291D042304F08FFE14E06878312806D042F224310820EF
:20116C00C2F2000108700AE042F66E30C2F20000047042F224310420C2F20001087001244F
:20118C00D7E02846407800284AD1A878032833D042F67031C2F20001088870B942F66E30B8
:2011AC00C2F200000178012905D042F66F30C2F20000047014E0047012E042F66E3242F68E
:2011CC006F30C2F20002C2F2000012780078104306D0098842F28C10C2F2000005F062FB68
:2011EC0042F22430C2F200000178072901D1062100E00421017019E042F22431C2F2000158
:20120C000878062801D1072008E042F66E30C2F20000007808B1022000E00320087005E0F6
:20122C0042F224310820C2F200010870012480E06878002832D1E878F0B942F22430C2F2EF
:20124C0000000178022929D00178072926D00078062806D142F66F30C2F20000007801289D
:20126C001CD142F28C10C2F2000006F04AFCA8B9012006F084FA11E042F6923142F21A3055
:20128C00C2F20001C2F200000A78007842F69333C2F20003214604F0AFFC68706878002844
:2012AC0047D042F224310820C2F20001087001243FE02C46607870BB42F284220220102147
:2012CC00C2F2000205F064FA42F2942203201021C2F2000205F05CFAE41C216842F2D42009
:2012EC00C2F200000160A188818042F224300121C2F20000017042F6723242F21A30C2F2C6
:20130C000002C2F200001278007842F67333C2F2000304F071FC28B142F224310820C2F2D5
:20132C0000010870012404E028468088052106F0F7FB012C10D142F6D431C2F2000108682B
:20134C0050B10868006838B10868016842F22430C2F2000000788847F8BD70472DE9F84F9A
:20136C00C64DC74ED5F8EF1FCC4C7368D5F8F30F8843C5F8F30F002BC5F8FF1F00F011818A
:20138C007788012B00F0D680DFF8FCB2BF4FDFF800A3DFF80093DFF80083022B72D0032B62
:2013AC0040F06A810024B06855F8312C74600028A2F5C062B8BF404211460029B8BF4942F0
:2013CC0088422EDA111C54BF02206FF00100B26900EB4100032190FBF1F18918B161F36887
:2013EC00706998420BD0B1F11002B8BF524230691038B8BF40428242B8BF88B209DB98B217
:20140C000090A04830214FF47F42082304F0FFF8308A00909B4804214FF4F802122304F025
:20142C00F6F85846046001688908FCD20460012644600E203E6002F06BFA50460468EFF3B2
:20144C00118584F3118849460820B0FA80F00A1AD07F431E0128D37704D14246106820F0DD
:20146C000800106085F31188EFF3118384F311880420B0FA80F0091AC87F421E0128CA77DF
:20148C0054D14EE055F8310CB0F5C06F17D00327776001F091FE45F8397C002727602068FF
:2014AC008008FCD27748394660220523009104F0AEF80126266020688008FCD364E00021C6
:2014CC0071605846016002689208FCD20160012641600E203E6002F01BFA50460468EFF37E
:2014EC00118584F3118849460820B0FA80F00A1AD07F431E0128D37704D14246106820F03D
:20150C000800106085F31188EFF3118384F311880420B0FA80F0091AC87F421E0128CA773E
:20152C0004D14246106820F00400106083F31188BDE8F88F55F8312C02214BF2F52071601B
:20154C005043000A37B95649096821F07F414018400801E0002171806060000CA06001268B
:20156C00E660032745F8397C0027276020688008FCD24448394660220523009104F047F8F8
:20158C00266020688008FCD345F8216C45F8397C0820C5F8FF0FC5F8F30F45F8396CBDE8E5
:2015AC00F88F40480068006801462020884741F61D574FF002080F2045F82D0C00214FF4ED
:2015CC00C072072345F8297C2E48CDF8008004F01EF8012744F8047C54F8040C8008FBD366
:2015EC00308845F81D7C012821D0032045F8390C4FF00009C4F8009020688008FCD22148B7
:20160C00494660220523009104F001F8276020688008FCD345F8217C45F8399C0820C5F8D0
:20162C00FF0FC5F8F30F45F8397C474623E04FF00009C4F80C90032045F8390CC4F80090BE
:20164C0020688008FCD20F48CDF8008049466022052303F0DCFF276020688008FCD3202057
:20166C0045F8210C45F8399C0824C5F8FF4FC5F8F34F45F8397C7760BDE8F88F39400C40F2
:20168C00042F002000A00C4034600C4004800C40DC8200007B290020DC2B002038600C4022
:2016AC0010200940A00100102DE9F04F5FEA0009ADF11C0D00F05581AC480068EFF31182EF
:2016CC0080F31188DFF8C8B29BF80400012818BF012003D1022100208BF8041082F311882D
:2016EC00012800F03C8106F035FC0390A948046804EB0B0006F02AFC4FF00008464637468B
:20170C000BEB0401CDF810800191B0B90C46084606F018FC0546A868400808D3E868296968
:20172C00024601209047C0B2002840F01081284606F004FC0546AC42EDD1002F40F00B81BC
:20174C0006F0F8FB0290059789480760012005F04CFE012804D1404604F054FD4FF00108BD
:20176C00844F38688068014630468847864819300090D0F8FF0FB9F1000F00F08C80864C72
:20178C000A34E57905B10126A5790DB146F0020665790DB146F00406DFF8DC9165782DB1CF
:2017AC00B86A006B49460246C88D904725782DB1B86A006B49460246488D90476F49012029
:2017CC000860B86A8069014646F0200088476C4DDBF80010286840F001002860480813D204
:2017EC00684806F0C7F98246BAF1040FF8D0D5F8180220F00300C5F81802B86C4068024644
:20180C0060480321904701E001200490059800F0FEFEB86A0099806BD1F8FF1F804704980A
:20182C0058B9B86C40680246564851469047D5F8180240F00300C5F81802386880680146AB
:20184C0001208847504801688909FCD3B8F1010F02D1012004F0D6FCB86A4069014630462F
:20186C008847B86A406B0146304688470128F8D166782EB1B86AC06A49460246C88D904736
:20188C0026782EB1B86AC06A49460246488D90473A49012008603A480168032221F00101C1
:2018AC00016001988BF8042006F050FB0028059818BF01200125C0B9019C204606F042FBA8
:2018CC000646B068C00806D3F0683169024604209047C0B230B9304606F030FB0646B4428E
:2018EC00EFD102E02948006880472148009F0560D7F8FF0F06F09AF9019806F027FB059F72
:20190C00C8B9019C204606F01DFB0646B068000906D3F0683169024608209047C0B230B94F
:20192C00304606F00BFB0646B442EFD103E0174800688047022702988BF8045006F0F6FA36
:20194C0003F040FC039806F0EDFA38460AE00F4800688047022701208BF80400F2E7062016
:20196C0000E0022007B0BDE8F08FC046DC8200000C40094090010010608000002820086054
:20198C000C2008400040034014100940D0820000DC2B0020CC820000682900202DE9F04118
:2019AC00ADF1600D42F21C3042F21031C2F20000C2F2000105F07FF942F2B020C2F200008D
:2019CC0006F0DFF842F2E821C2F2000108600025042747F26F7142F268100A222B4600958D
:2019EC00C0F20001C2F20000019703F034FD03F005FD1F20062105F011F801248DF808406D
:201A0C00ADF80A508DF80C400626ADF80E60ADF810600520ADF812004FF47A70ADF81400D4
:201A2C0040F2053002AA2146FFF7C1F840F2063002210DF10A02FFF7BAF842F64C424FF42B
:201A4C0042701921C2F20002FFF7B1F842F6654240F207300721C2F20002FFF7A8F84FF43A
:201A6C00447003AA2146FFF7A2F840F2113002210DF10E02FFF79BF840F21230022104AA90
:201A8C00FFF795F840F2133002210DF11202FFF78EF84FF44570022105AAFFF788F842F619
:201AAC006C4228461521C2F2000205F0D5FD4FF0A0083046414604F0B1FF0720414604F021
:201ACC00ADFF0820414604F0A9FF0920414604F0A5FF06958DF81C408DF81D408DF81E506A
:201AEC008DF81F404FF48160394606AA04F054FD4FF4806007AA214604F04EFD40F2024070
:201B0C000DF11D02214604F047FD40F2034021460DF11E0204F040FD40F2064021460DF1F5
:201B2C001F0204F039FD4FF0FF3006F0D8F84FF0FF3006F0ECF805F0A6FE4FF0FF3003F0D8
:201B4C0001FF13A82946122203F0B2F84FF002088DF8208003268DF8216048F297110EA849
:201B6C001222C0F2000102F0CAFB48F2A91109A81222C0F2000102F0C2FB13AA28462146EE
:201B8C0001F095FF204608AA014601F090FF404621460DF1210201F08AFF0EAA30461221EC
:201BAC0001F085FF3846122109AA01F080FF42F6A440C2F2000005F027FF42F69840C2F221
:201BCC00000005F01BFB42F69C40C2F2000005F0B1FA42F21C34C2F200042078FEF786FA3D
:201BEC00207806F078F818B0BDE8F08138B50C4601460025A0F540701D281FD8DFE810F00A
:201C0C00FA00F100E800E100D800D100CA00BD00B000A900A200990092008B0084001E0081
:201C2C007D0076006F0068006100580051004A0043001E003C0035002E002700272901DB27
:201C4C000225DDE0084604F055F92080D8E042F6D130C2F2000000782070D1E042F6D030CE
:201C6C00C2F2000000782070CAE042F66F30C2F2000000782070C3E042F22430C2F2000080
:201C8C0000782070BCE042F6CE30C2F2000000882080B5E042F6CC30C2F2000000882080DD
:201CAC00AEE042F6CA30C2F2000000882080A7E042F6BA30C2F20000016821608088A0800D
:201CCC009EE042F6C830C2F200000088208097E042F6C630C2F200000088208090E042F645
:201CEC00C430C2F200000088208089E042F6C230C2F200000088208082E042F6C030C2F25B
:201D0C000000007820807BE042F6B830C2F200000088208074E042F22230C2F20000007842
:201D2C0020706DE042F21F30C2F200000078207066E042F6B230C2F2000001682160808875
:201D4C00A0805DE042F22030C2F200000078207056E042F22130C2F20000007820704FE034
:201D6C0042F69230C2F20000027842F69331C2F20001204602F0C3FA42E042F67230C2F2B9
:201D8C000000027842F67331C2F20001204602F0B6FA35E042F67030C2F20000008820805B
:201DAC002EE042F66E30C2F200000078207027E042F2D420C2F20000016821608088A08082
:201DCC001EE042F2F020C2F200000068206017E042F2942120461022C2F2000102F08FFA71
:201DEC000EE042F2842120461022C2F2000102F086FA05E042F22330C2F200000078207029
:201E0C00284638BD2DE98043ADF1180D4FF0000CD0F80490D0F8088099F80C00012842D0E8
:201E2C0098F8100040F2004ECAF2800E4EEA00014DF82C100CF1010098F8112044F200017C
:201E4C0000F1010CC8F2000111434DF8201099F8187037F0010709D198F8121060464EEA42
:201E6C00010E00F1010C4DF820E00BE098F8122040F200406146CAF2C00001F1010C104370
:201E8C004DF8210099F85900FF2831D099F8592040F200406146CAF2C00001F1010C1043CD
:201EAC004DF8210024E098F810000CF1010140F000404DF82C0098F8112040F20040CAF23D
:201ECC00800010434A1C4DF8210098F81200531C40F000404DF8220099F8592042F2000130
:201EEC001846C8F2000100F1010C11434DF82010FF204DF82C00694609F15C0002F06CF80B
:201F0C00C9F8680008B900207FE099F80C0048F22801C0F2000151F8200001283CD0D8F82B
:201F2C000000B0F1804F01D10A2200E02222D9F8680098F8101004F038FFD8F80000B0F17E
:201F4C00804F01D1092200E02122D9F8680098F8111004F02AFFD8F80000B0F1804F01D16D
:201F6C000C2200E02422D9F8680098F8121004F01CFF99F85900FF2846D0D8F80000B0F16F
:201F8C00804F01D10B2200E02322D9F8680099F8591004F00AFF37E0D8F80000B0F1804FBB
:201FAC0001D1092200E02122D9F8680098F8101004F0FBFED8F80000B0F1804F01D10A22E1
:201FCC0000E02222D9F8680098F8111004F0EDFED8F80000B0F1804F01D10C2200E02422A2
:201FEC00D9F8680098F8121004F0DFFED8F80000B0F1804F01D10B2200E02322D9F868007C
:20200C0099F8591004F0D1FE012006B0BDE880832DE9F04FADF15C0D80464FF0000904F01A
:20202C00E3FC012805D105F022FC022801D149F0010943F6B470C5F200000068C0F3815064
:20204C00012809D143F6A870C5F2000001680120090E884040EA090942F21E30C2F200008E
:20206C00007841F28020C4F20800006842F2E424C2F20004C0F34600206004F0B5FC0128A8
:20208C0002D12068401C206020680027B84209D942F2F812FF21C2F20002D15520687F1C15
:2020AC00B842FAD84FF0000A574658F8270000F0FF00FF282AD042F2F8120121C2F20002C5
:2020CC0058F82700236800F0FF00834208D958F8270000F0FF0001FA00F019EA000F01D029
:2020EC00022095E058F8270000F0FF0001FA00F040EA0A0A58F8270000F0FF0017547F1C42
:20210C0058F8270000F0FF00FF28D9D1092001F029FB42F20430C2F20000C0F800800021C9
:20212C002422082301A805F0F9FE01258DF81C5042F2542001AA2946C2F2000005F0EAFE23
:20214C00204601680027B9423AD941F6B0742E46BB46C2F2000406FA07F010EA090F24D1E9
:20216C0006FA07F010EA0A0F0AD107F0FF0147F6007041F4C041C6F2C77001F031FC0CE09B
:20218C0042F2F810C2F20000C05D58F8201047F60070C6F2C77001F023FCF8B24FF0FF31E1
:2021AC0005F0D1FA44F827B002E0042044F8270042F2E420C2F2000000687F1CB842CAD84C
:2021CC000AA800213022082305F0A0FE002442F2382045F21B7210210AAB0094C2F200006E
:2021EC00C0F2000205F08EFE43F20001C4F20901086820F4F85040F40050086044F20C00AE
:20220C00C4F2090005600820C4F209000560204617B0BDE8F08F2DE9F04FADF10C0D42F2B1
:20222C00BC2042F68C41C2F20000C2F2000101F0D3FE42F20834C2F200042060206840F224
:20224C008141C0F2000105F0F7FC20681721C8F2050104F084F9FFF7A1FB002001460246E3
:20226C0005F04CFE42F2EC21C2F20001086001F04DFD802042F2FF416A4603F029FD8020FD
:20228C0041F68F516A4603F023FD802042F608516A4603F01DFD80204FF43C516A4603F057
:2022AC0017FD802042F210716A4603F011FD802042F610616A4603F00BFD80204FF462516E
:2022CC006A4603F005FD40F2B814C1F2000420684169022088472068416B02208847022826
:2022EC00F9D02068C1694FF440708847012442F22800C6F20800046040F2B410C1F2000047
:20230C000068C36C1B211C2242F20000C4F20000984740F2AC10C1F200000068036846F627
:20232C0000410022C0F2DC2142F20000C4F2000098473E200021292203F0EDFC3D2003218F
:20234C00292203F0E8FC0A200021292203F0E3FC42F2E82842F2183942F21C364FF6FF75DF
:20236C004FF0000BC2F20008C2F20009C2F20006C2464FF0FF3005F025F800283AD1CDF854
:20238C0008B00DF1060001A902AA04F0AEF8D8B92746BDF80600102811D13088BDF8041031
:2023AC0088420CD1029801888D4205D14088000905D303F057F902E005F01CFB07460298E1
:2023CC0010B10FB104F0D8FFDAF8000005F0BEFD80B9D8F8000005F07BF9071C04D005F0C5
:2023EC002CFA384604F069FFDAF8000005F0AEFD0028EED099F80000C008BAD399F8000002
:20240C0000F0FB0089F8000042F26810C2F2000005F0B3FC03F0A2FCABE72DE9F0411C4674
:20242C0015468C4208BF854282BF00230022E5E0002C08BF002D0AD100290EBF00286FF016
:20244C0000006FF0000100F0E1F8BDE8F0815FF000085FF0000E002C08BF8D429CBF2C1C18
:20246C000025070C47EA01470E0CB44208BFBD429EBF5FEA044444EA15445FEA0545070AB0
:20248C0047EA01670E0AB44208BFBD429EBF5FEA042444EA15645FEA0525470847EAC17723
:2024AC004E08B44208BFBD4200F29380870847EA81778E08B44208BFBD427CD8C70847EA9B
:2024CC004177CE08B44208BFBD4266D8070947EA01770E09B44208BFBD4250D8470947EA33
:2024EC00C1674E09B44208BFBD423AD8870947EA81678E09B44208BFBD4224D8C70947EA8A
:20250C004167CE09B44208BFBD420DD8E60146EA5566EF01B14208BFB84201D3C01BB14178
:20252C0058EB08085EEB0E0EA60146EA95664FEA8517B14208BFB84201D3C01BB14158EB98
:20254C0008084EEB0E0E660146EAD5666F01B14208BFB84201D3C01BB14158EB08084EEBE7
:20256C000E0E260146EA15762F01B14208BFB84201D3C01BB14158EB08085EEB0E0EE6002E
:20258C0046EA5576EF00B14208BFB84201D3C01BB14158EB08084EEB0E0EA60046EA957667
:2025AC00AF00B14208BFB84201D3C01BB14158EB08084EEB0E0E660046EAD5766F00B14220
:2025CC0008BFB84201D3C01BB14158EB08085EEB0E0EA14208BFA84201D3401BA14158EBED
:2025EC0008085EEB0E0EA34208BFAA423EBF2D0A45EA0465240A89D3734642461E4617466A
:20260C000B46024631463846BDE8F0817047F8B504460020C4F209000068800880F0BB80E2
:20262C0004F0F4FC42F22421C4F208010A68002112F0030F18BF0121D20828BF41F00201DD
:20264C00002C18BF41F0040142F2DC26C2F2000696F90720821A052A04DAB2798A4208BF28
:20266C00B2886FD041F29C340F28A0F10F02C5F2000424DB02EB02121712072F88BF07276A
:20268C003D46062D88BF062554F825C00423A64603EB85035EF80330CD08A3EB0C0303F05E
:2026AC00FF0C24BFC3F30725AC448D0824BFC3F30745AC444D0805D30CEB136C02E04FF020
:2026CC00000C674654F82730CC0803F0FF0524BFC3F3072425448C0824BFC3F307442544B9
:2026EC004C0828BF05EB1365A2EB07221FFA8CF3534380330022082B88BF012243F6B47375
:20270C00C5F200031C681B684FF4D07C34275219241703F0FF0307FB14C45C434FF6FF7337
:20272C00B4FBF2F2934238BF1A1C802892B2B28005DA10F1800F03DA6FF07F0000E07F2031
:20274C00F071B17142F20800C4F2090001681F2A4FF00000316008D340F2FF11914206D2A5
:20276C005208401C9142FBD301E01F22B2800F3A4FF600714FF0350E1209C8F2A401C4F2F1
:20278C00090E40EAC2000143CEF8FB1F4FF0000CCEF8FFCFF8BD42F2E2224FF6FD5008217F
:2027AC0041F2300EC2F20002C0F2A4001170C4F2090ECEF80000F8BD2DE9F04190460E4656
:2027CC000025082800F2C080DFE800F0B19C87725D48331205C0072E01D01825B5E011468B
:2027EC0042F6DA203246C2F2000001F088FDACE0304604F081FB071C19D042F6D424C2F297
:20280C000004206842F6C621C2F20001814202D0206804F03FFD38464146324601F06FFD25
:20282C00276042F6D820C2F2000006708DE013258BE0142E01DD182587E042F6B020294660
:20284C001522C2F2000002F033FA42F6B02041463246C2F2000001F052FD76E0142E01DDF1
:20286C00182572E042F69A2029461522C2F2000002F01EFA42F69A2041463246C2F20000C2
:20288C0001F03DFD61E0142E01DD18255DE042F6842029461522C2F2000002F009FA42F6C3
:2028AC00842041463246C2F2000001F028FD4CE0142E01DD182548E042F66E202946152282
:2028CC00C2F2000002F0F4F942F66E2041463246C2F2000001F013FD37E0142E01DD18256B
:2028EC0033E042F6582029461522C2F2000002F0DFF942F6582041463246C2F2000001F091
:20290C00FEFC22E0142E01DD18251EE042F6422029461522C2F2000002F0CAF942F6422011
:20292C0041463246C2F2000001F0E9FC0DE0082E01D0182509E0114642F639203246C2F2D4
:20294C00000001F0DCFC00E002252846BDE8F0812DE9F04FADF1140D00F0F3F942F66C394A
:20296C0042F6D43A42F66F3442F21A3742F2243B0025C2F20009C2F2000AC2F20004C2F206
:20298C000007C2F2000B4E46C8464FF0FF3004F006FD40BB01950DF10200694601AA03F080
:2029AC0087FD00BBBDF80200102818D13888BDF80010884213D1019801884FF6FF728A421D
:2029CC000BD14088C00B0AD3042042F2F0220146C2F2000203F0DCFE01E002F095FD01986D
:2029EC0008B104F0B6FC99F8000040084ED399F8000000F0FE0089F80000237842F66E3001
:202A0C00C2F200000078034340D02378C3B942F22130C2F2000000788DF8080042F220304F
:202A2C00C2F2000000788DF8090042F6B231C2F200010A680DF10A0002608988818002E030
:202A4C0003208DF8080042F21F30C2F2000000788DF8100042F22230C2F2000000788DF83F
:202A6C001100387802A905F054F878B108208BF80000DAF800304BB1DAF8000003682BB1B2
:202A8C005046006801689BF8000088473078800808D398F8000000F0FD0088F800002846EB
:202AAC0000F0CCFE48460078C008FFF46EAF98F8000000F0FB0088F8000003F006F864E73B
:202ACC002DE9F043ADF1540D0F460446D4F80480D4F8089005F00EFA98F8A410012903D110
:202AEC0005F004FA002090E0012688F8A46005F0FDF91FB90DA804F049FF0DAF0025C8F847
:202B0C0054503869C8F810007869C8F81400387E88F81800387B88F80C00387888F8000022
:202B2C007868C8F8040088F8705078692946092800D3314688F8581099F8050000F012FE5C
:202B4C00204602F00DFB99F8130088F859002046FFF758F958B999F8050000F0D9FE05F07C
:202B6C00C9F988F8A45005F0C1F928464DE001A829463022082305F0C9F90694009599F8BD
:202B8C00041042F6796208F11C0001ABC0F2000205F0B8F998F80000A0B901A829462422A0
:202BAC00082305F0BBF98DF81C6008F13800294601AA05F0AFF947F6F340C0F20000C8F86A
:202BCC00080002E0B868C8F8080002F0BBFBC8F86C0098F80C0001280BD1D8F8680046F232
:202BEC00F561C0F2000105F027F8D8F8680000B1846047F6694208F190002346009504214B
:202C0C00C0F2000204F01AF9204615B0BDE8F0832DE98043D0F80490D0F80880088899F804
:202C2C00582090401FFA80FCD8F80000B0F1804F04D140F2304EC2F2000E03E040F2005EB1
:202C4C00C2F2000E8F6877B999F8580048F25802C0F2000252F82000CEF8080009F17200AA
:202C6C00CEF804000EE099F8580048F25002C0F2000252F82000CEF8080088686044401E3D
:202C8C00CEF80400D8F800000830CEF800000868DEF80830020143F6F070103A02401A438D
:202CAC00CEF80820D8F80020B2F1804F04D140F2404EC2F2000E03E040F2105EC2F2000E1C
:202CCC004F6877B999F8582048F25803C0F2000353F82220CEF8082008F10602CEF800204C
:202CEC000FE099F8582048F24803C0F2000353F82220CEF808204A689444ACF1010CCEF821
:202D0C0000C0D8F800200832CEF804200968DEF808200901103908401043CEF80800D8F8D8
:202D2C000810D8F80C00D9F86C200843516809688862D8F80010486A40F003004862BDE8C3
:202D4C008083F0B5ADF10C0D42F21A3042F20C31C2F20000C2F2000103F094FF002442F2D2
:202D6C002430C2F20000047042F6B8314FF6FF70C2F20001088003F002FB42F22531C2F28B
:202D8C000001087047F28B71012022460094C0F200011346019042F28C10C2F2000002F049
:202DAC005AFB42F2B01047F28B71022622460094C2F20000C0F200011346019602F04BFBD6
:202DCC0042F2D41047F28B71042522460094C2F20000C0F200011346019502F03CFB42F2C2
:202DEC002330C2F20000057042F2842010222146C2F2000001F05CFF42F294201022214659
:202E0C00C2F2000001F054FF42F2F027C2F200073C6042F221312046C2F20001087042F2BF
:202E2C002031C2F20001087042F21F320721C2F20002117042F22231C2F20001087042F23C
:202E4C0084221021C2F20002304603F085FC42F2942203201021C2F2000203F07DFC284621
:202E6C003A46014603F078FC03B0F0BD2DE9F0478046D8F80490D8F808100868C0690A684E
:202E8C001062400851D2D9F86C00CA6840680068D0F8040502420BD00A68506A20F002009C
:202EAC005062D9F86C20C86852681268C2F80405D9F86C008A6840680068D0F8040502427C
:202ECC0063D00A68506A20F001005062D9F86C20886851680968C1F80405D9F85400002442
:202EEC000474D9F85460D9F85400D0F804A005F001F8074642F22635C2F20005287848B11C
:202F0C001AF0704F02D1102003F0B4FA042003F0B1FA2C70384604F0E9FFC9F85440D9F85A
:202F2C0008204046314690472FE00A68506920F001005061D9F8547027BB0A68506820F0DC
:202F4C00020050600A68506A20F003005062D9F86C30C8688A6810435A681268C2F80405E1
:202F6C000868B0F1804F02D14FF4807001E040F201107821C1F2000109688847404602F036
:202F8C00EFF802E0404600F093F8BDE8F0872DE9984306AF8E46B7F80490398810464FF02C
:202FAC000008DEF80440DEF804206478127802EB042292B242F62324121B3CD0521E052AD5
:202FCC0056D9921F19D0263A4DD1072912D8C1F107024A4503D8C1F107021A8001E0A3F88E
:202FEC0000901A8842F6DA23C2F20003591801F086F95AE04FF0070857E042F6D824C2F21F
:20300C00000422788A4213DB2278521A4A4503DC2278521A1A8001E0A3F8009042F6D422FE
:20302C00C2F2000214681A88091901F068F93CE04FF0070839E0082912D8C1F108024A4553
:20304C0003D8C1F108021A8001E0A3F800901A8842F63923C2F20003591801F050F924E08B
:20306C004FF0070821E0A3F800804FF00A081CE0DEF80CC04FF0FF32521C1CF8017B002F4E
:20308C00FAD192B28A420EDB541A4C4502DC521A1A8001E0A3F80090DEF80C401A8809198B
:2030AC0001F02DF901E04FF007084046BDE898832DE9F0478046D8F80460D8F8087004F0F5
:2030CC0019FF716D002972D004F010FF3968486820F0020048603968486A20F00300486265
:2030EC00BA68F868F16E104349680968C1F804053968486920F00100486138680125056273
:20310C003868B0F1804F02D14FF4807001E040F201107821C1F2000109688847404602F064
:20312C001FF8706DD0F804A004F0E4FE814642F22634C2F20004207850B11AF0704F02D10B
:20314C00102003F097F9042003F094F900202070484604F0CBFE706D007C042802D0706DDD
:20316C0003210174BA68F868F16E1043496809688540CD623868B0F1804F04D140F23041D8
:20318C00C2F2000103E040F20051C2F200018A68706D716D00689204A0EB9250401E086075
:2031AC00716D00207065B2684046904701E004F09DFEBDE8F08770472DE9F843804604F06B
:2031CC002FFD002100B901213A4D2D1F28680028FCD0DFF8DC90012609F10407FC6A2E6001
:2031EC0009B104F023FD3448C4F3072100F10804616004F015FD0146002001B930460146F8
:20320C0028680028FCD03F682E6009B104F00EFDC7F38441A8F5C060A160B8F5C06F206097
:20322C00B4BF6FF001030223626803EB4003032093FBF0F00918104602290FDB1E290BDB42
:20324C003F28B9BF521C401C3F22101CE2603029B4BF10391F210DE0E0600BE010F13F0F2E
:20326C00ACBF401E6FF03F00E06011F1100FACBF10310021216180B24FF47F420823302179
:20328C000090484602F0C3F90096484604214FF40032112302F0BBF9208A04214FF4F802B2
:2032AC0012230090484602F0B2F9BDE8F883C04600A00C4004800C40042F00202DE9F04394
:2032CC00ADF11C0D804604F00DFE02F09BFA0746002500952C4604F0C7FC30F0010002D1AB
:2032EC006FF0040068E017B96FF0040064E0D8F8040080B1D8F80400B0F1FF3F07D0D8F841
:20330C00040001A903F08CFC061C05D054E04FF0FF30019000E00195012604F0DFFD019947
:20332C0001EB0009786804F0D5FD002838D003A803F0DCFBF8B9BDF8100002A903F05DF8D8
:20334C00A8B9D8F80830BDF80800BDF81210059A984760B1BDF80800A8F80C00BDF81200A5
:20336C00A8F80E000598C8F810002E4618E00599684603F0D7F8641C0198B0F1FF3F09D0DB
:20338C0040B104F0ABFDB9EB000009D00199814206D301907868019904F09CFD0028C6D18A
:2033AC00009907F1080003F054FC24B1786804F08DFD641EFAD1304607B0BDE8F083FEE77B
:2033CC0038482DE9FC4700680068014620208847354DDFF8D8A04FF002080F2000214FF435
:2033EC00C072072345F82D0C41F61D5045F8290C5046CDF8008002F00AF92D4C012644F82D
:20340C00046C54F8040C8008FBD3DFF8A890B9F8000045F81D6C01281FD0032045F8390C3B
:20342C000027276020688008FCD23946504660220523009102F0EBF8266020688008FCD36A
:20344C0045F8216C45F8397C0820C5F8FF0FC5F8F30F45F8396C464620E00027E7600320F3
:20346C0045F8390C276020688008FCD2CDF80080504639466022052302F0C9F82660206894
:20348C008008FCD3202045F8210C45F8397C0824C5F8FF4FC5F8F34F45F8396CC9F80460F0
:2034AC00BDE8FC87A001001039400C4000A00C4038600C40042F0020F8B504F0B1FB314C75
:2034CC00256805F00C000C2855D0E8082ED22E480068EFF3118780F311882C4EB0680021F2
:2034EC0004F0F0FC7169B269091A8A4238BF002187F3118826480068884217D22548264A6B
:20350C00264D036812682868B3FBF2F22018891A04F0D4FC2868201804F0CCFC0120FEF7EC
:20352C00C3F82868201804F0C1FC25E0280922D21B48690939BF016821F00101016841F03E
:20354C00010102460160D2F898004FF0805440F00300C2F89800D4F8B801806901462020C5
:20356C008847D4F8B8010F4C806B2168804701202060206800E030BF04F058FB01F08AFD9E
:20358C00F8BDC046DC2B0020DC82000078010020D4820000D8820000E0820000C4820000EE
:2035AC008C2108402C2009402DE9F04FADF1540D15460F46064648F2A42BC0F2000BDBF88C
:2035CC000040DBF8049004F095FC2188012903D104F08CFC002053E04FF0010AA4F800A0B7
:2035EC0004F084FC1DB9684604F0C5F96D4606B10FB9002044E003A804F0C8F968680790D8
:20360C00287A8DF8240099F8070003A904F008F908B9002034E060602868A060A66284F851
:20362C002C700021242208230BA804F077FC4FF0000847450FDD4FEA880051460BAA00EB7F
:20364C0048103018083004F065FC08F101085FFA88F84745EFDC51468DF8441004F10C008E
:20366C000BAA04F057FC584601F066F938B1D9F800105846112202F015F9584600E000201B
:20368C0015B0BDE8F08F70B5ADF1080D42F2A0004FF48065C4F20200056040F2C414C1F287
:2036AC000004206842684FF440714FF0804090472068426800214FF08040904720684268A3
:2036CC0000214FF0804090472068426800214FF0804090470C21C4F2000108684009FCD253
:2036EC0042F29000C4F2020005602068C26869464FF0804090479DF8000041F6F466C2F2CC
:20370C00000630702068C26869464FF0804090479DF8000041F6F565C2F2000528702068C1
:20372C00C26869464FF0804090479DF8000028709DF8010030702068C26869464FF080400B
:20374C0090479DF8000041F6F761C2F2000108709DF8010041F6F661C2F20001087002B032
:20376C0070BDFEE72DE9F04105462E480068EFF3118880F311882C4A505D411C00285155E6
:20378C0049D12A4CA900675C07F03F003F280C4401D0FFF7E7FF607800F03F003F2801D048
:2037AC00FFF7E0FF668837F07F0019D1F80911D24FF08054D4F8B8014069014630468847F9
:2037CC0004F5DC742068406B0146304688470128F8D120E0164850F82610012088471AE01D
:2037EC004FF08054D4F8B801C069014630468847D4F8B801406A014630468847D4F8B80130
:20380C00C06A01463046884701210A4A0A48116001688908FCD388F31188284603F0C6FCAD
:20382C00BDE8F081DC8200006829002060800000802900202820086028200840F0B5ADF12B
:20384C000C0D054642F6C23442F6CA30C2F20004C2F200002188028891421FDC008842F66B
:20386C00C431C2F200010988814217DB42F6C63042F6CC31C2F20000C2F200010088098867
:20388C0088420BD142F6C83042F6CE31C2F20000C2F2000100880988884234D0052002F0A8
:2038AC0029FB064642F6B830C2F200000088ADF800002088ADF8020042F6C430C2F200005C
:2038CC000088ADF8040042F6C630C2F200000088ADF8060042F6C830C2F200000088ADF885
:2038EC000800684604F0E5F8071C0DD142F6D230C2F200000570314642F2D410C2F200008E
:20390C0002F0D0FF00E01827384603B0F0BDFEE72D492DE9F0410968EFF3118881F3118842
:20392C002A4B195C4A1E01291A5449D12849800045180E5C6F8836F07F0019D1F00911D25D
:20394C004FF08054D4F8B801806901463846884704F5DC742068406B01463846884702280C
:20396C00F8D120E01D4850F82710002088471AE04FF08054D4F8B801006A0146384688470F
:20398C00D4F8B801806A014638468847D4F8B801006B01463846884701210E4A0E48116053
:2039AC0001688908FCD306F03F003F2801D0FFF7AFFF687800F03F003F2801D0FFF7A8FF3D
:2039CC0088F31188BDE8F081DC8200006829002060800000282008602820084080290020B9
:2039EC002DE9984388465FFA88F95FEA180105D346F20001CAF2000181EA080841F2000E36
:203A0C00C4F2080E5EF829C088EA0C010140C1F3006700EA080247F60071C7F607712CEAC7
:203A2C00000C114041EA0C0100F4E022B2F5E02F01D14A0E14D300F4E022174310D001F403
:203A4C00E027B7F5A02707D0B7F5803708D121F4003141F4A02103E021F4803141F4C021D2
:203A6C004EF82910C10D07D342F20002C8F38051C4F2020202F80910000E16D304F03AFA65
:203A8C005FEA186103D3012101FA09F100E0002142F2D003C4F202031A68012404FA09F406
:203AAC00A2431143196004F021FABDE8988310B5ADF1100D0B461146002400284ED0401E89
:203ACC0041D0401E34D0401E0DD0401E51D1122B01D018244EE042F646301222C2F200009E
:203AEC0000F00DFC46E0122B01D0182442E042F622301222C2F2000000F001FC1121FF207F
:203B0C00009145F207110190C0F2000142F21430C2F200000291006842F658032246C2F29F
:203B2C00000342F62231C2F2000100F026F821E0012B01D018241DE0087842F60F31C2F245
:203B4C000001087016E0012B01D0182412E0087842F6FC21C2F2000108700BE0012B01D0D5
:203B6C00182407E0087842F6E921C2F20001087000E00224204604B010BD2DE9F04F09AF2D
:203B8C00ADF1140D054603933C880291BE6897F80490049414464FF0000B25B1081C02D0D1
:203BAC00181C00D00EB9022049E042F22530C2F200000178D846414540DD05EB880ABAF838
:203BCC0000004FF6FF7181422DD09AF8020050B304990398029A03F041FC071C23D09AF821
:203BEC00020040080DD3CDF800900196BAF80000224601213B4600F0E1FE40EA0B005FFA89
:203C0C0080FB9AF8020080080DD3CDF800900196BAF80000224602213B4600F0CFFE40EA90
:203C2C000B005FFA80FB42F22530C2F20000007808F101085FFA88F84045BEDC584605B097
:203C4C00BDE8F08F2DE9F8430D4607467E68D7F80880286808B9002056E004F04BF9716D49
:203C6C0029B104F043F90320287400204CE001242C74756504F03AF996F8700040B196F8E0
:203C8C005920B06E0021C8F20601114302F067FCD8F80010486840F002004860384629469F
:203CAC00FEF7B6FFD8F80010486940F001004861D5F8049004F01EF9804642F22635C2F26E
:203CCC0000052878012809D019F0704F02D1102002F07AFD042002F077FD2C70404604F05D
:203CEC0005F9307828B906F13800716804F0F2F808B1204608E03846FFF7DAF906F13800CE
:203D0C00002104F0E7F80020BDE8F88330B5ADF10C0D40F2B814C1F20004206841690220BE
:203D2C0088472068416B022088470228F9D02068C1694FF48070884742F228010120C6F2A6
:203D4C000801086040F2B414C1F200042068456C14224FF0FF331521162000904FF080405A
:203D6C00A8472068C16B072088472068C16B0A20884742F290008022C4F2020002604FF42E
:203D8C008061016040F2C410C1F200000068046848F28041C0F21E01002303221020009173
:203DAC0046F60041C0F2DC2101904FF08040A0470421C4F20001086840F00200086003B0BB
:203DCC0030BD41F21C3010B5C5F200000468B4F1FF3F08BF002403F021FE40F2844346F272
:203DEC005C01002242F2082E012040F2801CC4F26023C4F20C011A60C4F2043E0860C4F253
:203E0C00283CCEF80000DCF8000038B140F20010C4F2203000682046FCF7E2FB44F204028D
:203E2C00C4F203021068052142F24803C2F20001C4F2030320F003000143116019684FF0A5
:203E4C00000EC0F2391E6FF35B414EEA01000421C4F2090118600868C0F30130012809D154
:203E6C000A684FF6FF70CFF6FC40104040F400320A60086010BD2DE9D04105AFADF10C0D28
:203E8C003E88844600274FF0FF08087A800901D3082046E00878022831D14C684868647800
:203EAC00007800EB042080B242F60214001B1ED04DF2EF64001B01D0801E16D11EB9012BE0
:203ECC0002D00D2700E00B27D7B9C86812780270C86842F6E921C2F20001814202D14FF006
:203EEC0000080DE04FF002080AE00A2708E0009601246046019401F05FFB074600E00127DF
:203F0C00B8F1FF0F0CD042F6E421C2F20001086830B10868006818B10868016840468847F0
:203F2C00384603B0BDE8D08129482DE9F84FD0F80090EFF3118589F31188264CA0680121FF
:203F4C0003F0C0FF4FF0010A4FF00008064621686769A4F81CA02068A4F81E80791A321A74
:203F6C008A42A6EB07062DD385F311884546EF195046394603F096FF761B0546B542F6D9E8
:203F8C00EFF3118B89F31188E08B012804D14046394603F087FF0546B5F1FF3F06D0A1698C
:203FAC00AD1BA94238BF0D1CE91901E0A5697919284603F073FFA4F820A0A4F81C805D4695
:203FCC00276001E0A4F81C8085F31188BDE8F88FDC820000780100202DE9F8430C46074611
:203FEC0042F254264FF0FF31C2F20006304603F071FF41F6B07542F2E4234FF00008012006
:20400C00C2F20005C2F2000301E008F101085CB114F82810FF2907D01A688A4203D955F87A
:20402C0021100029F1D0002008B34FF00008C7F80080C7F80480C7F808804FF00109BCB1B8
:20404C0014F82810FF2913D045F821707A6809FA01F01043786054F8282047F60071384676
:20406C00C6F2C77102F008FB08F10108E7E70027304603F02BFF3846BDE8F883F8B5264C08
:20408C002068EFF3118680F3118824491D4D0B680420B0FA80F043F00403281A1F3002783A
:2040AC000B60521C027086F311882068EFF3118380F311880A680820B0FA80F042F008029D
:2040CC002D1AE87F0A60401CE87783F311880E20FFF748FB0C480068C0F38150032814BF4D
:2040EC000020012009490A4A088017683FB9094C402020600123D36100204860F8BD0120A3
:20410C00F8BDC0467B290020B43F0050042F002004800C402C500C40DC820000DC2B002061
:20412C00B0B5ADF1280D0446A06858BB0C20FBF77FFF071C02D16FF003003FE0002124225C
:20414C000823684603F0A6FE0023ADF8103005930697616847F6BB406A46C0F2000003F050
:20416C0095FE3860386838B903F085FA384602F0A3FC6FF0030021E0E06878602069B860D2
:20418C00A76013E0A76842F62470C2F20000006880470546386803F089FE2069B86042F61D
:2041AC002870C2F200000168284688473868616803F084FE386803F07DFE00200AB0B0BDCE
:2041CC00F0B520480127F84201D001F0A5FC204D204F214EBD4206D203CD0478A400345962
:2041EC00401CA047F6E71D48002800D08047164D164FBD4202D210CDA047FAE7F0BD03255A
:20420C001BE0416808300A1C2A400BD11A1C2A40AB4305D0046804300C600431043BF9D19D
:20422C00131C05D0047801300C700131013BF9D1021C2A4001D0A84304300368002BE0D14E
:20424C007047C046FFFFFFFF0000000000000000D88A0000608B0000588A000059C501103B
:20426C00F8B5044603F03EFE00F0A4FC054603F0BDFA06460021062939D242F2CC0CC2F220
:20428C00000C880000EBC1003CF80070F7B9A288880000EBC1002CF80020880042F2D0024E
:2042AC0000EBC100C2F200021550A26842F2D4038800C2F2000300EBC1001A50A1816868CF
:2042CC002061304603F04CFB002017E0A288880000EBC1003CF80000904205D1304603F0E7
:2042EC003FFB6FF0020009E0491C0629C9D301F07DFD304603F034FB6FF00300F8BD002ABA
:20430C004AD05FEA000C8B071CD1830722D1102A08D370B4103A78C978C0103AFBD270BCE7
:20432C00103238D0042A2CD3082A05D30C2A24BF08C908C008C908C008C908C092072AD079
:20434C00920F22E00B780370491C401C521E22D08B07F7D1C30714D18307D8D0121F12D344
:20436C0008C903801B0C4380001D121FF8D20AE008C903701B0A43701B0A83701B0AC37065
:20438C00001D121FF4D2121D05D00B780370491C401C521EF9D16046704700B5ADF1140D37
:2043AC00401E19D0C01E0DD0401E07D0401E3FD140F215306946FDF719FC39E0142002F0DE
:2043CC00AFFB35E042F26810C2F2000003F0D7FC142002F0A5FB2BE04FF4417002A9FDF788
:2043EC0005FC9DF808008DF800009DF809008DF801009DF80A008DF8020000208DF804009B
:20440C008DF803009DF80D108DF807109DF80C108DF806109DF80B108DF805106A4608214B
:20442C00FEF7CAF942F26810C2F2000003F0A5FC05B000BD38B542F2A0004FF48065C4F2B3
:20444C000200056040F2C414C1F20004206842684FF400714FF08040904720684268002119
:20446C004FF080409047206842684BF6BB314FF080409047206842684CF6CC414FF08040A5
:20448C0090470C21C4F2000108684009FCD242F29000C4F2020005602068C26869464FF04D
:2044AC00804090472068C26869464FF0804090472068C26869464FF0804090472068C26839
:2044CC0069464FF08040904738BD2DE9F04FADF13C0D03F03FFD824648F2042948F2082852
:2044EC0048F2002642F620750024C0F20009C0F20008C0F20006C2F2000500213C220823CF
:20450C00684603F0BFFC59F82400069058F82400089056F82400049055F82400059047F6D3
:20452C00FF2000226946C0F2000003F0A7FC071C01D101F05BFC03F059F98346384600F07E
:20454C0039FB08B901F052FC584603F009FA641CD3D0504603F0E6FC0FB0BDE8F08FF8B569
:20456C00064602F0FBFD42F27025C2F200056F68044602F04BFD2A69E41B4FF47A716143B8
:20458C00090C801A48BF404240F6B83289198A4216D3062814DAA968E868814210D82A68A6
:2045AC0072B1401A44F24021C0F20F014143080C00EB9140824212D91046C82811D312E0FA
:2045CC0043F6AC71C5F200014868400828BF4FF4FA600DD209687D2001F0FF014843C828EC
:2045EC0001D2C820F8BDB0F57A6F88BF4FF47A60F8BD2DE9F8431446884607463E6834B147
:20460C0006F10C00B16803F065FC002837D0B16A4FEA880000EB481051F80090B56A4FEA9F
:20462C00880000EB48102D18083524B12846B16803F050FCF8B14FF00008B8F1080F11DAEB
:20464C0042463846002101F03DFE09EBC8113846802201F04FF908F101085FFA88F8B8F151
:20466C00080FEDDB5CB1284603F030FC06F10C0003F02CFC03E006F10C0003F027FCBDE8F6
:20468C00F883F8B5044603F02DFC00F093FA071C04D101F0ABFB6FF0030037E003F0A6F86A
:2046AC0005460022062A2AD242F2CC00C2F20000910001EBC201465AF6B991004FF6F873D1
:2046CC0001EBC2014352900042F2D00100EBC200C2F200010F50002642F2D4019000C2F2C1
:2046EC00000100EBC2000E50A2807868A060284603F036F9304609E0521C062AD8D301F077
:20470C0075FB284603F02CF96FF00300F8BD704738B5042002F069FE1A4C022818BF0328CD
:20472C001FD103200090164800214FF040521C2300F06DFF17480068EFF3118380F3118896
:20474C0015480421B1FA81F1401AC17F4A1E0129C27703D1206820F00400206083F311884A
:20476C0038BD094D0A48094A296803686018B2FBF3F103F0A3FB2868201803F09BFB38BD61
:20478C0000A00C40DC2B0020C8820000A0860100E0820000DC8200007B29002010B51A48DE
:2047AC001A490078086820F0030040F00100086001F0A7FD00F07CFE0021154C1548216097
:2047CC000068C0680146022088471349134A086820F0010008601068D4F8EC1FEFF311849D
:2047EC0080F311880E4B0F481A680421B1FA81F1401A42F00402C17F1A60491CC17784F3CD
:20480C0011884FF0FF3010BD1E2300200440034040100940A00100108C210840DC82000033
:20482C00DC2B00207B29002010B50079F0B902F0DDFF42F64C72C2F20002117821B903F0CA
:20484C008FF86FF0070032E01178491EC9B2117049B903F085F842F65070C2F200000068DB
:20486C0002F0F6F822E003F07BF81FE002F0BEFF044642F64C71C2F200010878FF2805D1C5
:20488C00204603F06DF86FF0060010E00878401CC0B20128087006D142F65070C2F2000087
:2048AC00006802F0EFF8204603F05AF8002010BDF8B505461E480068EFF3118780F31188C7
:2048CC001C4C20684FF0805640F080002060D6F88C014068014601208847D6F8B001006A74
:2048EC00014614208847286906F5C675810C14BF010C04212868406A024601209047D6F8C1
:20490C008401006823210246002090472868C069014601208847206820F4C02040F48030CB
:20492C002060206840F00100206087F31188F8BDDC8200000020094070B5ADF1100D00241F
:20494C00466830790021C8F2C00141EA0002601C4DF82420B2791143421C4DF820107179EA
:20496C000020C8F280000843511C4DF82200FF204DF8210042F2C8206946C2F20000FFF7B8
:20498C002BFB42F2F825C2F20005286098B148F2E020C0F20000006848F2A061C0F20101C7
:2049AC00B1FBF0F003F066FA71792868012201F07FFE012000E0204604B070BD2DE9F04370
:2049CC0007AFADF11C0D98461646894605461B214FF6FF7203AB02F037FC059050B300207D
:2049EC000090BDF80C000190FF2002907C68059A0DF1120341462846A047041C14D1B8F8F1
:204A0C000A00ADF810005FEA590006D32846324604A902F0B1FD044606E03B782846324654
:204A2C0004A903F023F804462CB104A81B2102F07CFE00E01524204607B0BDE8F083B0B581
:204A4C00044603F011F930F0010002D16FF0040033E003F047FA054602F0C8FE0022062A10
:204A6C0027D242F2CC0CC2F2000C910001EBC2013CF80170EFB1A388910001EBC2013CF841
:204A8C0001108B4212D142F2D0039100C2F2000301EBC20159580A6895424FF0000100D140
:204AAC000121A16002F05CFF002006E0521C062ADBD302F055FF4FF0FF30B0BD41F2A00034
:204ACC0010B5C5F20000D0F8781203680A0F03F0FF03802B28BF0023D0F878024BF69A11A0
:204AEC00C0F30F344FF0FF30A14213D02431A14207D04BF62031A1421DD1E2B90A3358B22C
:204B0C0010BD12B1921E02D010BD0A2010BD143358B210BD521E0DD0921E04D0121F04D0BF
:204B2C00521E04D010BD142010BD152010BD163358B210BD0A2010BD98B504AF42F22434B2
:204B4C00C2F200042478062C01D0142031E006280FDBB0F5486F0CDA06290ADBB1F5486FE2
:204B6C0007DAB2F5FA7F04DA0A2B02DBB3F5486F01DB18201DE042F6C234C2F20004208042
:204B8C0042F6C430C2F20000018042F6C630C2F20000028042F6C830C2F20000038038782D
:204BAC00FEF74CFE42F2B010C2F2000003F0E7F8002098BDF8B5054602F018FE0646002748
:204BCC00032F2FD242F24414C2F20004B80000EBC7002058A0B9B90001EBC70164182560A9
:204BEC000020A06001460A4603F088F96060606808B901F0FBF8304602F0B2FE204615E0DE
:204C0C00B80000EBC7002058A84208D1304602F0A7FEB900204601EBC701401806E07F1C2A
:204C2C00032FD3D3304602F09BFE0020F8BDF8B51646876845684FF0FF340846203829D004
:204C4C00401E23D0401E1ED1307842F20001C8F200010143A86E00F07EF918BB3868B0F13D
:204C6C00804F01D10B2200E02322A86E317802F09CF8A86E95F8591000F053F8307885F884
:204C8C00590000240EE06FF001040BE0002485F8704007E0297B0020012900D1012085F8B9
:204CAC00700000242046F8BD002213460A46194671B510F0030F0BD0002A82BF00F8011B7D
:204CCC00B2F1010210F0030FF6D1002A08BF71BD11F0FF0141EA0121042A18D341EA014156
:204CEC00082A0FD30E46102A08D30C460D46B2F10F0312F00F0272C0103BFCD812F0080F54
:204D0C0018BF42C012F0040F18BF40F8041B12F0020F18BF20F8021B12F0010F18BF0170F2
:204D2C0071BD38B50C4628B14268012101FA04F3134201D102202EE04268A1408A43426012
:204D4C00002541F6B070C2F2000040F8245042F2F810C2F20000015DFF290ED0005D42F286
:204D6C000431C2F20001096851F8201047F60070C6F2C770FEF734FE07E047F6007044F0C8
:204D8C002041C6F2C770FEF72BFE20464FF0FF3102F0D9FC284638BDF0B5ADF10C0D0446F4
:204DAC00A168606808600027142002F0B3FF0DEB870148600DEB8700406868B90024A74232
:204DCC0007D90DEB8400406801F076FE641CA742F7D86FF0030016E07F1CE5D0002748F21D
:204DEC001E163D46C0F2000600950DEB8700F15DA368406846F6FB32C0F2000202F01EF8FE
:204E0C007F1CF1D0284603B0F0BD70B50646F4680C3CF088062802DAB088062802DB6FF023
:204E2C0002002AE002F0E2FCF28842F2D005C2F20005910001EBC2016958D1B102F090FD4C
:204E4C0030792071B0796071307AA071F188880000EBC1002858F168083001F063FBF188D1
:204E6C00880000EBC1002858406803F02FF8002003E002F075FD6FF0020070BD10B54AF2BA
:204E8C00000434214FF080521C23C4F20C04204601F0B4F8012826D0204634210122002374
:204EAC0001F0ACF8002808BF00201DD08020C1F200000068804702F051F942F2702344F29A
:204ECC004022C2F20003C0F20F029C681968D860041BA1EB91016243120C8A4224BF1A6004
:204EEC00012001D21960012010BDF8B5054602F0F9FF044602F0B8FE30F0010002D16FF024
:204F0C00040027E002F072FC02460023062B1CD242F2CC0742F2D006C2F20007C2F200060A
:204F2C00980000EBC300385A78B1990001EBC30170580068844205D1AB80104602F010FDCF
:204F4C00002007E05B1C062BEAD3104602F008FD6FF00400F8BDF8B50D460746EEB237B19F
:204F6C0042F2E420C2F200000068B04201D8022025E042F254244FF0FF31C2F200042046A6
:204F8C0002F0A8FF41F6B071C2F2000151F8260080B941F8267079680120B04008437860D3
:204FAC002A4647F600713846C6F2C77101F064FB002500E00125204602F088FF2846F8BDDC
:204FCC0010B5002448B3401E20D0401E17D0401E0CD0401E01D0022425E0084642F64631BD
:204FEC001222C2F20001FFF78AF91CE0084642F622311222C2F20001FFF781F913E042F6EA
:20500C000F30C2F20000007808700CE042F6FC20C2F200000078087005E042F6E920C2F2E3
:20502C00000000780870204610BD2DE9F041054615F8017B90460E461CE0B8F1000F05F152
:20504C0001050BD0FF2C09D8022015F8011B401E41EA0424F9D101E0042C02D315F8011B82
:20506C0000E0394630462246FFF722FEA61901E006F8010B15F8010B8742F9D115F8014B22
:20508C00002CE9D115F8010B2C7800022418D4D1BDE8F08145F2280010B5C4F20900046819
:2050AC0054B343F6AC71C5F200018B6803EA5300C00E21D2486880081ED20022C4F20902D0
:2050CC001068096810F0050F4FEA114101F0F00101F5E0710BD1A1420ED2190F38BF40F025
:2050EC000100D90E38BF40F00400106010BDA14284BF20F00500106010BDB0B504AF0024A0
:20510C00087A400901D3082029E03F880FB10B2025E0087802281FD14D6848686D780078A0
:20512C0000EB052080B24FF6F175401B01280DD9C01E012802D91C800A240FE012251D809D
:20514C00C96810462A46FFF7DAF807E001201880C8680078107001E01C8001242046B0BD47
:20516C0070B5ADF1100D466885682968486820F0020048602968486920F00F004861286813
:20518C000321016202A802F071FE40F2C410C1F20000016830690C68009070690190337B9A
:2051AC00317E286848F23002C0F2000248F22806C0F2000652F82120039956F82330A047B5
:2051CC0004B070BD38B541F23405C4F2090528680004040C26D001F019FF42F2DC22C2F23C
:2051EC00000292F90710814205DD10F1800FB8BF6FF07F00D0719188A14212D81368D5F806
:20520C00D40FC01A801C1F2888BF1F20641A4008C4404FF6FF700919884238BF011C9180CD
:20522C0038BD948038BD000038B502F063FE154C0546A01D008840B9FEF720FF04461020AC
:20524C0000F08EF9012C0DD017E0FFF717FE60B10020E080FEF712FF0446102000F080F945
:20526C00012C0AD1FEF7ACF807E030340521204602F024FE204602F01DFE284602F036FE8F
:20528C0038BDC046DC2B0020F8B5054605F128020CCA0846002102F027FB05F1300292E8CD
:2052AC00C00036184FEA164447EB01073804044301F054FF211AB1F1004F08D8011B091DF2
:2052CC00C90F05D1001DA04288BF041C00E0041D04480068426A214601209047383585E814
:2052EC00C000F8BD8C01001038B5054602F0FAFD00F088FA044602F0B7FC30F0010002D11A
:20530C006FF004001DE014B96FF0040019E0686868B16868B0F1FF3F05D06868694601F01B
:20532C007FFC30B10DE04FF0FF30009001E0002000906068009902F0CDFD002100B9012170
:20534C00084638BDF0B5ADF1340D48F27C26C0F20006756834686879FEF704FA02F0CAFDE0
:20536C0007462078B0B901A800213022082302F0CDFD069600200090297947F6D94201ABDE
:20538C00C0F20002201D02F0BDFD01202070304602F08FF9384602F0A9FD30460DB0F0BDCD
:2053AC001549096821280ADC212819D00C380FD00D380FD0001F0FD0C01E0FD01AE0253858
:2053CC0010D0401F10D0401E10D0401E10D011E0086870474868704788687047C868704719
:2053EC000869704748697047C8697047086A7047486A704700207047F001002010B5ADF14C
:20540C00100D42F2A42042F64471C2F20000C2F20001FEF7E1FD42F2F421C2F200010860DC
:20542C00684602F0A8FA42F6C46001216A46C2F20000FEF7B9F842F64074C2F20004206072
:20544C0038B12068002100F005FA2068002102F016FB04B010BD2DE9F04708AFADF1280DBB
:20546C001D468A46044648F2E026C0F2000630684FF47A78B8FBF0F002FB00F900212422EE
:20548C000823684602F006FD786806903068B8FBF0F0454305953878ADF8100051464A46E3
:2054AC006B46204602F0DEFC20460AB0BDE8F08738B500244AF2000521460122C4F20C051E
:2054CC000B460094284600F0A2F82146022201232846009100F09BF834214FF080521C230D
:2054EC00284600F08BFD20B18020C1F200000068804701F033FE42F27024C2F20004606005
:20550C0001F084FD206138BD08B50178A23902D02E3922D023E04179132920D108300088B1
:20552C0001280FD142F6D230C2F200000078022808D142F2D410C2F2000002F020FC01F022
:20554C003DFB0CE0052000F0D5FC014642F2D410C2F2000001F0A6F901E0FBF714FD08BDE9
:20556C00F8B507461248134C0668301902F0EEFC0025A419B8B9204602F0E4FC0646B068EA
:20558C00074205D0F268316938469047C0B230B9304602F0D3FC0646B442F0D103E00348D5
:2055AC000068804702252846F8BDC046D0820000CC820000DC2B00202DE9F04106AF0D464A
:2055CC00064600243888F0B9022B1AD15178107800EB01201FFA80F8B88838EA00000ED19F
:2055EC00E8680168304602F06CFA80450CD0E86801684246304601F014FE044604E08024EB
:20560C0002E00D2400E00B242046BDE8F0812DE9F041984600EB41001646B8F1100F06AFB6
:20562C0000F5007404D3A8F1100800F50174360C3D8802F0F5FA05FA08F545EA0645002184
:20564C00002808BF012148F20002C4F20C0210680028FCD025600120106009B102F0E6FA1F
:20566C00BDE8F08138B542F68441C2F20001086810B342F68842C2F200021078401C10701A
:20568C000C4608680968226840880979083200F09FFF0546162D0FD0042D0DD021460A68DB
:2056AC0042F21C30C2F2000001785088002201F0DEFD284601F034FA38BD10B50022032AD5
:2056CC0013D242F2441442F24C131146C2F20004C2F20003900000EBC2002150900000EBCB
:2056EC00C2001950521C032AF4D30022062A0BD242F2CC031146C2F20003900000EBC20094
:20570C001952521C062AF8D301F014FF10BD08B542F2E000C4F20200006890FAA0F0B0FA23
:20572C0080F142F2E0030120C6F2020300FA01F21A604EF28022CEF20002106042F2E42044
:20574C00C2F20000006888420AD941F6B070C2F2000050F8210018B102680AB1C9B29047C0
:20576C0008BD70B504464AF200060D466008ADF1080DC4F20C0607D3A8B200210090012269
:20578C000B463046FFF743FFA00807D3A8B200900021022201233046FFF739FFE00807D3C3
:2057AC00A8B2009000210C2202233046FFF72FFF02B070BD2DE9F0411D4616460F468046E5
:2057CC00182001F06BFB041C19D00421002202F039F95020414601F0A0FA20726772A672B5
:2057EC00E560069820610798606101F06EFB47F645522146C0F2000200F046FA00E004205C
:20580C00BDE8F08170B5064601F0F0FF02460025032D1AD242F24414C2F20004A80000EBB5
:20582C00C500205888B1A90001EBC5016058B04208D1104602F094F8A900204601EBC50173
:20584C00401806E06D1C032DE8D3104602F088F8002070BD70B5036893F82C00884220D96B
:20586C009A6A880000EB4110121855689A6A880000EB411016589C6A880000EB4110241831
:20588C0008342046996802F025FB50B10020854204D901463154401C8542FBD8204602F068
:2058AC0015FB70BD2DE9F8439046894607463E687D6842F2F824C2F200042979206800227D
:2058CC0000F0F6FE2068A979002200F0F1FE42463846494601F0F0FB716889680968C96850
:2058EC004909F9D220B1A9792068012200F0E0FEBDE8F8832DE9F8439046894607463E680A
:20590C007D6842F2F824C2F2000429792068012200F0CEFE2068A979002200F0C9FE42467A
:20592C003846494601F0C8FB716889680968C9684909F9D220B1A9792068012200F0B8FECD
:20594C00BDE8F88310B5044642F22530C2F200000078800001F0FEFA42F21431C2F20001C0
:20596C000860A8B109684FF6FF7000F0CAFB60080CD342F6580048F2482311211022C2F2EC
:20598C000000C0F2000300F0D6FA02E0002000E0132010BD38B50446606810F07F4F02D005
:2059AC006FF002001CE001F021FF054642F64C70C2F20000007848B142F65070C2F200005D
:2059CC00006801F045F8606801F05CF8606842F65071C2F200010860284601F0C1FF0020FB
:2059EC0038BD38B585684468E06E01F07AFBA06E01F0B1FD2968486820F00200486004F1CF
:205A0C001C0002F02BFA6879FDF782FF207818B904F1380002F01EFA04F1900001F0BEFE1F
:205A2C0002F068FA002184F8A41002F05FFA38BD2DE9F84308AF1D461646884681461420E5
:205A4C0001F02CFA041C17D03A78032101F0FAFFA4F808902674C4F80C805020294601F076
:205A6C005CF9607401F031FA47F661022146C0F2000200F009F900E00420BDE8F88310B53F
:205A8C0041F20001C4F2080151F8202047F60071C7F607711140014342F28002C4F2020296
:205AAC001368012202FA00F41C4201D041F4800142F2D003C4F202031B6802FA00F01842DC
:205ACC0001D041F40001084610BD08B542F6D230C2F200000078401E04D0401E1AD101F009
:205AEC006DF817E0012142F6C23042F6C632009142F6C833C2F2000042F6C431C2F2000267
:205B0C00C2F20003C2F20001008812881B880988FFF712F808BD0000F8B506460F4D104F3E
:205B2C007388002417E0A00000EBC400321851689068D26852B9AF420BD00A7855F82220D7
:205B4C000346491C08461946904701E0FEF7D7FB7388641CA4B2A342E5DCF8BD588A000051
:205B6C00648A000038B505462420FAF761FA041C02D16FF0030019E020B1002124220823B2
:205B8C0002F0CCF92879012801D101202076A8682146002202F0B2F9E860204600F08CFF90
:205BAC00E86808B1002001E06FF0030038BD38B504463C20FAF73CFA051C02D16FF0030068
:205BCC0019E020B100213C22082302F05BF9207AA86160892862E0682861606829460022BF
:205BEC0002F04CF90446284600F066FF0CB1002001E06FF0030038BD2DE9F0411D4616463A
:205C0C000F468046102001F049F9041C15D00421072201F017FF5020414601F07EF82072B0
:205C2C006772A672E56001F050F947F66F522146C0F2000200F028F800E00420BDE8F081A5
:205C4C0038B5054601F0D2FD02460024062C16D242F2CC03C2F20003A00000EBC400185A3F
:205C6C0068B1A10001EBC401585AA84204D1104601F076FEA0B206E0641C062CECD3104682
:205C8C0001F06EFEFF2038BD10B5ADF1080D0B461446D978012905D1998842F63472C2F260
:205CAC00000211801021022201F04FF830B9002000906946204601F0BEFB10B101F017FD9A
:205CCC0004E00098447801F031FB204602B010BD70B51646044642F2A000C4F202000460C3
:205CEC0040F2C415C1F20005286842684FF0804090470C21C4F2000108684009FCD22868CA
:205D0C00C26831464FF08040904742F29000C4F20200046070BD70B50C4642F600015200F1
:205D2C00C4F200010A6042F60806C4F20006306042F604050320C4F200052860022001F0EA
:205D4C00ECFF28684008FCD2346005202860022001F0E3FF28684008FCD270BD08B54FF49D
:205D6C0080604FF4A1716A46FFF7B2FF4FF480604FF4C0616A46FFF7ABFF4FF480604FF44E
:205D8C00A0616A46FFF7A4FFFEF754FBFDF77BFC41F6F06203201221C2F20002FDF787FEF0
:205DAC0008BD00000C4885460C4885446F4607208743BD460A486F4607600A48002803D072
:205DCC007946491D8E460047FEF7FAF901F080FD02F03CF8FEE7C046E83F002000040000C5
:205DEC00642F0020A57C000000BF704708B5FFF7FBFFFEE738B50546094800688047094CAE
:205E0C00201D006810B1014628468847206800B18047054800688047FFF7E8FF38BDC04638
:205E2C00542F00205C2F0020582F002038B50F4C2C34A4F12C01086820F00100086054F8C2
:205E4C002C1C4FF0805541F0800144F82C1C01202060D5F88C11226849688847D5F8B00111
:205E6C00006A014614208847206838BD002009402DE9F0411D4616460F468046142001F036
:205E8C000DF8041C12D00121142201F0A4FE84F80880E7602682A57401F017F847F6B932D0
:205EAC002146C0F20002FFF7EFFE00E00420BDE8F08100B5ADF13C0D00213C2208236846CA
:205ECC0001F0E0FF41F6CC00C2F2000007904FF4027008900320069042F65D1142F22C008C
:205EEC0000236A46C0F20001C2F2000001F0AAFF0FB000BD30B5ADF10C0D05460020ADF89A
:205F0C0004000A2000F0CAFF041C10D00421312201F098FD258100F0D8FF01A947F6515299
:205F2C0002230091C0F20002214600F0A9F8BDF8040003B030BD2DE9F0411D4616460F463F
:205F4C008046142000F0AAFF041C12D00421022201F041FEC4F80880A781A673256100F02C
:205F6C00B4FF47F6AB322146C0F20002FFF78CFE00E00420BDE8F08138B542F62C75C2F219
:205F8C000005286800F66C21002008802968E8220A802968E83140F684120A8042F2FC24BC
:205FAC00C2F200042160FAF743F842F20031C2F2000108602868206038BDC0B5ADF1140DB5
:205FCC001F4616460822ADF800201922ADF802200190029142F63070C2F20000016868463C
:205FEC00884716B1BDF80C10318017B1BDF80E1039800499089A116005B0C0BD70B51E46BE
:20600C000C181546102E02D3103EA41C2D0C01F007FE0021002808BF0121084648F20001EA
:20602C00C4F20C010A68002AFCD0248801220A6008B101F0FBFD25403541A8B270BD00B537
:20604C00ADF13C0D00213C220823684601F01AFF41F21060C2F2000007904FF42F70089083
:20606C000120069042F2232142F27C0000236A46C0F20001C2F2000001F0E4FE0FB000BDAC
:20608C0038B51C4615460B461021022200F05DFEB0B9002000906946284601F0CCF978B93C
:2060AC000099487848B90846C1798C4205D10146049889682246FEF722F9009801F036F94A
:2060CC0038BDF8B515460E4607460E2000F0E6FE041C14D004210A2201F0B4FC502039462F
:2060EC0000F01BFE20726681257300F0EEFE47F669522146C0F20002FFF7C6FD00E00420CE
:20610C00F8BD38B54FF6FF74844206D000F067FFB0B104800021817012E042F22532C2F2FF
:20612C0000021378002083420ADD034621F8204001EB8005AB701578401CC0B28542F5DCB9
:20614C0038BD10B5ADF1080D0446A06868B1A068B0F1FF3F05D0A068694600F061FD30B1B9
:20616C000DE04FF0FF30009001E0002000906068009901F0AFFE002100B90121084602B09C
:20618C0010BD10B504466078162809D142F21C31C2F2000160880978082201F068F830B12C
:2061AC00217904F1080001F0C0FA012008E0012000F0B6FC42F68440C2F200000460002091
:2061CC0010BD00B5ADF10C0D42F2942042F2F021C2F20000C2F20001009042F21A30019144
:2061EC00C2F2000042F22331C2F200010078097842F284230022C2F20003FFF7DBFA03B077
:20620C0000BD0000012810B515D1012001F0EDF8012812D000F014FA094C0120E0803034A7
:20622C00204601F043FE0521204601F047FE204601F040FE01E0FFF73BF9002010BDC04665
:20624C00DC2B00200C4810B50068EFF3118480F311880B48C088012809D1084834210122A1
:20626C000023FFF7CBFE002808BF002000D0012084F3118810BDC046DC82000000A00C4003
:20628C00DC2B0020B0B504460D48026840680F4600211200401841EB020104F128020CCAB1
:2062AC00FCF7BBF805460B4647B104F1280003C82A4601F019FB303484E803002846B0BD8D
:2062CC000820094038B50B4648F27924C0F20004258869460D80A4788C700C7812190A704C
:2062EC009DF8024003F00F0212198DF802209DF8012002EB23128DF801200322FFF7D2FA80
:20630C0038BD10B54FF08054D4F8900181680120884741F21401C4F209010868800902D299
:20632C0008688009FCD304F5D074206801684020884720688168402088471128F9D110BDBC
:20634C002DE9F041984615460E460746102000F0A5FD041C10D02A46042101F073FB5020EA
:20636C00394600F0DAFC2072E66000F0AEFD21464246FFF789FC00E00420BDE8F08110B510
:20638C00ADF1080D00208DF80400082000F086FD041C0FD00121122201F01DFC00F095FD19
:2063AC0001A947F6D53201230091C0F200022146FFF766FE9DF8040002B010BD2DE9F84350
:2063CC0008AF1D46164688468146102000F066FD041C0FD03A78294601F0FDFBA4F80890E6
:2063EC00A4F80A80E66000F070FD7A682146FFF74BFC00E00420BDE8F88398B5062810DAB9
:20640C0042F2CC038200C2F2000302EBC0029F5A3FB1820002EBC0029A5A4FF6F8749442F0
:20642C0002D14FF0FF3005E0820002EBC002985A0880002098BD2DE9F0411D4616460F46AF
:20644C0080460E2000F02AFD041C0FD0812020700120E070A4F8048027816681A58100F0BF
:20646C0034FD069A2146FFF70FFC00E00420BDE8F08100000C4910B50968EFF3118481F347
:20648C0011880A49B0FA80F2891ACA7F531E012ACB7703D1034A11688143116084F311883F
:2064AC0010BDC046DC2B0020DC8200007B29002070B5ADF1100D14460D4606460820ADF80E
:2064CC0000000920ADF8020042F63070C2F20000016868468847BDF804103180BDF8061029
:2064EC0029800299216004B070BD70B5ADF1100D14460D4606460820ADF800000920ADF876
:20650C00020042F63070C2F20000016868468847BDF804103180BDF80610298002992160F1
:20652C0004B070BD38B50C46054601F05FF90146002044F80C0C286860B12A6852F80C0C4B
:20654C0028B152F80C2C52F80C0C0028F9D142F80C4C00E02C60084601F002FA38BD08B595
:20656C000A4642F2E421C2F20001096802F0FF03994209D941F6B07302F0FF01C2F20003AC
:20658C0053F82110884201D0022004E04FF4E02100F072F8002008BDF8B515460E460746A6
:2065AC00102000F07BFC041C10D00421362201F049FA27816681E56000F087FC47F6395278
:2065CC002146C0F20002FFF75FFB00E00420F8BDF8B515460E460746102000F05FFC041C47
:2065EC0010D00221152201F0F6FA2781A672E56000F06BFC47F6C7322146C0F20002FFF7D1
:20660C0043FB00E00420F8BD38B5044648F2E020C0F2000002680023D9075508D007294347
:20662C00801A99414FF47A72FBF7F7FE002901D1B0F1004F01D36FF000406060002038BD91
:20664C0038B54AF2000501240021C4F20C0522460B4600942846FEF7DAFF234600210222BC
:20666C0028460093FEF7D3FF00F078FD42F27821C2F20001086038BD10B542F2E423C2F24E
:20668C0000031B6802F0FF04A34209D941F6B07402F0FF03C2F2000454F82330984201D05B
:2066AC00022004E008461146FDF79AF9002010BD42F2E423C2F200031B688B4207D941F656
:2066CC00B073C2F2000353F82130984201D0022009E01046002200B1012242F20000C4F24C
:2066EC000200425400207047F8B50546AC68666896F8590001F0DFF8074696F859102846E4
:20670C00FFF72DFF0021C8F2060101EA0700814205D1706D042101742046FCF7C9FCF8BD94
:20672C0008B5A0B1401E0DD0401E06D0801E12D104206946FEF744FC0DE002206946FEF794
:20674C003FFC08E001206946FEF73AFC03E000206946FEF735FC08BDF8B515460E460746C9
